:020000040800F2
:1000000030560024150400086F8700080980000896
:100010006D870008FD1C0008399D000800000000E5
:100020000000000000000000000000005503000870
:100030006122000800000000B1030008E58C000800
:1000400033040008330400083304000833040008B4
:1000500033040008330400083304000833040008A4
:10006000330400083304000863220008051E00085A
:10007000111E00081D1E0008330400083304000888
:100080003304000833040008E11C000833040008AE
:100090003304000833040008330400086922000810
:1000A0003304000833040008330400083304000854
:1000B00033040008A18E000833040008330400084C
:1000C0003304000833040008330400083304000834
:1000D0003304000833040008330400083304000824
:1000E0003304000833040008000000003304000853
:1000F0003304000833040008330400083304000804
:1001000033040008330400083304000833040008F3
:100110002194000833040008AD8E0008B98E000851
:1001200033040008330400083304000833040008D3
:1001300033040008330400083304000833040008C3
:1001400000000000000000000000000000000000AF
:1001500033040008330400083304000833040008A3
:100160003304000833040008330400083304000893
:100170003304000833040008330400083304000883
:100180003304000833040008330400083304000873
:100190003304000833040008330400083304000863
:1001A0003304000833040008330400083304000853
:1001B0003304000833040008330400083304000843
:1001C0003304000833040008330400083304000833
:1001D0003304000833040008330400083304000823
:1001E0003304000833040008330400083304000813
:1001F0003304000833040008330400083304000803
:1002000033040008330400083304000833040008F2
:1002100033040008330400083304000833040008E2
:100220003304000833040008330400080000000011
:100230003304000833040008000000003304000801
:1002400033040008330400083304000833040008B2
:1002500033040008330400083304000833040008A2
:100260003304000833040008330400083304000892
:1002700033040008330400083304000800000000C1
:1002800033040008330400083304000800000000B1
:10029000000000003304000800F002F800F04AF803
:1002A0000AA090E8000C82448344AAF10107DA45D1
:1002B00001D100F03FF8AFF2090EBAE80F0013F0D9
:1002C000010F18BFFB1A43F001031847E0C30000F9
:1002D00000C40000103A24BF78C878C1FAD8520789
:1002E00024BF30C830C144BF04680C6070470000B0
:1002F0000023002400250026103A28BF78C1FBD82F
:10030000520728BF30C148BF0B6070471FB50BF0C4
:1003100047FC00F043FA0400002000210BF0DCFB56
:10032000401C6060002000210BF0C0FBE0601FBD9E
:1003300010B510BD00F0DAFA1146FFF7E7FF09F03B
:1003400019FF00F07DFD03B4FFF7F2FF03BC00F0DE
:10035000B5FD00002C4B19680868B0E8F04F80F339
:100360000988BFF36F8F4FF0000080F3118870474A
:100370000000000008480068006880F308884FF01B
:10038000000080F3148862B661B6BFF34F8FBFF3ED
:100390006F8F00DF00BF00BF08ED00E0DFF80C004A
:1003A000016841F470010160704700BF88ED00E012
:1003B000EFF30980BFF36F8F134B1A681EF0100F15
:1003C00008BF20ED108A20E9F04F106009B44FF00B
:1003D000500080F31188BFF34F8FBFF36F8F0AF087
:1003E0002FFE4FF0000080F3118809BC19680868DF
:1003F000B0E8F04F1EF0100F08BFB0EC108A80F389
:100400000988BFF36F8F704730000024EFF3058039
:10041000704700000A4880470A4880470A4800475A
:10042000FEE7FEE7FEE7FEE7FEE7FEE7FEE7FEE7A4
:10043000FEE7FEE705480649064A074B70470000FD
:1004400025230008A98D00089902000830500024D7
:1004500030560024305200243052002453EA020C5B
:1004600000F069802DE9F04B4FF00006002B1FBF14
:10047000B3FA83F503FA05F424FA05F65E4012BFD9
:100480001643B2FA82F502FA05F4C5F120051EBF43
:1004900022FA05FC44EA0C04203556EA044C4FEAE3
:1004A000144418BF641C4FF000084FF0000990423C
:1004B00071EB030C39D3002919BFB1FA81F701FAA6
:1004C00007F6B0FA80F700FA07F6C7F120071EBF5B
:1004D00020FA07FC46EA0C062037B6FBF4FCA7EB33
:1004E0000507103F07F01F0BCBF120060CFA0BFBA2
:1004F0002CFA06F644BFB3460026202FA4BF5E4662
:100500004FF0000B5BEA060C08BF4FF0010B19EB34
:100510000B09ABFB027C48EB0608C01B06FB02CCB8
:100520000BFB03CC71EB0C01C1E70B4602464146C5
:100530004846BDE8F08B13B54FF000004FF00001C6
:10054000AFF30080BDE81C407047032A40F23080C2
:1005500010F0030C00F0158011F8013BBCF1020F04
:10056000624498BF11F801CB00F8013B38BF11F885
:10057000013BA2F1040298BF00F801CB38BF00F89C
:10058000013B11F0030300F02580083AC0F0088019
:1005900051F8043B083A51F804CBA0E80810F5E7FD
:1005A000121D5CBF51F8043B40F8043BAFF30080E0
:1005B000D20724BF11F8013B11F801CB48BF11F855
:1005C000012B24BF00F8013B00F801CB48BF00F825
:1005D000012B704710B5203AC0F00B80B1E81850DD
:1005E000203AA0E81850B1E81850A0E81850BFF41D
:1005F000F5AF5FEA027C24BFB1E81850A0E81850BC
:1006000044BF18C918C0BDE810405FEA827C24BF0F
:1006100051F8043B40F8043B08BF7047D20728BF9D
:1006200031F8023B48BF11F8012B28BF20F8023BEC
:1006300048BF00F8012B704702F0FF0343EA032292
:1006400042EA024200F08AB84FF0000200B51346B9
:1006500094469646203922BFA0E80C50A0E80C50E2
:10066000B1F12001BFF4F7AF090728BFA0E80C5093
:1006700048BF0CC05DF804EB890028BF40F8042B8C
:1006800008BF704748BF20F8022B11F0804F18BFF9
:1006900000F8012B704770477047704710B500F0A5
:1006A00081F8006810BD10B5044600F07BF80460C6
:1006B00010BD00000FB4002300B589B00CA9009153
:1006C0000B99CB60214B7B440693214B7B440793D2
:1006D00004236FF00042CDE901321E4A7A446B4692
:1006E0000892024600200BF03EFB09B05DF814FBB7
:1006F00070B506464FF0FF3015460C46324686B0C0
:100700000091CDE9010169460020049004A8FFF79B
:10071000D1FF02460498211825B108B1084600E02F
:1007200020462860049800280DD0002A02DD009899
:10073000884208D03246081B69460094CDE901047E
:1007400004A8FFF7B7FF06B070BD0000F500000079
:100750000D010000CD0000004FF000020429C0F0A0
:10076000128010F0030C3FF471AFCCF1040CBCF11B
:10077000020F18BF00F8012BA8BF20F8022BA1EB35
:100780000C01FFF763BF5FEAC17C24BF00F8012BB7
:1007900000F8012B48BF00F8012B70470048704754
:1007A000F04F002400487047D04F002410B5044695
:1007B00000F0C2F80068005D00F0010010BD426862
:1007C00042B1016811F8013B23B1521EC0E9001289
:1007D000184670470121C160881E704742685AB1AF
:1007E000C368016843B983688B4205D0491E521C17
:1007F000C0E90012002070474FF0FF307047000042
:100800002DE9F047814616468AB0354878440DC830
:100810008DE80D0032487844801C03AC0DC884E894
:100820000D0041F69B300844372190FBF1F290FB1C
:10083000F1F5A5F1800501FB12041B3C02D56442D1
:10084000012000E00020DFF898A080460027FA444D
:10085000AAF1BE0A0EE0E0070AD03246684607EB6E
:10086000470101230AEB810101F06AF88DE80700D6
:1008700064107F1C002CEED1194F7F44AE3F19E06D
:10088000E80715D007EB04100DF1180A90E80E00E8
:100890008AE80E00C068F04201D1981908903246EB
:1008A000012306A903A801F04BF803AB83E8070076
:1008B0006D10641C002DE3D14FF0010332466946F0
:1008C000B8F1000F03A802D001F010F801E001F028
:1008D00037F8C9E90001C9F808200AB0BDE8F08777
:1008E00074B6000000487047D04F00247546FFF7EB
:1008F000F9FFAE4605006946534620F007008546DD
:1009000018B020B5FFF796FDBDE820404FF0000677
:100910004FF000074FF000084FF0000B21F00701E7
:10092000AC46ACE8C009ACE8C009ACE8C009ACE82A
:10093000C0098D467047000010B5FFF72FFF001D5E
:1009400010BD00BF95B100002DE9FF4F06468BB0EA
:100950000878FF2806D0491C2D2805D000244FF028
:10096000000908E000200CE00124F8E709EB890306
:10097000491C00EB43090878FF28F7D114B1C9F1ED
:1009800000008146107800252C46AA4629462D28CD
:1009900001D02B2804D1521C2D2813D000208246D0
:1009A0008B461078FF280FD04FF0000C0A21521C04
:1009B000A5FB017804FB018105FB0C11C5194BEB6C
:1009C0000104EEE70120EAE7002108464FF00000AD
:1009D000BAF1000F02D000EB80004008C0F381574D
:1009E000012F01DD4FF0FF370E9955EA040009EBA6
:1009F00001080BD04FF0020918F5FA7F16DA4FEA1A
:100A0000CA70002F706008DD012007E04FEACA704D
:100A1000C6E900B00FB0BDE8F08F00203060FFF7EE
:100A2000C1FEC0F800901821084616E0B8F5FA7F1C
:100A300018DD002F02DAF748784401E0F6487844E0
:100A4000D0E90010C6E9001040EACA707060FFF7F4
:100A5000A9FEC0F80090142108460FB0BDE8F04F81
:100A60000BF01EB9002108464FF00000B8F100015C
:100A7000099002DAC7F1000200E03A4601DAC8F153
:100A8000000106A8FFF7BCFE06AB93E8070003AB26
:100A900083E8070044F23E005BEA040100905846F8
:100AA00004D144F21E012C465D460091210C09043C
:100AB000014306D10099240444EA15442D04103959
:100AC000009104F07F41014306D10099240244EAD9
:100AD00015642D020839009104F07041014306D1DC
:100AE0000099240144EA15742D01091F009104F0B6
:100AF0004041014306D10099A40044EA9574AD0039
:100B0000891E009104F00041084304D100986D193A
:100B10006441401E00904FF001033A466846B8F128
:100B2000000FCDE9014503A902DD00F01EFF01E041
:100B300000F0F1FEBAF1000F04460D4601D084F03A
:100B40000044002108464FF00000099940F2FF7769
:100B5000484010F00C0F07D124F00040284303D088
:100B6000C4F30A50B84212D1FFF71CFEC0F800903F
:100B7000C4F30A50B8420AD1A8487844D0E900101A
:100B8000C6E9001004F000410843706042E7C6E97E
:100B900000543FE72DE9FF4F1F464FF0000A4FF08A
:100BA000FF38454691B0D7E90146CDF83CA0FFF7A4
:100BB000F5FDC0680168405C1090B96912986D1C21
:100BC0008847396A814688470028F6D1B9F1FF3F46
:100BD0000AD0002E24F4D06411DDB9F12B0F08D017
:100BE000B9F12D0F0BD102E0404615B013E744F4E4
:100BF0008064B96912986D1C8847761E814660052D
:100C000004A901D52D2000E02B20002E01F1010BBD
:100C10000DF130088DF810003FDDB9F1690F08D0F3
:100C2000B9F1490F05D0B9F16E0F02D0B9F14E0FED
:100C30001CD13B4601A8009580E85002DDE9121264
:100C40006FF002000BF093F8C11CCED10EE0B96931
:100C500012986D1C884781461398761E44F40074E0
:100C600005600F98401C002E0F9016DDB9F1300F73
:100C7000EDD0B9F1780F02D0B9F1580F0DD10F981E
:100C800001280AD13B46CDE90054DDE91212001FCC
:100C900002960BF06AF8C11CA7D1109989453ED184
:100CA00044F0800406E01399681CAAF1010A44F498
:100CB00000740860B9696D1C1298761E8847302848
:100CC0008146F0D02BE01099894505D1200603D448
:100CD000761E44F0800418E0484609F0E5F908B3B0
:100CE000761E0DF123018B4544F4007408D2A9F15E
:100CF00030000BF8010B200607D5AAF1010003E034
:100D0000200602D40AF101008246A00502D51399FB
:100D1000681C0860B96912986D1C88478146002ECE
:100D2000D1DC53E0002E51DDB9F1650F02D0B9F1ED
:100D3000450F4BD1A00549D5B9696D1C1298761E97
:100D400024F440748847002E81460CDD2B2804D003
:100D5000B9F12D0F07D144F48074B96912986D1C54
:100D60008847761E8146E00501D52D2100E02B2124
:100D700008F8011BCDF8008021E0761E0DF1390145
:100D8000884544F400740CD2A9F1300010F0FF0043
:100D900088F8000002D10099884509D908F10108B6
:100DA00006E0E00501D51E4801E042F20F708246E0
:100DB000B96912986D1C8847814613980560002E0A
:100DC00004DD484609F070F90028D6D1F969129877
:100DD0008847FF2053468BF8000088F80000002069
:100DE0000A900B9004AA0CA90AA8FFF7ADFDA00574
:100DF00002D46FF00100F8E614F0240F12D0E007DF
:100E00001CD13868DDE90A12031D3B600068C0E9A7
:100E1000001213E098BC00008ABC00004EBB00002A
:100E2000F1D8FFFF0AA9684609F0BEF8E00705D12E
:100E30003868009A011D3960006802602846D4E6CF
:100E400010B50446AFF300802046BDE81040FFF720
:100E50007ABA00004FF0013C50F8042B51F8043BE3
:100E60009A4215D1A2EB0C03934313EACC130BD196
:100E700050F8042B51F8043B9A4209D1A2EB0C0321
:100E8000934313EACC13E7D04FF00000704700BF44
:100E9000D01A01BAB1FA81F101F0180122FA01F079
:100EA000CB40C1F12001DBB2C0B2C01A2CFA01F371
:100EB000D11A914311EAC311E6D1704701491820B4
:100EC000ABBEFEE7260002002DE9FF4F1F464FF0A4
:100ED0003C0987B04FF00042DDE9141001F1010830
:100EE000DDF858A002EA40500390002005908346A8
:100EF000054604460490B969461E08988847AAF139
:100F0000010A0290BAF1000F3BDD02982E2815D09D
:100F1000102100F017FA00282EDB4FF0010B059985
:100F2000014317D0B9F1000F0BDB4A46C11700F09F
:100F3000F6F905430C43A9F1040905E001200490EA
:100F40000BE008B145F0010501200590049820B997
:100F5000361D02E0049800B1361FB969089808F1FF
:100F600001088847BBF1000FAAF1010A0290C9D01D
:100F70000999C1F80080C5E70298702808D0502868
:100F800006D0F96908988847BBF1000F14D04FE0EC
:100F9000002002900120BBF1000F049009D0B96934
:100FA000089808F101088847AAF10109B9F1000F72
:100FB00007DCF969089888476FF001000BB0BDE8BD
:100FC000F08F2B2804D02D280CD14FF0FF30049047
:100FD000B969089808F101088847A9F10109B9F130
:100FE000000FE6DD411CE4D00A2100F0ABF9002837
:100FF000DFDB029908F1010801EB810100EB410000
:101000000290B969089888470A2100F09BF9099A6B
:10101000A9F10109B9F1000FC2F8008001DD002833
:10102000E7DAF969089888470499029800FB016695
:1010300055EA040004D004F04041090002D006E063
:10104000039898E0A40044EA9574AD00B61E04F03D
:101050000041080002D16D196441761E159810F008
:10106000240F03D04FF00B095C4803E04FF0280930
:101070006FF07D008246564507DAAAEB06018944E7
:10108000B9F1410F01DD4FF0410901200021A9F123
:10109000010200F044F9024628400B462140084373
:1010A00001D0012100E00021501E029143F1FF31E7
:1010B00028402140084301D0012000E0002002998F
:1010C000834651EA0B014FD0002108464FF0000043
:1010D000039900F4400039B100EB80004FF4400167
:1010E00000EBD07001EA60008015012802DD4FF0AE
:1010F000FF3000E013D0401C36D0029860B3BBF143
:10110000000F0CD14A460120002100F008F92840C8
:101110002140084301D0012000E00020E0B101207F
:101120004A46002100F0FBF8034640190A46614197
:101130002D1A8C4111D3B9F1400F09DD159810F02B
:10114000240F02D0AAF1340603E0AAF1170600E04A
:10115000761C00254FF0004406E05B1E42F1FF3292
:1011600020EA030521EA0204CAF10100B04206DACE
:101170001B49039808430190002000900EE0039A59
:10118000C4F3D321E80A0A43164940EA44500A430B
:101190003146CDE90002684608F012FF159810F0BC
:1011A000240F0BD01598C00715D13868DDE900125F
:1011B000031D3B600068C0E900120CE002A869460C
:1011C00008F0F2FE1598C00705D13868029A011D93
:1011D0003960006802604046F0E6000002FCFFFF54
:1011E0000000F07F0000F03F2DE9FF4F92461D46C2
:1011F00085B04FF00041DDE9124BDDE914727F1E2E
:1012000001EA4B50414940F0FF4940EA0108002102
:1012100022F020004928049102D04E2828D04CE02A
:101220003BA0012607C88DE80700A9690698641C41
:1012300088477F1E014606D41DF8060018B121F02C
:10124000200181420BD0E96906988847032E34D0EB
:10125000082E32D06FF0010009B0BDE8F08F761C87
:10126000032E01D0082EE0D1601CCAF80000DCE794
:10127000A9690698641C88477F1E2AD420F02000A4
:10128000412826D1A9690698641C88477F1E20D46E
:1012900020F020004E281CD1A9690698641C8847BC
:1012A0007F1E48F4002849F48009CAF8004001D4A0
:1012B000282806D0E969069888475FEACB7012D0E3
:1012C00022E0A9690698641C88477F1E01D4002883
:1012D00003DAE96906988847BCE72928F1D1641C3C
:1012E000CAF80040E9E71BF0240F07D028680499EA
:1012F000031D2B600068C0E9001805E02868021D86
:101300002A600068C0F800902046A5E70000F07F42
:10131000494E46494E495459000000007047B2F109
:1013200020030AD5C2F1200301FA02F120FA03F3E7
:1013300000FA02F041EA0301704700FA03F14FF0AE
:10134000000070473A2800D2303820F02002412AAD
:1013500001D3A2F13700884201D34FF0FF3070472C
:101360009FED381A4BF6A86C20EE011AC0F6000C5F
:10137000DFED373AB5EE400AF1EE10FAB0EEC11AE1
:10138000B6EEC12A31EE421A9FED2F2A21EE021A43
:10139000BCEEC12A12EE102A02F180036FF35F2225
:1013A00002EE102A6FF35F230CEB8202B8EE422AA2
:1013B0000CEB830392ED015A93ED003A93ED014A51
:1013C00031EE421A92ED002A75EE420A73EE041ACB
:1013D00073EE032A34EE436A70EEA04A51EEA34A3C
:1013E000F0EE081A34EE224A72EE022A32EE057A44
:1013F00060EEA10A44EE630A35EE225ADFED132AAD
:1014000036EE064A17EE224A41EE240A25EE235A0A
:1014100006EE215A01EE045A21EE204A03EE234A39
:1014200021EE055A02EE635A01EE042A01EE053A56
:10143000B1EE421AB8BFB0EE412A81ED003A80ED1C
:10144000002A7047610B363B00000044DB0F49BCAB
:10145000DB0F493C20F07F4C80EA030023F07F47FC
:10146000ACEB070303F57C5300F0004003F1FF03EE
:101470002DE980494FEA154B09B44FEA144325EA98
:101480000B4E24EA03480FF2042606EB1327490803
:101490003E785FEA320203FB0667C7F5000707FBE9
:1014A00006F64FEA54374FEAD64606F1020607FB26
:1014B000066CCCF1005C4FEA1C472CEA074C07FB9A
:1014C00006F40CFB06F504EB15464FEA961634BFFE
:1014D00000204FF000404FEAD13706FB07FC4FEAEF
:1014E0001C4C0CFB0BF7D21B03FB0CF761EB070149
:1014F0000CFB0EF7B0EB074072EB17420CFB08F742
:1015000034BFA2EB0742B2EB074261EB17414FEA4F
:101510000C444FEA910706FB07FC4FEA1C4C0CFBFE
:101520000BF7B0EBC74072EB573203FB0CF734BF3D
:10153000A2EBC742B2EBC74261EB57310CFB0EF78F
:10154000B0EBC70072EB57720CFB08F734BFA2EB8D
:10155000C702B2EBC70261EB5771039F4FEA81618B
:1015600041EA921104EBCC044FEAD1374FEA826290
:1015700006FB07FC42EA90124FEA80604FEA1C4CDF
:101580000CFB0BF7D21B03FB0CF761EB07010CFB09
:101590000EF7B0EB074072EB17420CFB08F734BFB5
:1015A000A2EB0742B2EB074261EB17414FEA8C55C1
:1015B0004FEA910704EB9C2406FB07FC4FEA1C4C06
:1015C0000CFB0BF7B0EBC74072EB573203FB0CF789
:1015D00034BFA2EBC742B2EBC74261EB57310CFB01
:1015E0000EF7B0EBC70072EB57720CFB08F734BF75
:1015F000A2EBC702B2EBC70261EB577115EB4C25AA
:101600004FEA816141EA92114FEA82624FEAD13793
:1016100042EA901206FB07FC44F100044FEA8060A6
:101620004FEA1C4C0CFB0BF7D21B03FB0CF761EBD6
:1016300007010CFB0EF7B0EB074072EB17420CFBF7
:1016400008F734BFA2EB0742B2EB074261EB174148
:1016500015EB1C154FEA813141EA92414FEA823283
:1016600042EA90424FEA80304FEA0C7644F100049F
:1016700048EA03434EEA0B484FF0000EB2EB080C69
:1016800071EB030724BF624639464EEB0E0E4FF056
:10169000000B0018524149414BEB0B0BB2EB080C0D
:1016A00071EB03077BF1000B24BF624639464EEB1A
:1016B0000E0E4FF0000B0018524149414BEB0B0B43
:1016C000B2EB080C71EB03077BF1000B24BF624601
:1016D00039464EEB0E0E51EA020718BF46F00106DE
:1016E00016EB0E7655F1000254F1000103D5BDE86A
:1016F0008901BDE80088BDE88901BDE80048B61948
:10170000524141EB0101A3F10103704780807F7ECC
:101710007D7C7B7A79787776767574737271717067
:101720006F6E6E6D6C6C6B6A6A6968686766666519
:101730006464636362616160605F5F5E5E5D5D5CA7
:101740005C5B5B5A5A595958585757565655555518
:101750005454535352525251515050504F4F4F4E78
:101760004E4D4D4D4C4C4C4B4B4B4A4A4A494949C6
:101770004848484747474746464645454544444408
:1017800044434343434242424241414146EA0646C2
:10179000A3F570534FEA164646EA42564FEAD22264
:1017A00042EA415210B54FEAD121A3F1010300F002
:1017B0002FF820F0004000F1020C00F0004701EB90
:1017C00000501146BCF5006F40EA070000D210BD82
:1017D000BAF1000F0AD01CB503B44FF004004FF06B
:1017E00004014FF000000FBCBDE810404FF00001B5
:1017F000BBF1010FB9BF04484FF0FF31034800218E
:1018000040EA070010BD00BFFFFFEF7F0000F07F40
:10181000002B9C4630D477002BD01CB54FEA3707FD
:1018200003B44FF010004FF01001BAF1000F06D0D2
:10183000BCF1000FDCBF40F0080040F008014FF0A1
:1018400000000FBCBDE810400BF1010BBBF1010F14
:1018500008BF5FEA170722BF12F1010211F101016F
:101860004FF0004143F1000300F0004043EA000064
:101870007047F9D35708D0E746EA064613F1400F00
:101880004FEA16461FDD13F1200FDFBF16430A464D
:10189000002120335B42BED0C3F1200746EA064652
:1018A00002FA07F74FEA164646EA0706C3F1200791
:1018B00022FA03F201FA07F721FA03F14FF00003CD
:1018C00042EA0702A7E746EA020646EA06464FEA68
:1018D000164646EA0106BCBF46EA0646360C4FF0FD
:1018E00000034FF000024FF0000194E72DE9804C17
:1018F0009A46934670B491E8380007C831EA400C24
:1019000048BF34EA430C03D5FFF7A4FDFFF780FF7F
:10191000F0BCBDE8008C2DE9804C9A46934670B42B
:1019200091E8380007C831EA400C48BF34EA430C5C
:1019300003D5FFF78FFDFFF729FFF0BCBDE8008C52
:101940002DE9804C9A46934670B491E8380007C858
:1019500010F0804F08BF13F0804F03D100F01AF849
:10196000FFF756FFF0BCBDE8008C2DE9804C9A468D
:10197000934670B491E8380007C810F0804F08BF54
:1019800013F0804F03D100F005F8FFF7FFFEF0BC25
:10199000BDE8008C20F07F4780EA030023F07F4CF5
:1019A00007EB0C03A3F57C5300F00040A3F1FE030A
:1019B00092F0000F00F0B38095F0000F00F07780F8
:1019C0002DE901494FEA11404FEA144621EA004847
:1019D00000FB06FC24EA064708FB06F607FB08F8AE
:1019E00000FB07F718EB06484CEB164C4FEA124B7E
:1019F00018EB07484FEA15464CEB174022EA0B4E0E
:101A00000BFB06FC25EA06470EFB06F607FB0EFE5F
:101A10000BFB07F71EEB064E4CEB164C4FF0000687
:101A20001EEB074E4CEB174B18EB0B0840F1000078
:101A300018EB0E0B58EB000840F100008F1A4FF026
:101A400000013CBFC943661B14BFB5EB040C002169
:101A50003CBFC943F61B4FEA17444EEA8E0E27EAF5
:101A600004454FEA1C4704FB07622CEA074C05FBC0
:101A700007F70CFB05F604FB0CFC16EB074642EBE4
:101A8000174216EB0C4642EB1C421BEB060658EBCA
:101A90000202414146EA9E0601D5BDE80189B61918
:101AA000524141EB0101A3F10103BDE801894FEA75
:101AB00014454FEA114724EA054621EA074C05FB85
:101AC00007F406FB07F70CFB06F105FB0CFC11EB1A
:101AD000074144EB17444FEA124711EB0C4144EB2A
:101AE0001C4422EA074C05FB07F206FB07F70CFB38
:101AF00006F605FB0CFC16EB074642EB174216EB0D
:101B00000C4642EB1C456A1854F1000148BF70476F
:101B1000B619524141EB0101A3F10103704795F061
:101B2000000F37D04FEA11424FEA144721EA02462C
:101B300024EA074C02FB07F106FB07F70CFB06F44F
:101B400002FB0CFC14EB074441EB17414FEA15472D
:101B500014EB0C4441EB1C4125EA074C02FB07F552
:101B600006FB07F70CFB06F602FB0CFC16EB074620
:101B700045EB174516EB0C4645EB1C42121951F18B
:101B8000000148BF7047B619524141EB0101A3F172
:101B9000010370474FEA14454FEA114724EA05460E
:101BA00021EA074C05FB07F106FB07F70CFB06F2E1
:101BB0004FF0000605FB0CFC12EB074241EB17410E
:101BC00012EB0C4251EB1C4148BF7047921841EB9D
:101BD0000101A3F10103704770B53A490546006859
:101BE000884202D0384A904202D1D1F8080302E07C
:101BF0003648D0F8080310F4403F11D004F000FB41
:101C000004466868B0F5803F06D0B0F5003F03D0C9
:101C1000B0F5403F27D101E0000C18E0A40822E015
:101C200000214FF4002003F055FB0446686881034F
:101C3000890B18D181140C2915D2DFE801F01406A4
:101C400006060606060B0D0F1113800C4000B4FBB0
:101C5000F0F408E0240906E0640904E0A40902E0C5
:101C6000E40900E0240A02F0E9FF41F2030188429E
:101C700008D8174884422868816813D821F48071F5
:101C8000816070BD13496008884204D82868816863
:101C900021F44071F4E71049884206D82868816829
:101CA00021F4407141F48071EAE70C4988422868C8
:101CB000816804D821F4407141F40071E0E741F4F7
:101CC0004071DDE700200240002102400060025820
:101CD000002D3101105E5F0020BCBE0040787D0108
:101CE000044810B501F0CEF9BDE81040024801F0FB
:101CF000C9B90000F001002454020024FEE70000EE
:101D000000EE100ADFED0C1A01EE101AB8EE400AD0
:101D1000DFED0A0AB8EE411A9FED092AC0EE212A2A
:101D200081EE210A22EEA01A20EE200A71EE400A6E
:101D300080EE820A7047000000FF7F473333534034
:101D4000C3F5283E10B50121044600F015F8012026
:101D500084F82B0010BD10B590ED060A002481ED2B
:101D6000000A90ED070A82ED000A90ED080A83ED63
:101D7000000A80F82A4010BD024600B5D1B3931D79
:101D8000918C1888FFF7BCFFF0EE400AD18C588880
:101D9000B0EE603AFFF7B4FFF0EE400A118D98887C
:101DA000F0EE603AFFF7ACFF9FED141A82ED033AB4
:101DB000C2ED043A82ED050A63EE010ADFED101A66
:101DC00092ED062A20EE010A012042EE210A23EEBE
:101DD000812AC2ED060AD2ED070A00EEA12A82EDA1
:101DE000072AD2ED080A00EEA10A82ED080A82F85D
:101DF0002A0000BDFFE70346C2E70000CDCC4C3E01
:101E0000CDCC4C3F014801F033BF0000C005002499
:101E1000014801F02DBF0000B8020024014801F084
:101E200027BF000038060024294A016891423AD0B1
:101E3000274A1832914236D0254A3032914232D068
:101E4000234A483291422ED0214A603291422AD010
:101E50001F4A7832914226D01D4A9032914222D0B8
:101E60001B4AA83291421ED01A4A91421BD0194AED
:101E70001832914217D0174A3032914213D0154A86
:101E8000483291420FD0134A603291420BD0114A2E
:101E90007832914207D00F4A9032914203D00D4AD6
:101EA000A832914211D1CAB21823103AB2FBF3F210
:101EB0006FF30901032A02F00703074AD25CC265E7
:101EC00000D9091D81650846704721F0FF01F9E737
:101ED0001000024010040240C8BD000830B5224A7C
:101EE000012301689142CAB21BD01F4C1434A14295
:101EF00017D01D4C2834A14213D01B4C3C34A142B6
:101F00000FD0194C5034A1420BD0174C6434A1426D
:101F100007D0154C7834A14203D0134C8C34A14225
:101F20000CD11421114C083AB2FBF1F10F4A803266
:101F300001F01F0504EB8101AB4010E00C4D1824AB
:101F4000103A0D44B2FBF4F1A82D00D80831094A2B
:101F500001F01F0402EB8101064AA3408032603089
:101F600080E80E0030BD00000854025800580258A6
:101F7000F0FBFDBF0008024010B50279531E072B8D
:101F80002DD8174C0168A1421BD0154C1434A14226
:101F900017D0134C2834A14213D0114C3C34A14229
:101FA0000FD00F4C5034A1420BD00D4C6434A142E1
:101FB00007D00B4C7834A14203D0094C8C34A14299
:101FC00003D10849074C443102E00749064C44312B
:101FD00004EB8202C0E91B2101219940416710BD39
:101FE00008540258FC580258FC08024010B5836996
:101FF0004FF0C074826A0146002053B1B3F5005F10
:1020000015D072B1012A0CD0022A0AD0032A09D1B4
:1020100004E01AB1012A06D0022A03D1C96AC90113
:1020200000D5012010BDC96AA142FAD010BD002A16
:10203000F7D0012AF2D0022AF3D0032AF3D010BD40
:102040002DE9F04F804E804FDFF8FC911836DFF815
:10205000F8A148370468856D0AF1300ADFF8ECB161
:102060004C45DFF8ECC1DFF8ECE16DD0B4426BD049
:10207000544569D0BC4267D0DFF8D081A8F1180878
:10208000444561D05C455FD064455DD074455BD00C
:10209000DFF8C481444557D0DFF8BC8108F1180847
:1020A000444551D0DFF8B08108F1300844454BD0A9
:1020B000DFF8A48108F14808444545D0DFF898814D
:1020C00008F1600844453FD0DFF88C8108F17808BA
:1020D000444539D0DFF8808108F19008444533D079
:1020E000DFF8748108F1A80844452DD0DFF86C8131
:1020F000444529D0DFF8648108F11408444523D011
:10210000DFF8588108F1280844451DD0DFF84C81DC
:1021100008F13C08444517D0DFF8408108F1500829
:10212000444511D0DFF8348108F1640844450BD0F0
:10213000DFF8288108F17808444505D0DFF81C81D4
:1021400008F18C08444509D1D0E91948C4F8048045
:10215000C46E1CB1D0E91C48C4F8048004684C4526
:102160002ED0B4422CD054452AD0BC4228D0374E71
:10217000183EB44224D05C4522D0644520D074453A
:102180001ED0354EB4421BD0334E1836B44217D051
:10219000314E3036B44213D02F4E4836B4420FD0B1
:1021A0002D4E6036B4420BD02B4E7836B44207D059
:1021B000294E9036B44203D0274EA836B44215D1EA
:1021C00090F85C603F2406F01F06B440AC600468E1
:1021D000256825F4802525602EE09A600068C1609E
:1021E000BDE8F08F99600068C260F9E71B4EB44209
:1021F0001BD01A4E1436B44217D0184E2836B442AB
:1022000013D0164E3C36B4420FD0144E5036B44262
:102210000BD0124E6436B44207D0104E7836B4421A
:1022200003D00E4E8C36B442DAD190F85C600124B3
:1022300006F01F06B4406C60046863608368402B3E
:102240000368CFD1C9E700001000024088000240B7
:10225000A0000240B8000240100402400854025896
:102260007047102002F0C2BB402002F0BFBB0068E4
:102270000068406A00B2704790ED050A7047014659
:1022800000B5FFF7F4FF0B894A680881C01A00B255
:102290001044486000BD000000229FED060AC0E91E
:1022A00000120281C26080ED040A80ED050A82619D
:1022B000027770470000000010B53C21044600681A
:1022C00004F0CDFD2168002009684862208110BD1E
:1022D000014600B5FFF7CBFFB1F908200881801A4D
:1022E000C86001D4002200E001220A7700EE100A43
:1022F0009FED071ADFED070AF8EEC01A81EE810A9A
:1023000081ED050A60EE200AC1ED040A00BD00005F
:102310000AD72342000070428169491C81617047DD
:1023200072B6FEE7054805490839026842F0020224
:10233000026008688004FCD5704700000C48025811
:1023400010B590ED230A044606F0A0FA84ED250AA4
:1023500094ED240A04F1280006F098FAF0EE400A01
:1023600084ED260A94ED250A20EE000A00EEA00A6C
:1023700007F0DAFD10EE100A094988420FDDB3EECE
:10238000082A94ED251AC2EE000AD4ED261A21EE91
:10239000200A61EEA00A84ED250AC4ED260A10BDCC
:1023A0000000C04100B590ED2D0A0146503006F006
:1023B0006DFA81ED300A81ED0D0A00BD70B50D4654
:1023C0000446D0212DED028BB0EE408AFEF73CF999
:1023D000DFED203A9FED203A9FED204A84F8C4506B
:1023E000204684ED328AB3EE082AF0EE631AB0EE8E
:1023F000431AF0EE440AB7EE000A06F083FAB3EE91
:10240000082AF0EE631AB0EE431AF0EE440AB7EE73
:10241000000A04F1280006F075FAB2EE042ADFED96
:10242000101A9FED101AF0EE000AB6EE000A04F141
:10243000500006F067FA84ED2F3A84ED303A84EDCF
:102440002E3A002084F8CC0084F8CD00BDEC028B3D
:1024500070BD000017B7513800000000000048426E
:102460006F12833A0AD7233C10B5044690F8C40093
:1024700007F012FE84ED2C0A10BD00001CB50446C6
:1024800007C904F178039FED171A00EE100A83E8DC
:10249000070084ED210A20EE010ADFED130A01EEA8
:1024A000101A01A8694601EE200ADFED100A84ED3A
:1024B000220A94ED2C0A20EE200AFEF751FF9DEC33
:1024C000020A94ED211AD4ED221A21EE002A21EEFF
:1024D000800A01EEA02A01EE600A84ED232A84ED31
:1024E000240A1CBD3ACD133F3ACD933FDE316542FD
:1024F00070B50446006805F0B9FD0546206805F092
:10250000ADFD054301D0012070BD2068034AC168BC
:10251000114041F00041C160002070BDFFFFDF7F2E
:10252000704700002DE9F84F04464FF0000BDFF82C
:10253000ECA30D46CDF800B05F4690F85020584609
:10254000F74EE168012A0BD0F64B4FF0010984F8F1
:10255000509041B1296A012905D0226EF2B12AE0DA
:102560000220BDE8F88F686809283CD1A96A4FF4B9
:10257000785049B12A6801F07C0CE96A00EA5240BF
:1025800040EA0C00084302E0296800EA5140216853
:10259000CA6C1A400243CA64E06524E0C4E917B17A
:1025A000A96A286A31B1EA6A401E01F07C01084339
:1025B000104300E0401E2968226E95F804C0521EA8
:1025C00022660CF01F0CE26DC1F3846101FA0CF17C
:1025D00041EA000142EA0102E26504D12068C16CCF
:1025E00019401143C164206805F038FDE8B9286836
:1025F00000280DDB21680303CA6921D090FAA0F0FE
:10260000B0FA80F000F01F0309FA03F00243CA6138
:1026100095F8250095F826100028206813D0C26888
:1026200022F4401242EA4151C160206805F01EFDCB
:102630008046206805F012FD58EA00000DD0F6E053
:10264000C0F38460DEE795F82420C368490541EAB9
:10265000025123F440121143E6E7A86A30B1E86A58
:1026600020B195F82500012836D003E095F8250023
:10267000012804D02068C16821F0007103E02068BF
:10268000C16841F00071C16095F83000012829D07F
:102690002068016921F0020101612A680423206891
:1026A0004FF0070CA96803EAD25318444369C2F3F8
:1026B00004520CFA02FC914023EA0C030B434361E1
:1026C000994909682068B9EB117F1BD16B69C06813
:1026D000C0F3820040001DE0606D012740F0200043
:1026E0006065D1E72168AB8E904ADFF844C2086983
:1026F000D5F838800CEB03431040184340EA08003B
:102700000861CAE7C168C068C9066B69E0D500F016
:102710001000400829698340042914D02A682068E1
:1027200005F0B0FC297F22682869012908D0002122
:1027300002EB8000026E22F000420A43026676E05D
:102740004FF00041F4E72068002105F07DFC000314
:1027500020684FF0000172D005F076FC90FAA0F0EE
:10276000B0FA80F02A6811036ED092FAA2F1B1FAA1
:1027700081F1884204D100232068194605F082FCCB
:102780002068012105F060FC000320684FF0010182
:102790005DD005F059FC90FAA0F0B0FA80F02A68FC
:1027A000110359D092FAA2F1B1FA81F1884204D111
:1027B00020680023012105F065FC2068022105F056
:1027C00043FC000320684FF0020148D005F03CFCB8
:1027D00090FAA0F0B0FA80F02A68110344D092FA7F
:1027E000A2F1B1FA81F1884204D1206800230321CB
:1027F00005F048FC2068032105F026FC0003206852
:102800004FF0030133D005F01FFC90FAA0F0B0FAAE
:1028100080F02A6811032FD092FAA2F1B1FA81F167
:10282000884204D120680023032105F02BFC206896
:10283000816811F0010F22D0E3E000E004E005F030
:1028400003FCC0F384608DE7C2F3846191E705F077
:10285000FBFBC0F38460A2E7C2F38461A6E705F046
:10286000F3FBC0F38460B7E7C2F38461BBE705F014
:10287000EBFBC0F38460CCE7C2F38461D0E750F88F
:10288000C02F2B7BDFF8ACC0296803F018032CFAAB
:1028900003FCC1F3130822EA08020CEA010C42EA25
:1028A0000C0202602448E96881426FD12348DFF8B6
:1028B00090C02268DFF88CE02449824222484FEA27
:1028C0004C08134622D12A68624524D042454BD099
:1028D000A2F1496CBCF1080C56D0A2F1865CBCF1A7
:1028E000100C54D072454DD0DFF864C062455DD005
:1028F000824254D08A4256D01648824201D11648AC
:1029000054E01648824250D115484FE0B2424CD1B3
:102910002A68624526D1012048E000000060025884
:1029200000210240004010040010005C1DFE00FC6D
:102930000200FFFFFFFF0F000000FF4700200240E2
:10294000020030042000F0140008302E0010603225
:102950000004002A00002143000052470000844B7D
:102960000000B84F424501D153481FE0A2F1496C25
:10297000BCF1080C08D0A2F1865CBCF1100C06D0AA
:10298000724506D14D4811E04D480FE01CE04D481E
:102990000CE0DFF834C1624508D0824201D108461C
:1029A00004E08A42ADD1494800E00020D969020321
:1029B0001BD090FAA0F0B0FA80F000BF00F01F0228
:1029C00009FA02F00143D9612D68002D19DA404B54
:1029D0002068984201D0B04209D19968B26801F0EC
:1029E000010102F00102114305E0800EE6E7DAF88A
:1029F000081001F0010141B1606D012740F0200095
:102A00006065384684F850B0ABE5324A9842DFF84A
:102A1000C8C001D0B04201D1114600E061468968CA
:102A2000DFF8B88001F0E07145451DD15FEA01286B
:102A30001AD45045E5D1984202D0B04200D0624647
:102A4000936841F4000023F0E0710143916025494F
:102A500023480968B1FBF0F04000801C00E0401EF4
:102A600000900028FBD1CCE7DFF87C8045450DD1F4
:102A70005FEAC1180AD45045C3D1984202D0B0428F
:102A800000D06246936841F080700FE0DFF85C8010
:102A90004545B6D14D02B4D45045B2D1984202D08A
:102AA000B04200D06246936841F4800023F0E071A8
:102AB00001439160A5E70000400020190002B02505
:102AC0008000501D000180210004002A0020903663
:102AD000002002400023024000630258000084CB23
:102AE000400D030028000024000052C70000B8CFAA
:102AF00070477047704770472DE9F0470F4690F8D0
:102B000050109AB0044601294FF0000915D0002654
:102B1000DFF8F880012084F8500015961696216899
:102B200041450ED13A4D0095284605F09FFA824660
:102B3000206805F09BFA60B10EE002201AB0BDE8F3
:102B4000F087606D84F8506040F0200060650120DF
:102B5000F4E7BAF1000F09D0616D4FF0010941F0BF
:102B600020006065484684F85060E7E720684146E9
:102B7000884201D0A84201D1264800E0264840F60C
:102B80001F72D7F800C0254BBCF1000F23D0D0F83E
:102B900008C0D7F804802CF4404C4CEA080CC0F86C
:102BA00008C0D4F800C08C4501D0AC4507D1896875
:102BB000AB6801F0010103F00103194302E09968D9
:102BC00001F001010029CDD1BD683968836829432E
:102BD0009343194317E0876827F4404787602768C5
:102BE0008F4201D0AF4207D18968AB6801F0010183
:102BF00003F00103194302E0996801F00101002983
:102C0000B0D1816891438160ACE7000000200240B0
:102C10000021024000230240006302580060025875
:102C20002DE9F84F0446EB4E0020DFF8ACB30090DE
:102C3000002794F850000D46DFF8A0A3012808D023
:102C40004FF0010984F85090206805F00BFA18B194
:102C500071E10220BDE8F88F286800280EDB2168AA
:102C60000303CA6928D090FAA0F0B0FA80F000BF40
:102C700000F01F0309FA03F00243CA61D5E900120C
:102C80004FF00C0C20681F23C1F384610CEA921CE6
:102C900002F01F02604493409140026B9A430A4342
:102CA0000263206805F0DEF98046206805F0D2F95D
:102CB00058EA000003D08DE0C0F38460D8E72A68AA
:102CC000042320684FF0070CA96803EAD253184484
:102CD0004369C2F304520CFA02FC914023EA0C034C
:102CE0000B434361BE490968B9EB117F06D12168E6
:102CF0006869C968C1F38201490008E02068C168B9
:102D0000C906C1686869F5D501F010014908884015
:102D1000296904292ED023682A6803EB810102F077
:102D2000F8420B6E024303F0004010430866697ED0
:102D300022682869012917D05FF0000102EB8000AA
:102D4000026E22F000420A430266297E20682A6948
:102D500001290CD00021036902F01F02914023F4E5
:102D6000F0420A43026135E04FF00041E6E74FF4DC
:102D70000061F0E720682978026E02F0F842B2EBB9
:102D8000816F03D1016E21F000410166206829782E
:102D9000426E02F0F842B2EB816F03D1416E21F036
:102DA0000041416620682978826E02F0F842B2EB59
:102DB000816F03D1816E21F00041816620682978FE
:102DC000C26E02F0F842B2EB816F03D1C16E21F006
:102DD0000041C1662068816811F0010F72D150F87E
:102DE000C03F2A7BDFF8FCC1296802F018022CFAE8
:102DF00002FCC1F3130823EA08030CEA010C43EABE
:102E00000C030360E96859456CD177482268DFF804
:102E1000DCC1DFF8DCB18242DFF8D8E17648774BDD
:102E2000DFF8DC8122D12968614524D0B1EB4C0C5C
:102E300038D0A1F1496CBCF1080C35D0A1F1865C09
:102E4000BCF1100C32D0DFF8BCC1614528D071450F
:102E50003AD0814230D0994232D06B48814201D180
:102E60006A4831E041452ED169482DE0B2422AD16D
:102E70002968614501D1012026E0A1F1066CBCF171
:102E8000040C0FD0A1F1496CBCF1080C0CD0A1F1DD
:102E9000865CBCF1100C09D0DFF868C1614507D130
:102EA0005C4811E058460FE05B480DE05B480BE0E2
:102EB000714509D0814201D1184605E09942D1D12E
:102EC000574801E03CE00020D16903031AD090FA92
:102ED000A0F0B0FA80F000BF00F01F0309FA03F081
:102EE0000143D161D5F800C0BCF1000F28DA3E4B98
:102EF00020684C49DFF83091984201D0B04203D1AC
:102F00000A4602E0800EE7E74A469268984202F0DD
:102F1000E07201D0B04209D19D68D6F8088005F072
:102F2000010508F0010845EA080503E0DAF8085051
:102F300005F001054DB1606D012740F0200060658E
:102F4000002084F85000384684E6384DAC451CD14A
:102F500015021AD45045F3D1984202D0B04200D0A5
:102F600049468B6842F4000023F0E07202438A6015
:102F700030492F480968B1FBF0F04000801C00E0A8
:102F8000401E00900028FBD1DAE72B4DAC450CD158
:102F9000D5010AD45045D3D1984202D0B04200D0D6
:102FA00049468B6842F080700EE0244DAC45C7D195
:102FB0005502C5D45045C3D1984202D0B04200D08A
:102FC00049468B6842F4800023F0E07202438A6035
:102FD000B6E70000002102400000FF4700600258F1
:102FE0000010005CFFFF0F000020024002003004D0
:102FF000400020190004002A0008302E0010603222
:103000000000844B2000F0140000214300005247D0
:103010000000B84F0002B0258000501D0001802143
:10302000002090360023024000630258000084CB49
:10303000400D030028000024000052C70000B8CF54
:103040000EB50C49884214D10B48FEF77BFE0B48A5
:1030500090F8CC0000280CD0074801AA02AB6946C2
:10306000FEF779FE05486946FFF708FA0348FFF7BF
:1030700067F90EBDF0010024C0010024D000002437
:10308000704700002DE9F05F044600680668456857
:10309000DFF87082DFF870B2DFF87092404501D03F
:1030A000484501D1584600E09948806800F01F0764
:1030B000B0070ED5A8070CD5606DC00603D4606DAF
:1030C00040F4006060652046FFF72AFA216802207C
:1030D0000860700701D5680703D4300737D5280783
:1030E00035D5606DC00603D4606D40F40070606536
:1030F000206804F0BFFF20B32068484501D1424654
:1031000000E00246824208D03FB1052F05D0092FCA
:1031100003D0484503D1414602E0C16801E00146C1
:10312000C96889040DD4016809070AD504F09AFF1B
:1031300058B3606D40F010006065A06D40F0010074
:10314000A0652046FFF77CFF21680C200860B006D0
:1031500001D5A80603D4700658D5680656D5606D0B
:10316000C00603D4606D40F4005060652068C16CF7
:1031700011F4C07F1AD000218A4604F07BFF02467A
:103180002068484514D1434613E02068416821F087
:103190000C014160606D20F480706065606DC0045A
:1031A000CFD4606D40F001006065CAE70121E3E71C
:1031B0000346834208D03FB1062F05D0072F03D026
:1031C000484503D1414602E0C16801E00146C968B3
:1031D000BAF1000F14D08B0102D58AB18A040FD442
:1031E000026852060CD589020AD404F033FFE8B312
:1031F000606D40F010006065A06D40F00100A065BA
:103200002046FFF775FC21686020086030060BD56A
:10321000280609D5606D40F480306065204600F0D6
:103220008DF9216880200860F0050CD5E8050AD5E5
:10323000606D40F4003060652046FFF75BFC21685C
:103240004FF480700860B0050CD5A8050AD5606DF4
:1032500040F4802060652046FFF74DFC21684FF464
:1032600000700860F00631D5E80600E00AE02DD5D0
:10327000206BE8B12068EFB3404501D0484512D13A
:10328000584611E02068416821F060014160606D9E
:1032900020F480506065606DC005B1D4606D40F071
:1032A00001006065ACE71A48806800F4404050B106
:1032B000606D40F480606065A06D40F00200A06524
:1032C0002046FFF7DDFE216810200860700517D545
:1032D000680515D5616D4FF4806041F480416165EA
:1032E000A16D41F00801A165216808602046BDE894
:1032F000F05F00E001E0FFF7FCBBC0688007D6E7A5
:10330000BDE8F09F0020024000230240002102405F
:1033100000630258F8B54FF00006040035460096E9
:1033200002D0606D10B107E00120F8BD204600F02A
:1033300007F9A66584F8506020688168C1F3407180
:1033400019B18168704A1140816020688168C1F3B9
:10335000007181B981686D4A114041F080518160EE
:103360006C496B480968B1FBF0F0401C00E0401E5E
:1033700000900028FBD120688168C1F3007141B939
:10338000616D012541F010016165A16D41F0010100
:10339000A16504F067FE616DC90600D420B1606DBF
:1033A000012540F0100093E0606D20F4807040F043
:1033B000020060652068816811F0010F1FD1564A34
:1033C000564B904201D0984207D191689E6801F017
:1033D000010106F00106314303E05149896801F01B
:1033E000010161B9904201D0984201D14D4800E0FD
:1033F0004D488268616822F47C120A43826001F0C1
:103400001DFC41F20301884202D9A06810280CD0AB
:10341000617D227FA368206B490341EA0241184382
:103420000843217F01290CD010E0607D227F216BB1
:10343000400340EA024241F01000104340F00C000B
:10344000EFE7218C394A02EB41410843616A29B117
:10345000A26A01F47871014342EA01002168344B09
:10346000CA681A400243CA60206804F0FBFD0646A1
:10347000206804F0EFFD30431DD1216844F20303BE
:10348000267DE26AC86842EA863298431043C860E3
:1034900094F8380001281ED02068016921F001014C
:1034A00001612068626B016921F070411143016183
:1034B0002046FEF791FBE068012820681CD0016BD4
:1034C00021F00F010163606D20F0020040F0010067
:1034D00060652846F8BD2068A28F164FD4E9101CFD
:1034E000154E07EB0247A36C026941EA0C013B430E
:1034F000324019431143D3E7A269016B521E21F0F8
:103500000F011143DEE70000C0FFFF5FC0FFFF7F38
:10351000400D03002800002400200240002102404A
:103520000060025800230240006302580000FEFFC2
:1035300003C0F0FF0100FFFF1EF800FC7047000011
:103540002DE9F04387B0064614216846FDF77CF864
:10355000464B002544480324DFF81481D6F800C008
:1035600008301968404AC445424F01F10101DFF8B3
:10357000089142D10129196007D1116841F0200159
:103580001160116801F020010591016841F004010A
:103590000160016801F004010591016841F0010139
:1035A00001600068694600F00100059013208DE875
:1035B0003100384601F026FA142069468DE83100C2
:1035C000484601F01FFA2D4C09212D484FF4807C0C
:1035D000021584E82300D700C4E90352C31420462F
:1035E000C4E907C56562C4E9053700F0B5FE08B156
:1035F000FEF796FEF464A6632BE0224EB44530D16C
:103600000129196007D1116841F02001116011688A
:1036100001F020010591016841F00101016001689C
:1036200001F001010591016841F0040101600068A9
:10363000694600F00400059048208DE831004846B6
:1036400001F0E0F9202069468DE83100384601F0AC
:10365000D9F900220221122001F0E6FB122001F02C
:10366000D5FB07B0BDE8F083D84402581800002409
:10367000002002400008025800000258B80200244E
:1036800028000240002102402DE9F84F044601F0D5
:10369000DBFA00903CB194F83500022806D0802176
:1036A00061650020E4E00120BDE8F88FC74DC74EFA
:1036B000C649183520683036DFF81483DFF81493D4
:1036C0008842DFF814A3DFF814B32ED0A8422CD020
:1036D000B0422AD0404528D0484526D0504524D075
:1036E000584522D0BD4A183290421ED0BC4A904262
:1036F0001BD0BB4A1832904217D0B94A30329042A0
:1037000013D0B74A483290420FD0B54A6032904247
:103710000BD0B34A7832904207D0B14A90329042EF
:1037200003D0AF4AA832904209D1026822F01E02AB
:1037300002602068426922F08002426103E0026870
:1037400022F00E02026027688F4238464DD0A84210
:103750004BD0B04249D0404547D0484545D0504570
:1037600043D0584541D09D4A183290423DD09C4AA2
:1037700090423AD09A4A1832904236D0984A303223
:10378000904232D0964A483290422ED0944A6032CB
:1037900090422AD0924A7832904226D0904A903273
:1037A000904222D08E4AA83290421ED08D4A90423A
:1037B0001BD08C4A1432904217D08A4A2832904249
:1037C00013D0884A3C3290420FD0864A5032904201
:1037D0000BD0844A6432904207D0824A78329042B9
:1037E00003D0804A8C32974204D1206E026822F4C2
:1037F0008072026075492068884228D0A84226D08D
:10380000B04224D0404522D0484520D050451ED05B
:1038100058451CD071491831884218D070498842E7
:1038200015D06F491831884211D06D493031884226
:103830000DD06B494831884209D0694960318842CE
:1038400005D067497831884201D0654990310168D7
:1038500021F0010101600EE001F0F6F90099401A33
:10386000052808D9202262650321002084F835103C
:1038700084F8340017E73868C007EDD1534A0121B6
:10388000206890422ED0A8422CD0B0422AD0404589
:1038900028D0484526D0504524D0584522D04F4BFB
:1038A000183398421ED04E4B98421BD04C4B1833C5
:1038B000984217D04A4B3033984213D0484B483384
:1038C00098420FD0464B603398420BD0444B78332C
:1038D000984207D0424B9033984203D0404BA833D4
:1038E000984208D194F85C703F23A06D07F01F0741
:1038F000BB40836007E094F85C30A06D03F01F03C9
:1039000001FA03F34360206890424DD0A8424BD0A7
:10391000B04249D0404547D0484545D0504543D0B6
:10392000584541D02D4A183290423DD02C4A904201
:103930003AD02B4A1832904236D0294A303290423F
:1039400032D0274A483290422ED0254A60329042E7
:103950002AD0234A7832904226D0214A903290428F
:1039600022D01F4AA83290421ED01E4A90421BD03D
:103970001C4A1432904217D01A4A2832904213D06F
:10398000184A3C3290420FD0164A503290420BD027
:10399000144A6432904207D0124A7832904203D0DF
:1039A000104A8C3290420BD1D4E919024260E06E89
:1039B00030B1026822F480720260D4E91C024260D5
:1039C000002084F8351084F834006DE610000240C1
:1039D000580002407000024088000240A0000240EF
:1039E00010040240085402582DE9F05F28B190F805
:1039F0003510022904D0802141650120BDE8F09FE7
:103A0000904C904B0168183C18338E4ADFF83C927A
:103A1000A1428D4CDFF838E28E4FDFF83CB2DFF880
:103A20003CA28F4D8F4E31D091422FD099422DD054
:103A3000A1422BD0494529D0714527D0B94225D084
:103A4000DFF810C20CF1180C61451FD0DFF808C276
:103A5000ACF1600C614519D0DFF8FCC1ACF1480C49
:103A6000614513D0DFF8F0C1ACF1300C61450DD0E9
:103A7000DFF8E4C1ACF1180C614507D0594505D019
:103A8000514503D0A94201D0B1422CD1DFF8B4C1D5
:103A90004FF0040880F83580ACF1180C61451DD05A
:103AA00091421BD0994219D0A14217D0494515D057
:103AB000714513D0B94211D06648183081420DD0FB
:103AC00065486038814209D063484838814205D052
:103AD00061483038814201D05F481838086820F0CA
:103AE00001000860ABE0D1F800C02CF00E08DFF850
:103AF00054C1C1F80080ACF1180C0168614527D0B1
:103B0000914225D0994223D0A14221D049451FD0CE
:103B100071451DD0B9421BD0DFF838C10CF1180C2B
:103B2000614515D0DFF830C1ACF1600C61450FD0B4
:103B3000DFF824C1ACF1480C614509D0DFF818C1A9
:103B4000ACF1300C614503D0DFF80CC1ACF1180CBE
:103B5000D1F800C02CF0010CC1F800C0DFF8E480FF
:103B60004FF0010C0168A8F11808414546D0914278
:103B700044D0994242D0A14240D049453ED07145FF
:103B80003CD0B9423AD0334A1832914236D0324A08
:103B9000603A914232D0304A483A91422ED02E4A71
:103BA000303A91422AD02C4A183A914226D05945AF
:103BB00024D0514522D0A94220D0B1421ED02A4A59
:103BC00091421BD0284A1432914217D0264A2832FB
:103BD000914213D0244A3C3291420FD0224A5032B3
:103BE00091420BD0204A6432914207D01E4A78326B
:103BF000914203D01C4A8C32914218D1016E0A685E
:103C000022F480720A6090F85C20816D02F01F023D
:103C10000CFA02F24A60D0E919124A60C16E31B161
:103C20000A6822F480720A60D0E91C124A600022FD
:103C3000016D80F835C080F8342001B1884700203C
:103C4000DCE60000280002405800024070000240FC
:103C500088000240A0000240700402408804024034
:103C6000A0040240B804024008540258406D704756
:103C70002DE9FC5F0446F74E0020DFF8D883009062
:103C80004FF41652F44808F11808A56DDFF8C493F4
:103C9000DFF8C0A3016809F1300920680AF1480A79
:103CA000B1FBF2F1B04201912F68D5F800C0DFF806
:103CB000ACB335D04146884232D0484530D050452B
:103CC0002ED058452CD0E5491831884228D0E349F8
:103CD0003031884224D0E1494831884220D0E0493F
:103CE00088421DD0DE491831884219D0DC49303174
:103CF000884215D0DA494831884211D0DFF860E3B4
:103D00000EF1600E70450BD0D54A7832904207D044
:103D1000D34B9033984203D0D149A83188427DD10A
:103D200094F85C20082102F01F0201FA02F23A42E4
:103D30004AD0B04232D0404530D048452ED05045D0
:103D40002CD058452AD0C54A1832904226D0C34AB2
:103D50003032904222D0C14A483290421ED0C04AEE
:103D600090421BD0BE4A1832904217D0BC4A303223
:103D7000904213D0BA4A483290420FD0B84A6032CB
:103D800090420BD0B64A7832904207D0B44A903273
:103D9000904203D0B24AA832904203D1026802F0A6
:103DA000040202E0026802F008026AB1026822F02E
:103DB0000402026094F85C0000F01F008140A960DA
:103DC000606D40F00100606594F85C00012100F036
:103DD0001F008140394240D02068B04234D0404575
:103DE00032D0484530D050452ED058452CD09B4A33
:103DF0001832904228D0994A3032904224D0974AC3
:103E00004832904220D0964A90421DD0944A1832AF
:103E1000904219D0924A3032904200E0AFE113D084
:103E20008F4A483290420FD08D4A603290420BD078
:103E30008B4A7832904207D0894A9032904203D020
:103E4000874AA83290427DD1406910F0800F04D09B
:103E5000A960606D40F00200606594F85C00042188
:103E600000F01F00814039423ED02068B04232D07D
:103E7000404530D048452ED050452CD058452AD00A
:103E8000764A1832904226D0744A3032904222D07C
:103E9000724A483290421ED0714A90421BD0704AFA
:103EA0001832904217D06E4A3032904213D06C4A8A
:103EB000483290420FD06A4A603290420BD0684A32
:103EC0007832904207D0664A9032904203D0644ADA
:103ED000A83290424ED1006810F0020F04D0A960C1
:103EE000606D40F00400606594F85C00102100F003
:103EF0001F008140394258D02068B04234D040453C
:103F000032D0484530D050452ED058452CD0534A59
:103F10001832904228D0514A3032904224D04F4A31
:103F20004832904220D04E4A90421DD04C4A18321E
:103F3000904219D04A4A3032904215D0484A48320D
:103F4000904200E014E00FD0454A603290420BD01E
:103F5000434A7832904207D0414A9032904203D08F
:103F60003F4AA832904207D1006800F0080006E0FE
:103F7000006872E70068B7E7006800F00400A0B1CD
:103F8000A96020680168490304D50068000308D5CA
:103F9000A16C07E00168C90503D4016821F008019C
:103FA0000160216C09B12046884794F85C0020210B
:103FB00000F01F008140394279D02068B04232D0F1
:103FC000404530D048452ED050452CD058452AD0B9
:103FD000224A1832904226D0204A3032904222D0D3
:103FE0001E4A483290421ED01D4A90421BD01C4AA5
:103FF0001832904217D01A4A3032904213D0184AE1
:10400000483290420FD0164A603290420BD0144A88
:104010007832904207D0124A9032904203D0104A30
:10402000A832904203D1006800F0100002E000685E
:1040300000F00200B0B3A96094F8350004282068AD
:1040400001680FD049037ED5006800032BD4616C52
:104050002AE0000010000240280000247000024006
:104060001004024021F0160101602068416921F02E
:1040700080014161206C08B9A06C20B12068016802
:1040800021F00801016094F85C303F21012003F029
:104090001F0300229940A96084F8350084F8342079
:1040A000216D65E003E0E16B09B120468847606D52
:1040B00000287DD0606DC00759D02068042184F8A5
:1040C0003510B0422BD0404529D0484527D0504527
:1040D00025D0584523D09D49884220D09B4918318E
:1040E00088421CD099493031884218D0984988427A
:1040F00015D097491831884211D0954930318842FE
:104100000DD093494831884209D0914960318842A5
:1041100005D08F497831884201D08D4990310168AE
:1041200021F00101016020680099019A491C009169
:10413000914202D80168C907F6D10068C00710D0C3
:1041400003200FE0FFE70168C905ACD40368012133
:10415000002223F01003036084F8351084F8342023
:10416000A1E7012084F83500002084F83400E16CD8
:1041700000291DD002B02046BDE8F05F0847754910
:1041800088421DD073491431884219D071492831B1
:10419000884215D06F493C31884211D06D49503169
:1041A00088420DD06B496431884209D0694900E0EA
:1041B00084E07831884203D066498C3188427DD1D1
:1041C00094F85C800427016808F01F0807FA08F7D4
:1041D00017EA0C0F009746D04F0744D500980F04FC
:1041E000686003D5C8033CD4A16CC1E7880638D405
:1041F0002068B0422DD055496039884229D04845C1
:1042000027D0504525D0584523D05049884220D04A
:104210004E49183188421CD04C493031884218D060
:104220004B49884215D04A491831884211D0484933
:10423000303188420DD046494831884209D0704516
:1042400007D0904205D0984203D04149A831884216
:1042500003D1016821F0080102E0016821F00401A6
:104260000160216C84E7022707FA08F717EA0C0FB0
:1042700000974ED08F074CD500980F04686003D587
:10428000C80344D4616C73E7880640D42068B04208
:104290002FD02E49603988422BD0484529D050452F
:1042A00027D0584525D02949884222D0274918319E
:1042B00088421ED025493031884200E044E018D0C1
:1042C0002349884215D022491831884211D020490B
:1042D000303188420DD01E494831884209D070459E
:1042E00007D0904205D0984203D01949A83188429E
:1042F00003D1016821F0140102E0016821F00A01F4
:104300000160012184F83510002084F83400E16B4D
:104310002EE7082202FA08F212EA0C0F14D009075D
:1043200012D5016821F00E01016094F85C100120A3
:10433000002201F01F0100FA01F16960606584F854
:10434000350084F8342012E7BDE8FC9F8800024065
:1043500010040240085402582DE9F05F044600F0B2
:1043600073FC002C07467DD0E34E022120684FF0FD
:104370000308DFF888934FF00005DFF884A3B0420C
:10438000DFF880B334D0DC4A1832904230D0484550
:104390002ED050452CD058452AD0DA4A18329042B7
:1043A00026D0D84A3032904222D0D64A4832904263
:1043B0001ED0D54A90421BD0D34A1832904217D013
:1043C000D14A3032904213D0CF4A483290420FD077
:1043D000CD4A603290420BD0CB4A7832904207D01F
:1043E000C94A9032904203D0C74AA83290427DD148
:1043F00084F83510B04284F834502ED0BE491831BC
:1044000088422AD0484528D0504526D0584524D047
:10441000BC491831884220D0BA49303188421CD07A
:10442000B8494831884218D0B749884215D0B649B2
:104430001831884211D0B449303188420DD0B24988
:104440004831884209D0B0496031884205D0AE4930
:104450007831884201D0AC499031016821F00101E6
:10446000016008E027E100BF00F0EEFBC01B05285B
:1044700001D920211CE120680068C007F4D104F1B3
:1044800008002168D4E9053C8E4685C809681043B8
:10449000D4E907281F43636A38439C4F40EA0C0065
:1044A0001043394040EA0800042B40EA010003D1E0
:1044B000D4E90B1211430843954909686FF30F01C2
:1044C000B1F1005F0FD36168A1F12902052A08D973
:1044D000163A032A05D9083A012A02D94F39032985
:1044E00001D840F48010CEF8000000E023E02068FE
:1044F000676A4069042F20F0070047EA00070DD1E2
:10450000D4E90A01074349B12046FDF76FFD28B100
:1045100040206065012184F83510CCE020684761B7
:104520002046FDF781FC94F85C203F2102F01F0239
:104530009140816054E0774A90421BD0754B143310
:10454000984217D0734B2833984213D0714B3C33A9
:1045500098420FD06F4B503398420BD06D4B643361
:10456000984207D06B4B7833984203D0694B8C3319
:1045700098427DD184F8351084F83450664B016838
:10458000A26801EA030E402A73D0802A72D000226A
:10459000D4E90378D4E9053142EAD70242EAD808DF
:1045A0005C4AD4E9077C48EAD30848EAD10141EAE9
:1045B000D701524241EA1C11142341EA0E01016065
:1045C00020681044B0FBF3F08000E0652046FDF762
:1045D0002BFC94F85C20012102F01F029140416005
:1045E0002068B04257D044491831884253D04845DA
:1045F00051D050454FD058454DD04249183188428E
:1046000049D040493031884245D03E4948318842FE
:1046100041D03D4988423ED03B49183188423AD08A
:1046200039493031884236D037494831884232D012
:104630003549603188422ED03349783188422AD0BA
:1046400031499031884226D02F49A831884222D062
:10465000304988421FD02F49143188421BD02D4940
:104660002831884217D02B493C31884213D002E0D0
:104670001DE017E018E02749503188420BD025494A
:104680006431884207D023497831884203D02149D8
:104690008C31884229D12046FDF720FCA068802873
:1046A0000CD00CE0102273E74FF4804270E74021F9
:1046B000616584F835800120BDE8F09F6560216E5A
:1046C00020790860D4E9190141606068401E07281C
:1046D00008D82046FDF750FCE06E0560D4E91C01C7
:1046E000416002E0E566256765670120656584F83D
:1046F00035000020E0E700001000024040000240CA
:104700005800024070000240100402403F8010FE3A
:104710000010005C085402580F00FEFF2DE9F84F0E
:1047200004008C464FF00000009014D094F8340040
:10473000012812D094F835500120002184F834006B
:10474000012D0CD0C00260650120009084F8341067
:104750000098BDE8F88F0120FBE70220F9E78C4DB7
:104760000226206884F83560A8428A4D61658A4E29
:104770008A4FDFF82C82DFF82C92DFF82CA2DFF8CA
:104780002CB226D0A84224D0B04222D0B84220D0A9
:1047900040451ED048451CD050451AD0584518D029
:1047A0008349884215D082491831884211D0804906
:1047B000303188420DD07E494831884209D07C4949
:1047C0006031884205D07A497831884201D07849F1
:1047D0009031016821F00101016061462046FDF73A
:1047E0002FFC6B49206888422CD0A8422AD0B042C6
:1047F00028D0B84226D0404524D0484522D0504544
:1048000020D058451ED06A4A90421BD0684A1832C0
:10481000904217D0664A3032904213D0644A4832F0
:1048200090420FD0624A603290420BD0604A783298
:10483000904207D05E4A9032904203D05C4AA83240
:1048400090420CD1026822F01E0242F01602026071
:10485000206C88B12068026842F008020BE0026810
:1048600022F00E0242F00A020260206C20B12068A1
:10487000026842F004020260206888424BD0A842DD
:1048800049D0B04247D0B84245D0404543D04845D2
:1048900041D050453FD058453DD0454A90423AD04E
:1048A000434A1832904236D0414A3032904232D098
:1048B0003F4A483290422ED03D4A603290422AD040
:1048C0003B4A7832904226D0394A9032904222D0E8
:1048D000374AA83290421ED0364A90421BD0354A01
:1048E0001432904217D0334A2832904213D0314AC2
:1048F0003C3290420FD02F4A503290420BD02D4A7A
:104900006432904207D02B4A7832904203D0294A31
:104910008C3290420DD1206E0268D20303D502681A
:1049200042F480720260E06E18B1026842F4807254
:1049300002602068884226D0A84224D0B04222D00B
:10494000B84220D040451ED048451CD050451AD012
:10495000584518D01649884215D015491831884253
:1049600011D01349303188420DD011494831884265
:1049700009D00F496031884205D00D49783188420D
:1049800001D00B499031016841F001010160DFE67F
:10499000100002402800024040000240580002403F
:1049A0007000024088000240A0000240B8000240AF
:1049B000100402400854025870B5044600F044F94F
:1049C0000546601C02D004480078044400F03CF91D
:1049D000401BA042FAD370BD1C000024402802D125
:1049E0000148FDF799BC7047A00100244FF0B04189
:1049F00010B5D1F88820024203D0C1F88800FFF733
:104A0000EDFF10BD2DE9F84F03247D4D00234FF03D
:104A100001094FF0B04B4FF00F0AE9E009FA03F734
:104A20003A4076D00E7906F00306012E01D0022E10
:104A300018D1D0F808C04FEA430ECE6804FA0EF839
:104A40002CEA080C06FA0EF646EA0C068660D0F848
:104A500004C00E792CEA070CC6F300169E4046EA05
:104A60000C0646600E79F643B6070BD0C6684FEACF
:104A700043088F6804FA08FC26EA0C0607FA08F7D0
:104A80003743C7600E7906F00306022E12D1DE0806
:104A90000F694FEA437C00EB8606B646366A4FEA5A
:104AA000DC6C0AFA0CF807FA0CF726EA080637431A
:104AB000CEF820700F7906684FEA430807F0030725
:104AC00004FA08FC07FA08F726EA0C0637430760E1
:104AD0004E6816F4403F1CD04A4E376847F0020734
:104AE000376036689F0706F00206009623F003063B
:104AF00006F1B046B6463F0FD6F80864DFF80881E5
:104B00000AFA07FC404526EA0C0603D14FF0000CD8
:104B100041E06CE0DFF8F4C0604502D14FF0010CD9
:104B200039E0DFF8ECC0604502D14FF0020C32E012
:104B3000DFF8E0C0604502D14FF0030C2BE0DFF856
:104B4000D8C0604502D14FF0040C24E0DFF8CCC09F
:104B5000604502D14FF0050C1DE0DFF8C4C0604590
:104B600002D14FF0060C16E0DFF8B8C0604502D164
:104B70004FF0070C0FE0DFF8B0C0604502D14FF0F6
:104B8000080C08E0DFF8A4C0604502D14FF0090C22
:104B900001E04FF00A0C0CFA07FC4CEA060CCEF8C8
:104BA00008C44F68DBF80060FF0226EA020600D561
:104BB00016435F46CBF80060D1F804C0DBF8046010
:104BC0005FEA8C2C26EA020600D516437E606E68EA
:104BD0004F6826EA0206BF0300D516436E602E68B2
:104BE0004F6826EA0206FF0300D516432E605B1CC1
:104BF0000A6832FA03F67FF411AFBDE8F88F0000BF
:104C000080000058F4440258000002580004025882
:104C100000080258000C02580010025800140258F4
:104C200000180258001C02580020025800240258A4
:104C30000AB1816170470904FBE700000148006880
:104C4000000C70470010005C01488068704700004D
:104C50001C0000240248816802781144816070477A
:104C60001C000024032010B500F0FEF801F00EFB3C
:104C70000F4A104914681368C4F3032203F00F03AA
:104C80008A5CC95C02F01F0201F01F01D0400A4A91
:104C900020FA01F11160094908600F2000F010F8B6
:104CA00008B1012010BD00F09FF8002010BD0000E9
:104CB00018440258F8BD00082C00002428000024E5
:104CC00010B5102804468AB02CD2002201463620A6
:104CD00000F0AAF8362000F099F817480460174849
:104CE000016841F010010160006809A900F010009E
:104CF0000890684601F056FA0598B0B101F0A2FAA2
:104D000040000F4900220F4CB0FBF1F10E4840F279
:104D1000E7330460C0E90332491EC0E9011201F023
:104D20001DFF28B101200AB010BD01F08BFAE8E7A1
:104D3000054801F071FFF6E720000024E84402581E
:104D400040420F0000100040B0060024154BF0B5A3
:104D5000083B427813491A600B680A1F23F00103CD
:104D60000B6043681360057BC67A827A437B2D070C
:104D7000847B45EA0665C77B90F809C0067A90F8FF
:104D800000E045EAC24040EA834040EA444040EA4D
:104D9000074040EA0C2040EA460040EA0E00086066
:104DA000F0BD0000A0ED00E0BFF35F8F04480021DC
:104DB0000368034A23F48033036070321160704744
:104DC00024ED00E0074A40F001000649703210600F
:104DD000086840F480300860BFF34F8FBFF36F8FD7
:104DE0007047000024ED00E0074882B0016841F000
:104DF00002010160006800220F2100F00200009013
:104E0000901E02B000F010B8F4440258002809DBEC
:104E1000410900F01F028900012001F1E0219040CA
:104E2000C1F80001704700000E4BF0B41B680D463E
:104E3000C3F30223C3F10706042E00D90426191D6B
:104E4000072901D2002300E0DB1E012404FA06F149
:104E50009C40491E2940641E994014402143F0BCE7
:104E600004F06BBF0CED00E0064900F0070210B53E
:104E70004FF6FF040868044B204040EA0220184324
:104E8000086010BD0CED00E00000FA05134970B594
:104E90000A68D243520705D5096801F0070181422B
:104EA00013D118E00A6822F0070202430A60FFF7F4
:104EB000CBFE0A4D4FF47A760446083D07E000BF6A
:104EC000FFF7C2FE001BB04201D9012070BD286867
:104ED000C0438004F4D4002070BD00000C48025888
:104EE00010B501F08DF905490968054AC1F30211B1
:104EF000515C01F01F01C84010BD00002044025861
:104F0000F8BD00084A4930B5494C0B1D0A680C34FD
:104F100009681D68246802F0030305F00102C1F36B
:104F20000511C4F3CC04002914FB02F200EE102A90
:104F3000F8EE400A76D0414A9FED3E1ADFED3E1A68
:104F4000B7EE000A23B1012B5AD0022B18D15CE036
:104F5000374C283C23689B0612D5394B246801EE58
:104F6000901A1168C4F3C104F8EE612AE34001EE1F
:104F7000903AC1F30801F8EE611A81EEA22A07E027
:104F800002EE101A1168F8EE422A81EEA22A45E0DC
:104F900001EE901A1168F8EE611A40EE811A71EE76
:104FA000800A62EE200AC1F3462101EE101AB8EE23
:104FB000411A31EE001AC0EE811ABCEEE11A80ED02
:104FC000001A1168C1F3064101EE101AB8EE411A39
:104FD00031EE001AC0EE811ABCEEE11A80ED011A22
:104FE0001168C1F3066101EE101AB8EE411A31EEF4
:104FF000000A80EE801ABCEEC10A80ED020A30BDC4
:1050000001EE901ADFED0F2A03E001EE901ADFEDBA
:105010000E2A1168F8EE611A82EEA12AC1F3080186
:10502000B6E7FFE7002101604160816030BD00000C
:1050300028440258000000390024744C30440258BF
:105040000090D0030024744A20BCBE4B494930B5BF
:10505000484C0B1D0A68143409681D68246802F066
:105060000303C5F30012C1F30531C4F3CC040029D6
:1050700014FB02F200EE102AF8EE400A75D03F4A07
:105080009FED3D1AB7EE000A6BB1DFED3D1A012B23
:1050900001D0022B64D002EE101A1168F8EE422AF9
:1050A00081EEA22A21E0334C283C23689B0612D5CE
:1050B000344B246801EE901A1168C4F3C104F8EE71
:1050C000612AE34001EE903AC1F30801F8EE611A5B
:1050D00081EEA22A0BE001EE901ADFED2B2A00BF31
:1050E000F8EE611A116882EEA12AC1F3080101EEFF
:1050F000901A1168F8EE611A40EE811A71EE800A7A
:1051000062EE200AC1F3462101EE101AB8EE411AF0
:1051100031EE001AC0EE811ABCEEE11A80ED001AE1
:105120001168C1F3064101EE101AB8EE411A31EED2
:10513000001AC0EE811ABCEEE11A80ED011A116866
:10514000C1F3066101EE101AB8EE411A31EE000A01
:1051500080EE801ABCEEC10A80ED020A30BD04E088
:1051600001EE901ADFED092ABAE7002101604160E3
:105170008160F3E72844025800000039384402589F
:105180000024744A0090D0030024744C20BCBE4B11
:10519000494930B5484C0B1D0A681C3409681D6824
:1051A000246802F00303C5F30022C1F30551C4F3E0
:1051B000CC04002914FB02F200EE102AF8EE400A9B
:1051C00075D03F4A9FED3D1AB7EE000A6BB1DFED97
:1051D0003D1A012B01D0022B64D002EE101A116887
:1051E000F8EE422A81EEA22A21E0334C283C2368C3
:1051F0009B0612D5344B246801EE901A1168C4F353
:10520000C104F8EE612AE34001EE903AC1F30801CF
:10521000F8EE611A81EEA22A0BE001EE901ADFEDA2
:105220002B2A00BFF8EE611A116882EEA12AC1F3A1
:10523000080101EE901A1168F8EE611A40EE811A29
:1052400071EE800A62EE200AC1F3462101EE101AC7
:10525000B8EE411A31EE001AC0EE811ABCEEE11A26
:1052600080ED001A1168C1F3064101EE101AB8EE84
:10527000411A31EE001AC0EE811ABCEEE11A80ED3F
:10528000011A1168C1F3066101EE101AB8EE411A55
:1052900031EE000A80EE801ABCEEC10A80ED020AEF
:1052A00030BD04E001EE901ADFED092ABAE70021D3
:1052B000016041608160F3E7284402580000003932
:1052C000404402580024744A0090D0030024744CD7
:1052D00020BCBE4B2DE9F04FAC4A0546DFF8A8A232
:1052E00080F48070DFF8AC9289B01311AA4C0843A7
:1052F000A748AAF104064FF0805C4FF000582CD06C
:1053000085F400770F4357D0DFF87CB285F48067CF
:105310000F430BF1080B61D085F400670F4374D085
:1053200085F480570F436ED085F400570F434FF438
:1053300080394FF4003E67D085F400270F4371D0C9
:1053400085F480370F436ED085F480460E436BD0D2
:1053500085F400420A4368D02AE0DAF8001001F030
:105360000701052924D2DFE801F075BC7D25B100D5
:1053700006A8FFF7C7FD079809B0BDE8F08F68469B
:10538000FFF764FE0098F7E703A8FFF701FF039813
:10539000F2E72068C0F3C10022FA00F0ECE72268CF
:1053A000D20571D561456FD11846E5E74145E3D097
:1053B0000020E1E74846DFE7DAF8001001F4E07189
:1053C00080294FD004DC002944D04029F0D188E066
:1053D000C029EFD0B1F5807FEAD177E0DBF800108B
:1053E00001F46001B1F5800F3CD004DC91B3B1F55C
:1053F000001FDDD175E0B1F5C00FDBD0B1F5000FB6
:10540000D6D163E001E018E030E0DBF8001001F0F5
:10541000E061B1F1007F25D008DCD9B1B1F1807F26
:10542000C6D15EE049E06CE079E09CE0B1F1407FFC
:10543000C0D0B1F1806FBBD148E0DAF8001001F4C0
:10544000E041B1F5005F0DD005DC19B1B1F5805F29
:10545000AED146E094E0B1F5405FABD0B1F5804FFE
:10546000A6D133E020688000A2D58DE7DAF80010DD
:1054700001F4E021B1F5403F6CD006DC61B1494553
:105480007AD0714594D157E037E0B1F5802F65D0DF
:10549000B1F5A02F8CD10CE000F0D4FE6CE768468B
:1054A000FFF7D4FD019867E703A8FFF771FE0498A2
:1054B00062E721688903F1D47AE7DBF8001011F480
:1054C00040310ED0494510D07145F5D1316825687D
:1054D00001F040516D077FF562AF00297FF45FAFA7
:1054E00057E720680001E7D549E720688000E3D549
:1054F00003A8FFF74DFE05983EE722689203DBD52F
:1055000054E7306810F480303AD04845D4D1206850
:105510000001D1D56846FFF799FD02982CE7DBF82A
:10552000001001F0E041B1F1405F13D008DC71B12F
:10553000614521D04145BFD120688000B4D437E710
:10554000B1F1804F0AD0B1F1A04FB2D030E7FFF7F0
:10555000C7FC11E720684007AED51AE72068C005F0
:10556000AAD521E708E0DAF8001011F04051A0D0E8
:10557000614505D041459FD1206800018FD417E7D0
:105580002068800198D5F3E6504402580090D0037B
:1055900040787D010080BB00004402582DE9FE4F99
:1055A0000546DFF8E48350F8081B0024F64FC94392
:1055B000019005F12800264608F124080090080112
:1055C0001DD4A86E50B1B0F5801F0CD0B0F5001FEF
:1055D0000ED0B0F5401F1ED001240FE0386840F413
:1055E0000030386017E00198022103F0E5F903E08C
:1055F0000098022103F070FA04000CD02646288897
:10560000C043C00523D4A86D05281ED2DFE800F0F2
:105610000C11161B1B00AA6ED8F8001021F44011C3
:105620001143C8F80010EAE7386840F400303860E9
:1056300009E00198002103F0BFF903E00098002180
:1056400003F04AFA044674B100E001242646288893
:10565000C043800528D4E86D80281ED00CDC90B1B2
:1056600040280ED114E0AA6DD8F8001021F00701EF
:105670001143C8F80010EAE7C02813D0B0F5807FC6
:1056800010D001240FE0386840F40030386009E0A1
:105690000198002103F090F903E00098002103F045
:1056A0001BFA04469CB126462888DFF8DC92C043EA
:1056B00009F12C0940052CD4D5F8A800B0F5800FCD
:1056C00020D00DDCA0B1B0F5001F0FD115E0EA6DC0
:1056D000D8F8001021F4E0711143C8F80010E3E796
:1056E000B0F5C00F13D0B0F5000F10D001240FE0BB
:1056F000386840F40030386009E00198002103F078
:105700005BF903E00098002103F0E6F904467CB160
:1057100026462888C04300052DD4D5F8AC00B0F14A
:10572000007F21D00EDCA8B1B0F1807F10D116E04F
:10573000D5F8A820D9F8001021F460011143C9F868
:105740000010E6E7B0F1407F13D0B0F1806F10D0C9
:1057500001240FE0386840F40030386009E0019817
:10576000002103F029F903E00098002103F0B4F9C7
:10577000044674B126462868C04380011FD4E86CF3
:10578000D8B110280FD0202812D0302815D00124ED
:1057900014E0D5F8AC20D9F8001021F0E0611143F5
:1057A000C9F80010E7E7386840F40030386004E0DA
:1057B0000198022103F000F9044674B126462888B6
:1057C000C043C0042BD4286EB0F5005F20D00DDCA0
:1057D000A0B1B0F5805F0FD115E06B48EA6C2030C6
:1057E000016821F0300111430160E8E7B0F5405F46
:1057F00013D0B0F5804F10D001240FE0386840F48A
:105800000030386009E00198002103F0D5F803E08A
:105810000098002103F060F904468CB126462888E0
:10582000C043800429D4686EB0F5403F23D010DC1B
:1058300008B3B0F5803F14D0B0F5003F0FD115E0AC
:105840002A6ED8F8001021F4E0411143C8F8001086
:10585000E5E7B0F5802F0ED0B0F5A02F0BD00124D6
:105860000AE00198012103F0A7F803E00098012164
:1058700003F032F9044694B126462888C043400418
:105880002AD4D5F8B000B0F1405F23D010DC08B3C3
:10589000B0F1805F14D0B0F1005F0FD115E06A6EF7
:1058A000D8F8001021F4E0211143C8F80010E4E713
:1058B000B0F1804F0ED0B0F1A04F0BD001240AE020
:1058C0000198012103F078F803E00098012103F02A
:1058D00003F9044674B126462888C04300041FD447
:1058E000286FD8B1B0F1805F0ED0B0F1005F10D05A
:1058F000012414E0D5F8B020D9F8001021F0E041DF
:105900001143C9F80010E7E7386840F40030386008
:1059100004E00198012103F04FF8044674B12646D3
:105920002868C043C0011ED4A86CD0B101280ED095
:10593000022811D0032814D0012413E02A6FD8F8CC
:10594000001021F040511143C8F80010E8E7386812
:1059500040F40030386004E00198022103F02CF894
:105960000446ACB126462868DFF81CB0C043ABF152
:105970001C0B400252D40548016841F4807101605B
:10598000FFF762F9824611E02C44025800480258A1
:10599000FA48AA6C016821F0030111430160E2E7B3
:1059A000FFF752F9A0EB0A00642835D8F4480068E4
:1059B000C005F5D58CBBDFF8C4A3B5F8B4100AF167
:1059C000240ADAF8000001F4407100F440708842C3
:1059D00011D0DAF80010DAF8002021F4407142F416
:1059E0008032CAF80020DAF8002022F48032CAF8A7
:1059F0000020CAF80010D5F8B400B0F5807F1AD1A5
:105A0000FFF722F9029012E0FFF71EF90299411AFE
:105A100041F2883081420AD9032426462878DFF8EB
:105A20005CA3C0430AF1080AC00721D03CE0DAF8C1
:105A300000008007E8D5D5F8B410C1F30120032891
:105A400058460DD0016821F47C510160B5F8B420AE
:105A5000DAF80010C2F30B021143CAF80010DDE7B8
:105A6000C84A036802EA111223F47C511143ECE79F
:105A7000E86F182816D005DCA0B1082808D0102837
:105A800004D10AE020280DD028280BD001240AE0F8
:105A90000198012102F090FF03E00098012103F03A
:105AA0001BF8044664B126462878C04380071ED4FC
:105AB000A86F062819D2DFE800F0160C111616168A
:105AC000EA6FDAF8001021F038011143CAF800102B
:105AD000EAE70198012102F06FFF03E0009801213D
