:020000040800F2
:100000006810002411040008CB720008A56B0008DA
:10001000C972000869180008D987000800000000AC
:100020000000000000000000000000005103000874
:10003000951B000800000000AD030008517A00087D
:100040002F0400082F0400082F0400082F040008C4
:100050002F0400082F0400082F0400082F040008B4
:100060002F0400082F040008971B00082F04000825
:10007000711900082F0400082F0400082F0400083D
:100080002F0400082F0400084D1800082F04000852
:100090002F0400082F0400082F0400089D1B0008EF
:1000A0002F0400082F0400082F0400082F04000864
:1000B0002F0400080D7C00082F0400082F040008FE
:1000C0002F0400082F0400082F0400082F04000844
:1000D0002F0400082F0400082F0400082F04000834
:1000E0002F0400082F040008000000002F0400085F
:1000F0002F0400082F0400082F0400082F04000814
:100100002F0400082F0400082F0400082F04000803
:100110002F0400082F040008197C0008257C000823
:100120002F0400082F0400082F0400082F040008E3
:100130002F0400082F0400082F0400082F040008D3
:1001400000000000000000000000000000000000AF
:100150002F0400082F0400082F0400082F040008B3
:100160002F0400082F0400082F0400082F040008A3
:100170002F0400082F0400082F0400082F04000893
:100180002F0400082F0400082F0400082F04000883
:100190002F0400082F0400082F0400082F04000873
:1001A0002F0400082F0400082F0400082F04000863
:1001B0002F0400082F0400082F0400082F04000853
:1001C0002F0400082F0400082F0400082F04000843
:1001D0002F0400082F0400082F0400082F04000833
:1001E0002F0400082F0400082F0400082F04000823
:1001F0002F0400082F0400082F0400082F04000813
:100200002F0400082F0400082F0400082F04000802
:100210002F0400082F0400082F0400082F040008F2
:100220002F0400082F0400082F040008000000001D
:100230002F0400082F040008000000002F0400080D
:100240002F0400082F0400082F0400082F040008C2
:100250002F0400082F0400082F0400082F040008B2
:100260002F0400082F0400082F0400082F040008A2
:100270002F0400082F0400082F04000800000000CD
:100280002F0400082F0400082F04000800000000BD
:10029000000000002F04000800F002F800F049F808
:1002A0000AA090E8000C82448344AAF10107DA45D1
:1002B00001D100F03EF8AFF2090EBAE80F0013F0DA
:1002C000010F18BFFB1A43F001031847E894000020
:1002D00008950000103A24BF78C878C1FAD85207B0
:1002E00024BF30C830C144BF04680C6070470000B0
:1002F0000023002400250026103A28BF78C1FBD82F
:10030000520728BF30C148BF0B607047662908F00C
:10031000BB85002070471FB508F036FD00F062FC79
:1003200004000020002108F0D3FCE0601FBD10B5E0
:1003300010BD00F05BFD1146FFF7EDFF08F02AFB52
:1003400000F079FD03B4FFF7F2FF03BC00F0B0FD4D
:100350002C4B19680868B0E8F04F80F30988BFF3A8
:100360006F8F4FF0000080F311887047000000008D
:1003700008480068006880F308884FF0000080F3A8
:10038000148862B661B6BFF34F8FBFF36F8F00DF83
:1003900000BF00BF08ED00E0DFF80C00016841F489
:1003A00070010160704700BF88ED00E0EFF3098045
:1003B000BFF36F8F134B1A681EF0100F08BF20EDAC
:1003C000108A20E9F04F106009B44FF0500080F31C
:1003D0001188BFF34F8FBFF36F8F08F0BFFB4FF053
:1003E000000080F3118809BC19680868B0E8F04F74
:1003F0001EF0100F08BFB0EC108A80F30988BFF31D
:100400006F8F70472C000024EFF3058070470000C9
:100410000A4880470A4880470A480047FEE7FEE747
:10042000FEE7FEE7FEE7FEE7FEE7FEE7FEE7FEE7A4
:1004300005480649064A074B704700005D1C000846
:10044000157B000899020008680A0024681000243F
:10045000680C0024680C002453EA020C00F0698048
:100460002DE9F04B4FF00006002B1FBFB3FA83F5C8
:1004700003FA05F424FA05F65E4012BF1643B2FAF9
:1004800082F502FA05F4C5F120051EBF22FA05FC2B
:1004900044EA0C04203556EA044C4FEA144418BFD1
:1004A000641C4FF000084FF00009904271EB030C00
:1004B00039D3002919BFB1FA81F701FA07F6B0FA6A
:1004C00080F700FA07F6C7F120071EBF20FA07FCE5
:1004D00046EA0C062037B6FBF4FCA7EB0507103FF5
:1004E00007F01F0BCBF120060CFA0BFB2CFA06F6DB
:1004F00044BFB3460026202FA4BF5E464FF0000B3A
:100500005BEA060C08BF4FF0010B19EB0B09ABFBC4
:10051000027C48EB0608C01B06FB02CC0BFB03CC9D
:1005200071EB0C01C1E70B46024641464846BDE867
:10053000F08B13B54FF000004FF00001AFF30080D7
:10054000BDE81C40704700000FB41CB5074B06AA5D
:100550007B4469460090059800F02BFB002069461B
:1005600000F03AFB1CBC5DF814FB0000850600009F
:100570002DE9F0474FF0000A89460446C0F820A054
:100580002046E1688847002876D0252806D0D4E99F
:1005900001219047206A401C2062F1E7E168204673
:1005A00000258847C4F81CA006460027C4F818A0F8
:1005B0002A2E09D0304608F0CFF938B304EB87086B
:1005C000303EC8F8186019E059F8041B204604EBC7
:1005D00087029161E1688847012F064618D1E069DA
:1005E000002820DA25F020051DE0D8F8180000EBDF
:1005F000800006EB40003038C8F818002046E1685B
:100600008847064608F0A8F90028EED1012F0AD045
:100610002E2E08D12046E16888477F1C0646022F0F
:1006200045F02005C4DBA069002803DA404245F00C
:100630000105A061E80701D025F01005B6B1A6F1CB
:100640004100192802D8203645F400654A46314653
:10065000204625604D46FFF759FE58B1012806D0C7
:10066000ED1D25F0070000F1080989E704E005F118
:10067000040985E730468AE7206ABDE8F08710B5AF
:10068000431C02E010F8011B71B18107FAD14FF051
:10069000013202C88C1A8C4314EAC211F9D0C01A74
:1006A0000A0603D0C01E10BDC01A10BD0A0401D036
:1006B000801E10BD0902FCD0401E10BD10B5203AAE
:1006C000C0F00B80B1E81850203AA0E81850B1E80B
:1006D0001850A0E81850BFF4F5AF5FEA027C24BFC1
:1006E000B1E81850A0E8185044BF18C918C0BDE8B8
:1006F00010405FEA827C24BF51F8043B40F8043B81
:1007000008BF7047D20728BF31F8023B48BF11F835
:10071000012B28BF20F8023B48BF00F8012B70478F
:100720004FF0000200B5134694469646203922BF8A
:10073000A0E80C50A0E80C50B1F12001BFF4F7AFD5
:10074000090728BFA0E80C5048BF0CC05DF804EBB7
:10075000890028BF40F8042B08BF704748BF20F825
:10076000022B11F0804F18BF00F8012B7047704723
:100770007047704710B500F039FA006810BD10B529
:10078000044600F033FA046010BD70472DE9FF4FB6
:100790000C461E464FF0FF378BB0D2E90001DDF862
:1007A00060800A908A46C1F30A5505B93D4600218A
:1007B00008464FF00000BAF1000F00F4400005DADF
:1007C00000EB80004FF4400101EA50004FEA9059DD
:1007D000B9F1010F00DDB9460A9850EA4A000ED07F
:1007E00044F61050A5F2FF3545432F14B8F1000F21
:1007F0001ED07542291E1EDDC9F100021CE0B8F1B1
:10080000010F4FF0000001D0302103E0F24305E07A
:100810002154401CB042FBDB304600220021215411
:100820000B99C1F80880C1E900200FB0BDE8F08F36
:10083000BD1B6D1CDEE74A4600DA694206A800F0DF
:100840005FFA06AB93E8070003AB83E80700504666
:100850000A9900F0AFFB8DE80700A0F500501F38A3
:1008600000900398002D0ADD42F21F014A46084419
:10087000002303A90390684600F018FE09E0A0F5E4
:1008800000504A461F38002303A90390684600F031
:1008900022FE8DE807000004000C03D04FF0FF306B
:1008A000410800E01046B8F1000F03D0002200928A
:1008B00015461EE0751E05D400F09CF930326255D5
:1008C0006D1EF9D5B3460122084302D000227F1CD9
:1008D00004E02078302801D100227F1E002A0997E9
:1008E00084D01DE0112D07DA00F084F93032625512
:1008F0006D1C50EA0102F5D1084302D00098C8B13E
:100900000EE00021681E05E0235C625C6354225403
:10091000401E491C8142F7DBAB46A81B401E0990D4
:10092000002004F80B000B98099AC0F80880C0E971
:10093000002B7AE711264FF0000857E72DE9F04F1A
:1009400088460446D21D22F0070191B0D1E900018A
:10095000CDE90A0107F041FF02460B98C00F01D014
:100960002D2007E02068810701D52B2002E02021FF
:1009700001EAC000032A099001D0072A05DB0346DB
:100980004146204600F07CF90BE12078800601D535
:10099000E06900E00620B8F1650F814606D0B8F1A5
:1009A000660F18D0B8F1670F70D131E00020B9F1AF
:1009B000110F009001DB112301E009F101030AAAE4
:1009C00001A90CA8FFF7E2FEDDE90C70002609F191
:1009D0000105834647E001204B4600904FF0004759
:1009E0000AAA01A90CA8FFF7D1FEDDE90DB00C9908
:1009F0005D46002610B909F101000D18B9EB05009C
:100A000003D4C0F1FF3609F10105A5EB09002BE085
:100A1000B9F1010F01DA4FF001090020B9F1110F0E
:100A20000090484601DD112300E003460AAA01A90F
:100A30000CA8FFF7ABFEDDE90C704D46002683469F
:100A4000207800070AD4AB4500DA5D4601A8012DE5
:100A500004DD411911F8011C302907D04F4502DA95
:100A600017F1040F04DA012082460FE06D1EEEE755
:100A7000002F02DCED1B3E4403E0781CA84200DDA1
:100A80007D1CB81B00F1010A4FF0004720780007D9
:100A900003D4AA4501DB4FF0FF3A0021B7F1004F24
:100AA0000DF143088DF8431024D002202B23002F92
:100AB00001DA7F422D230A21021EA0F1010000DC91
:100AC0005FB197FBF1FC97FBF1F201FB1C7C174631
:100AD0000CF1300C08F801CDEEE7A8F1010003702D
:100AE0002188090501D5452100E06521A0F1010813
:100AF00000F8011C09980FA9A1EB0807FF1D00B120
:100B00000120411901EBEA70A1693844081A401E1E
:100B1000A0612078C00602D42046AFF30080099877
:100B200028B1D4E901219047206A401C2062207836
:100B3000C00622D52046AFF300801EE0002E04DB65
:100B4000B34502DD01A8805D00E03020D4E9012139
:100B50009047206A401C2062761CAAF101005FEADF
:100B6000000A0AD100F03EF8C0680168405CD4E990
:100B700001219047206A401C2062281EA5F1010532
:100B8000DCDC07E0D4E9012118F8010B9047206A6A
:100B9000401C2062381EA7F10107F3DC2046AFF3AA
:100BA0000080032011B041E601694A1C0261087807
:100BB000704700B58FB0CDE901310021059105499D
:100BC0007944CDE9031011466846FFF7D1FC0FB018
:100BD00000BD0000E5FFFFFF0A6802F8010B0A6094
:100BE0007047000000487047280A002400487047FA
:100BF000080A002430B5B0F10A024FEA900E71F1F4
:100C000000034EEA817EB0EB0E0061EB91014FEAEA
:100C1000101E4EEA017E10EB0E0041EB11114FEA5F
:100C2000102E4EEA016E10EB0E0041EB11214FEA3F
:100C3000104E4EEA014E10EB0E0041EB11414018F0
:100C400041F100014FEAD00040EA41704FEAD10182
:100C500010EB80054FEA810444EA907444EB0104F0
:100C60006D1944EB0404521BA3414FF0000348BF2D
:100C70000A3200D530BD401C41F1000130BD0000FA
:100C80002DE9F0411F46044603260168072A01F4B6
:100C9000006004DB08B116A505E016A503E008B165
:100CA00015A500E015A521F010002060A069C01E68
:100CB000A0610FB1401EA0612046AFF300804FB18C
:100CC000D4E9012138469047206A401C2062C01CAC
:100CD000206206E0206AFAE7D4E9012115F8010B49
:100CE0009047761EF8D22046AFF30080BDE8F08131
:100CF0004E414E006E616E00494E4600696E6600C0
:100D00002DE9F047814616468AB0354878440DC82B
:100D10008DE80D0032487844801C03AC0DC884E88F
:100D20000D0041F69B300844372190FBF1F290FB17
:100D3000F1F5A5F1800501FB12041B3C02D56442CC
:100D4000012000E00020DFF898A080460027FA4448
:100D5000AAF1BE0A0EE0E0070AD03246684607EB69
:100D6000470101230AEB810100F0B5FB8DE8070084
:100D700064107F1C002CEED1194F7F44AE3F19E068
:100D8000E80715D007EB04100DF1180A90E80E00E3
:100D90008AE80E00C068F04201D1981908903246E6
:100DA000012306A903A800F096FB03AB83E8070024
:100DB0006D10641C002DE3D14FF0010332466946EB
:100DC000B8F1000F03A802D000F070FB01E000F0C2
:100DD00082FBC9E90001C9F808200AB0BDE8F08724
:100DE0003882000000487047080A00247546FFF763
:100DF000F9FFAE4605006946534620F007008546D8
:100E000018B020B5FFF714FBBDE820404FF00006F6
:100E10004FF000074FF000084FF0000B21F00701E2
:100E2000AC46ACE8C009ACE8C009ACE8C009ACE825
:100E3000C0098D46704710B50446AFF300802046C8
:100E4000BDE81040FFF77EBA4FF0013C50F8042B8C
:100E500051F8043B9A4215D1A2EB0C03934313EAD9
:100E6000CC130BD150F8042B51F8043B9A4209D112
:100E7000A2EB0C03934313EACC13E7D04FF000002E
:100E8000704700BFD01A01BAB1FA81F101F0180120
:100E900022FA01F0CB40C1F12001DBB2C0B2C01A8E
:100EA0002CFA01F3D11A914311EAC311E6D170472C
:100EB00001491820ABBEFEE7260002007047000083
:100EC0009FED381A48F6B07C20EE011AC0F6000CEF
:100ED000DFED373AB5EE400AF1EE10FAB0EEC11A86
:100EE000B6EEC12A31EE421A9FED2F2A21EE021AE8
:100EF000BCEEC12A12EE102A02F180036FF35F22CA
:100F000002EE102A6FF35F230CEB8202B8EE422A46
:100F10000CEB830392ED015A93ED003A93ED014AF5
:100F200031EE421A92ED002A75EE420A73EE041A6F
:100F300073EE032A34EE436A70EEA04A51EEA34AE0
:100F4000F0EE081A34EE224A72EE022A32EE057AE8
:100F500060EEA10A44EE630A35EE225ADFED132A51
:100F600036EE064A17EE224A41EE240A25EE235AAF
:100F700006EE215A01EE045A21EE204A03EE234ADE
:100F800021EE055A02EE635A01EE042A01EE053AFB
:100F9000B1EE421AB8BFB0EE412A81ED003A80EDC1
:100FA000002A7047610B363B00000044DB0F49BC50
:100FB000DB0F493C5FEA400C08BF91F0000F4FEA9D
:100FC0008C234FEAC12243EA51514FEA1C5018BF0B
:100FD00000F5F0404FEA300018BF41F000415FEAF1
:100FE0006C5C00F02980BCF1FF3F08BF40F08040FE
:100FF0007047130C06BF12044FF0100C4FF0000C9A
:10100000130E04BF12020CF1080C130F04BF1201DF
:101010000CF1040C930F04BF92000CF1020CD30FDF
:1010200004BF52000CF1010C11464FF00002A0F178
:101030001F00A0EB0C00704711F0004F08BF704775
:1010400031F000413FF4D5AF0B0C06BF09044FF05F
:10105000100C4FF0000C0B0E04BF09020CF1080C31
:101060000B0F04BF09010CF1040C8B0F04BF8900A6
:101070000CF1020CCB0F04BF49000CF1010CCCF1B8
:101080002003A0EB0C0022FA03F302FA0CF241EA6F
:10109000030100F10100704720F07F4C80EA03005B
:1010A00023F07F47ACEB070303F57C5300F00040CF
:1010B00003F1FF032DE980494FEA154B09B44FEACC
:1010C000144325EA0B4E24EA03480FF2042606EBEC
:1010D000132749083E785FEA320203FB0667C7F52B
:1010E000000707FB06F64FEA54374FEAD64606F1EB
:1010F000020607FB066CCCF1005C4FEA1C472CEAA9
:10110000074C07FB06F40CFB06F504EB15464FEA0B
:10111000961634BF00204FF000404FEAD13706FB4F
:1011200007FC4FEA1C4C0CFB0BF7D21B03FB0CF724
:1011300061EB07010CFB0EF7B0EB074072EB1742B7
:101140000CFB08F734BFA2EB0742B2EB074261EB9E
:1011500017414FEA0C444FEA910706FB07FC4FEAA0
:101160001C4C0CFB0BF7B0EBC74072EB573203FB88
:101170000CF734BFA2EBC742B2EBC74261EB573169
:101180000CFB0EF7B0EBC70072EB57720CFB08F7C5
:1011900034BFA2EBC702B2EBC70261EB5771039FEA
:1011A0004FEA816141EA921104EBCC044FEAD13756
:1011B0004FEA826206FB07FC42EA90124FEA806027
:1011C0004FEA1C4C0CFB0BF7D21B03FB0CF761EB3B
:1011D00007010CFB0EF7B0EB074072EB17420CFB5C
:1011E00008F734BFA2EB0742B2EB074261EB1741AD
:1011F0004FEA8C554FEA910704EB9C2406FB07FC51
:101200004FEA1C4C0CFB0BF7B0EBC74072EB5732AC
:1012100003FB0CF734BFA2EBC742B2EBC74261EB52
:1012200057310CFB0EF7B0EBC70072EB57720CFB9B
:1012300008F734BFA2EBC702B2EBC70261EB5771EC
:1012400015EB4C254FEA816141EA92114FEA826227
:101250004FEAD13742EA901206FB07FC44F1000442
:101260004FEA80604FEA1C4C0CFB0BF7D21B03FBD0
:101270000CF761EB07010CFB0EF7B0EB074072EBCC
:1012800017420CFB08F734BFA2EB0742B2EB074250
:1012900061EB174115EB1C154FEA813141EA924190
:1012A0004FEA823242EA90424FEA80304FEA0C76AF
:1012B00044F1000448EA03434EEA0B484FF0000EA5
:1012C000B2EB080C71EB030724BF624639464EEBC4
:1012D0000E0E4FF0000B0018524149414BEB0B0B27
:1012E000B2EB080C71EB03077BF1000B24BF6246E5
:1012F00039464EEB0E0E4FF0000B0018524149419B
:101300004BEB0B0BB2EB080C71EB03077BF1000B03
:1013100024BF624639464EEB0E0E51EA020718BF53
:1013200046F0010616EB0E7655F1000254F100016D
:1013300003D5BDE88901BDE80088BDE88901BDE8A5
:101340000048B619524141EB0101A3F10103704776
:1013500080807F7E7D7C7B7A7978777676757473F2
:10136000727171706F6E6E6D6C6C6B6A6A696868B1
:10137000676666656464636362616160605F5F5E47
:101380005E5D5D5C5C5B5B5A5A59595858575756BD
:101390005655555554545353525252515150505022
:1013A0004F4F4F4E4E4D4D4D4C4C4C4B4B4B4A4A74
:1013B0004A494949484848474747474646464545B8
:1013C00045444444444343434342424242414141F1
:1013D000002B9C4630D477002BD01CB54FEA370742
:1013E00003B44FF010004FF01001BAF1000F06D017
:1013F000BCF1000FDCBF40F0080040F008014FF0E6
:1014000000000FBCBDE810400BF1010BBBF1010F58
:1014100008BF5FEA170722BF12F1010211F10101B3
:101420004FF0004143F1000300F0004043EA0000A8
:101430007047F9D35708D0E746EA064613F1400F44
:101440004FEA16461FDD13F1200FDFBF16430A4691
:10145000002120335B42BED0C3F1200746EA064696
:1014600002FA07F74FEA164646EA0706C3F12007D5
:1014700022FA03F201FA07F721FA03F14FF0000311
:1014800042EA0702A7E746EA020646EA06464FEAAC
:10149000164646EA0106BCBF46EA0646360C4FF041
:1014A00000034FF000024FF0000194E72DE9804C5B
:1014B0009A46934670B491E8380007C831EA400C68
:1014C00048BF34EA430C03D5FFF7E6FDFFF780FF82
:1014D000F0BCBDE8008C2DE9804C9A46934670B470
:1014E00091E8380007C810F0804F08BF13F0804F14
:1014F00003D100F005F8FFF76BFFF0BCBDE8008CEE
:1015000020F07F4780EA030023F07F4C07EB0C03B9
:10151000A3F57C5300F00040A3F1FE0392F0000F0E
:1015200000F0B38095F0000F00F077802DE90149BD
:101530004FEA11404FEA144621EA004800FB06FC3E
:1015400024EA064708FB06F607FB08F800FB07F746
:1015500018EB06484CEB164C4FEA124B18EB0748B9
:101560004FEA15464CEB174022EA0B4E0BFB06FCEC
:1015700025EA06470EFB06F607FB0EFE0BFB07F7F8
:101580001EEB064E4CEB164C4FF000061EEB074EC2
:101590004CEB174B18EB0B0840F1000018EB0E0B4F
:1015A00058EB000840F100008F1A4FF000013CBFDB
:1015B000C943661B14BFB5EB040C00213CBFC943F3
:1015C000F61B4FEA17444EEA8E0E27EA04454FEA0F
:1015D0001C4704FB07622CEA074C05FB07F70CFBD2
:1015E00005F604FB0CFC16EB074642EB174216EB24
:1015F0000C4642EB1C421BEB060658EB0202414133
:1016000046EA9E0601D5BDE80189B619524141EB73
:101610000101A3F10103BDE801894FEA14454FEA36
:10162000114724EA054621EA074C05FB07F406FBAF
:1016300007F70CFB06F105FB0CFC11EB074144EB33
:1016400017444FEA124711EB0C4144EB1C4422EAC9
:10165000074C05FB07F206FB07F70CFB06F605FB3C
:101660000CFC16EB074642EB174216EB0C4642EB1E
:101670001C456A1854F1000148BF7047B619524121
:1016800041EB0101A3F10103704795F0000F37D042
:101690004FEA11424FEA144721EA024624EA074C76
:1016A00002FB07F106FB07F70CFB06F402FB0CFC40
:1016B00014EB074441EB17414FEA154714EB0C4478
:1016C00041EB1C4125EA074C02FB07F506FB07F737
:1016D0000CFB06F602FB0CFC16EB074645EB174528
:1016E00016EB0C4645EB1C42121951F1000148BFA4
:1016F0007047B619524141EB0101A3F10103704754
:101700004FEA14454FEA114724EA054621EA074CFF
:1017100005FB07F106FB07F70CFB06F24FF000068E
:1017200005FB0CFC12EB074241EB174112EB0C429C
:1017300051EB1C4148BF7047921841EB0101A3F1E6
:101740000103704770B53A4905460068884202D0E7
:10175000384A904202D1D1F8080302E03648D0F866
:10176000080310F4403F11D003F09AFD0446686866
:10177000B0F5803F06D0B0F5003F03D0B0F5403F54
:1017800027D101E0000C18E0A40822E000214FF46A
:10179000002002F0EFFD044668688103890B18D130
:1017A00081140C2915D2DFE801F01406060606069E
:1017B000060B0D0F1113800C4000B4FBF0F408E091
:1017C000240906E0640904E0A40902E0E40900E059
:1017D000240A02F083FA41F20301884208D817482C
:1017E00084422868816813D821F48071816070BDBB
:1017F00013496008884204D82868816821F4407140
:10180000F4E71049884206D82868816821F44071BD
:1018100041F48071EAE70C4988422868816804D85D
:1018200021F4407141F40071E0E741F44071DDE7DB
:10183000002002400021024000600258002D3101CA
:10184000105E5F0020BCBE0040787D01044810B5EA
:1018500001F0B4F8BDE81040024801F0AFB8000054
:10186000A80100240C020024FEE7000000EE100A8C
:10187000DFED0C1A01EE101AB8EE400ADFED0A0A8D
:10188000B8EE411A9FED092AC0EE212A81EE210A05
:1018900022EEA01A20EE200A71EE400A80EE820AA3
:1018A0007047000000FF7F4733335340C3F5283EA5
:1018B00010B50121044600F015F8012084F82B0032
:1018C00010BD10B590ED060A002481ED000A90EDE0
:1018D000070A82ED000A90ED080A83ED000A80F8FD
:1018E0002A4010BD024600B5D1B3931D918C1888D3
:1018F000FFF7BCFFF0EE400AD18C5888B0EE603A9A
:10190000FFF7B4FFF0EE400A118D9888F0EE603AD0
:10191000FFF7ACFF9FED141A82ED033AC2ED043AD3
:1019200082ED050A63EE010ADFED101A92ED062A38
:1019300020EE010A012042EE210A23EE812AC2EDA7
:10194000060AD2ED070A00EEA12A82ED072AD2ED9F
:10195000080A00EEA10A82ED080A82F82A0000BDFA
:10196000FFE70346C2E70000CDCC4C3ECDCC4C3F58
:10197000014801F025BB000070020024294A0168DB
:1019800091423AD0274A1832914236D0254A303215
:10199000914232D0234A483291422ED0214A6032BD
:1019A00091422AD01F4A7832914226D01D4A903265
:1019B000914222D01B4AA83291421ED01A4A91422B
:1019C0001BD0194A1832914217D0174A303291422F
:1019D00013D0154A483291420FD0134A60329142D7
:1019E0000BD0114A7832914207D00F4A903291427F
:1019F00003D00D4AA832914211D1CAB21823103A2D
:101A0000B2FBF3F26FF30901032A02F00703074A5E
:101A1000D25CC26500D9091D81650846704721F076
:101A2000FF01F9E710000240100402408C8E00080C
:101A300030B5224A012301689142CAB21BD01F4C23
:101A40001434A14217D01D4C2834A14213D01B4C92
:101A50003C34A1420FD0194C5034A1420BD0174C4A
:101A60006434A14207D0154C7834A14203D0134C02
:101A70008C34A1420CD11421114C083AB2FBF1F183
:101A80000F4A803201F01F0504EB8101AB4010E0EA
:101A90000C4D1824103A0D44B2FBF4F1A82D00D8D7
:101AA0000831094A01F01F0402EB8101064AA340F4
:101AB0008032603080E80E0030BD000008540258CB
:101AC00000580258F0FBFDBF0008024010B5027933
:101AD000531E072B2DD8174C0168A1421BD0154C63
:101AE0001434A14217D0134C2834A14213D0114C06
:101AF0003C34A1420FD00F4C5034A1420BD00D4CBE
:101B00006434A14207D00B4C7834A14203D0094C75
:101B10008C34A14203D10849074C443102E0074903
:101B2000064C443104EB8202C0E91B21012199409B
:101B3000416710BD08540258FC580258FC08024086
:101B400010B583694FF0C074826A0146002053B11A
:101B5000B3F5005F15D072B1012A0CD0022A0AD069
:101B6000032A09D104E01AB1012A06D0022A03D1BE
:101B7000C96AC90100D5012010BDC96AA142FAD0C5
:101B800010BD002AF7D0012AF2D0022AF3D0032A8E
:101B9000F3D010BD7047102001F070BF402001F05D
:101BA0006DBF00680068406A00B2704790ED040A9B
:101BB000704790ED050A7047014600B5FFF7F1FF49
:101BC0000B894A680881C01A00B21044486000BD01
:101BD00000229FED060AC0E900120281C26080ED7A
:101BE000040A80ED050A8261027770470000000058
:101BF00010B53C210446006804F081F921680020FA
:101C000009684862208110BD014600B5FFF7C9FF91
:101C1000B1F908200881801AC86001D4002200E0D0
:101C200001220A7700EE100A9FED071ADFED070A7E
:101C3000F8EEC01A81EE810A81ED050A60EE200AF5
:101C4000C1ED040A00BD00000AD723420000704223
:101C50008169491C8161704772B6FEE705480549F4
:101C60000839026842F00202026008688004FCD56C
:101C7000704700000C48025810B590ED230A044646
:101C800005F014FC84ED250A94ED240A04F12800E3
:101C900005F00CFCF0EE400A84ED260A94ED250ACE
:101CA00020EE000A00EEA00A06F018FE10EE100A60
:101CB000094988420FDDB3EE082A94ED251AC2EED9
:101CC000000AD4ED261A21EE200A61EEA00A84ED66
:101CD000250AC4ED260A10BD0000C04100B590EDF4
:101CE0002D0A0146503005F0E1FB81ED300A81ED0F
:101CF0000D0A00BD70B50D460446D0212DED028BB6
:101D0000B0EE408AFEF70CFDDFED203A9FED203A61
:101D10009FED204A84F8C450204684ED328AB3EE09
:101D2000082AF0EE631AB0EE431AF0EE440AB7EE5A
:101D3000000A05F0F7FBB3EE082AF0EE631AB0EEE6
:101D4000431AF0EE440AB7EE000A04F1280005F049
:101D5000E9FBB2EE042ADFED101A9FED101AF0EE47
:101D6000000AB6EE000A04F1500005F0DBFB84ED3A
:101D70002F3A84ED303A84ED2E3A002084F8CC00DE
:101D800084F8CD00BDEC028B70BD000017B7513850
:101D900000000000000048426F12833A0AD7233C3B
:101DA00010B5044690F8C40006F0CEFD84ED2C0A70
:101DB00010BD00001CB5044607C904F178039FED6F
:101DC000171A00EE100A83E8070084ED210A20EEBE
:101DD000010ADFED130A01EE101A01A8694601EEAF
:101DE000200ADFED100A84ED220A94ED2C0A20EE81
:101DF000200AFFF765F89DEC020A94ED211AD4ED54
:101E0000221A21EE002A21EE800A01EEA02A01EE1C
:101E1000600A84ED232A84ED240A1CBD3ACD133FC9
:101E20003ACD933FDE31654270B50446006804F058
:101E3000EBFE0546206804F0DFFE054301D00120DB
:101E400070BD2068034AC168114041F00041C16083
:101E5000002070BDFFFFDF7F704700002DE9F84FC5
:101E600004464FF0000BDFF8ECA30D46CDF800B0B0
:101E70005F4690F850205846F74EE168012A0BD093
:101E8000F64B4FF0010984F8509041B1296A0129BD
:101E900005D0226EF2B12AE00220BDE8F88F686812
:101EA00009283CD1A96A4FF4785049B12A6801F059
:101EB0007C0CE96A00EA524040EA0C00084302E068
:101EC000296800EA51402168CA6C1A400243CA647A
:101ED000E06524E0C4E917B1A96A286A31B1EA6A69
:101EE000401E01F07C010843104300E0401E2968B9
:101EF000226E95F804C0521E22660CF01F0CE26D93
:101F0000C1F3846101FA0CF141EA000142EA0102E5
:101F1000E26504D12068C16C19401143C164206896
:101F200004F06AFEE8B9286800280DDB2168030385
:101F3000CA6921D090FAA0F0B0FA80F000F01F0337
:101F400009FA03F00243CA6195F8250095F82610B6
:101F50000028206813D0C26822F4401242EA41519E
:101F6000C160206804F050FE8046206804F044FE02
:101F700058EA00000DD0F6E0C0F38460DEE795F883
:101F80002420C368490541EA025123F44012114359
:101F9000E6E7A86A30B1E86A20B195F82500012883
:101FA00036D003E095F82500012804D02068C168E8
:101FB00021F0007103E02068C16841F00071C16048
:101FC00095F83000012829D02068016921F002012C
:101FD00001612A68042320684FF0070CA96803EA0E
:101FE000D25318444369C2F304520CFA02FC9140E4
:101FF00023EA0C030B434361994909682068B9EB54
:10200000117F1BD16B69C068C0F3820040001DE0E6
:10201000606D012740F020006065D1E72168AB8E3C
:10202000904ADFF844C20869D5F838800CEB0343C6
:102030001040184340EA08000861CAE7C168C06858
:10204000C9066B69E0D500F010004008296983409B
:10205000042914D02A68206804F0E2FD297F226850
:102060002869012908D0002102EB8000026E22F0CD
:1020700000420A43026676E04FF00041F4E7206830
:10208000002104F0AFFD000320684FF0000172D082
:1020900004F0A8FD90FAA0F0B0FA80F02A681103CD
:1020A0006ED092FAA2F1B1FA81F1884204D10023F4
:1020B0002068194604F0B4FD2068012104F092FD67
:1020C000000320684FF001015DD004F08BFD90FA11
:1020D000A0F0B0FA80F02A68110359D092FAA2F168
:1020E000B1FA81F1884204D120680023012104F073
:1020F00097FD2068022104F075FD000320684FF071
:10210000020148D004F06EFD90FAA0F0B0FA80F021
:102110002A68110344D092FAA2F1B1FA81F18842FF
:1021200004D120680023032104F07AFD20680321F4
:1021300004F058FD000320684FF0030133D004F091
:1021400051FD90FAA0F0B0FA80F02A6811032FD068
:1021500092FAA2F1B1FA81F1884204D120680023F9
:10216000032104F05DFD2068816811F0010F22D089
:10217000E3E000E004E004F035FDC0F384608DE7A7
:10218000C2F3846191E704F02DFDC0F38460A2E7FF
:10219000C2F38461A6E704F025FDC0F38460B7E7CD
:1021A000C2F38461BBE704F01DFDC0F38460CCE79B
:1021B000C2F38461D0E750F8C02F2B7BDFF8ACC0AE
:1021C000296803F018032CFA03FCC1F3130822EA70
:1021D00008020CEA010C42EA0C0202602448E96899
:1021E00081426FD12348DFF890C02268DFF88CE08D
:1021F0002449824222484FEA4C08134622D12A68D9
:10220000624524D042454BD0A2F1496CBCF1080C88
:1022100056D0A2F1865CBCF1100C54D072454DD062
:10222000DFF864C062455DD0824254D08A4256D005
:102230001648824201D1164854E01648824250D1D5
:1022400015484FE0B2424CD12A68624526D10120A0
:1022500048E00000006002580021024000401004E5
:102260000010005C1DFE00FC0200FFFFFFFF0F00DE
:102270000000FF4700200240020030042000F0145C
:102280000008302E001060320004002A00002143B4
:10229000000052470000844B0000B84F424501D176
:1022A00053481FE0A2F1496CBCF1080C08D0A2F120
:1022B000865CBCF1100C06D0724506D14D4811E089
:1022C0004D480FE01CE04D480CE0DFF834C162459A
:1022D00008D0824201D1084604E08A42ADD1494883
:1022E00000E00020D96902031BD090FAA0F0B0FAF8
:1022F00080F000BF00F01F0209FA02F00143D9612B
:102300002D68002D19DA404B2068984201D0B04268
:1023100009D19968B26801F0010102F0010211438C
:1023200005E0800EE6E7DAF8081001F0010141B19E
:10233000606D012740F020006065384684F850B099
:10234000ABE5324A9842DFF8C8C001D0B04201D1B3
:10235000114600E061468968DFF8B88001F0E0715D
:1023600045451DD15FEA01281AD45045E5D1984270
:1023700002D0B04200D06246936841F4000023F0DE
:10238000E07101439160254923480968B1FBF0F0F1
:102390004000801C00E0401E00900028FBD1CCE7EC
:1023A000DFF87C8045450DD15FEAC1180AD450455D
:1023B000C3D1984202D0B04200D06246936841F047
:1023C00080700FE0DFF85C804545B6D14D02B4D493
:1023D0005045B2D1984202D0B04200D062469368D4
:1023E00041F4800023F0E07101439160A5E7000013
:1023F000400020190002B0258000501D00018021FE
:102400000004002A002090360020024000230240F1
:1024100000630258000084CB400D03002400002418
:10242000000052C70000B8CF704770477047704730
:102430002DE9F0470F4690F850109AB00446012954
:102440004FF0000915D00026DFF8F880012084F84D
:10245000500015961696216841450ED13A4D0095CB
:10246000284604F0D1FB8246206804F0CDFB60B121
:102470000EE002201AB0BDE8F087606D84F850606D
:1024800040F0200060650120F4E7BAF1000F09D0A8
:10249000616D4FF0010941F020006065484684F805
:1024A0005060E7E720684146884201D0A84201D148
:1024B000264800E0264840F61F72D7F800C0254B9A
:1024C000BCF1000F23D0D0F808C0D7F804802CF45A
:1024D000404C4CEA080CC0F808C0D4F800C08C4549
:1024E00001D0AC4507D18968AB6801F0010103F068
:1024F0000103194302E0996801F001010029CDD1DF
:10250000BD683968836829439343194317E0876896
:1025100027F44047876027688F4201D0AF4207D138
:102520008968AB6801F0010103F00103194302E07F
:10253000996801F001010029B0D18168914381605F
:10254000ACE70000002002400021024000230240CE
:1025500000630258006002582DE9F84F0446EB4E24
:102560000020DFF8ACB30090002794F850000D462F
:10257000DFF8A0A3012808D04FF0010984F850909B
:10258000206804F03DFB18B171E10220BDE8F88F2E
:10259000286800280EDB21680303CA6928D090FA56
:1025A000A0F0B0FA80F000BF00F01F0309FA03F0BA
:1025B0000243CA61D5E900124FF00C0C20681F23BA
:1025C000C1F384610CEA921C02F01F026044934044
:1025D0009140026B9A430A430263206804F010FBA7
:1025E0008046206804F004FB58EA000003D08DE028
:1025F000C0F38460D8E72A68042320684FF0070CF2
:10260000A96803EAD25318444369C2F304520CFA8E
:1026100002FC914023EA0C030B434361BE49096865
:10262000B9EB117F06D121686869C968C1F38201DD
:10263000490008E02068C168C906C1686869F5D525
:1026400001F0100149088840296904292ED0236827
:102650002A6803EB810102F0F8420B6E024303F09B
:10266000004010430866697E22682869012917D056
:102670005FF0000102EB8000026E22F000420A438C
:102680000266297E20682A6901290CD0002103698D
:1026900002F01F02914023F4F0420A43026135E048
:1026A0004FF00041E6E74FF40061F0E72068297839
:1026B000026E02F0F842B2EB816F03D1016E21F09D
:1026C0000041016620682978426E02F0F842B2EBC0
:1026D000816F03D1416E21F0004141662068297865
:1026E000826E02F0F842B2EB816F03D1816E21F06D
:1026F0000041816620682978C26E02F0F842B2EB90
:10270000816F03D1C16E21F00041C16620688168EC
:1027100011F0010F72D150F8C03F2A7BDFF8FCC1E5
:10272000296802F018022CFA02FCC1F3130823EA0C
:1027300008030CEA010C43EA0C030360E9685945FD
:102740006CD177482268DFF8DCC1DFF8DCB1824267
:10275000DFF8D8E17648774BDFF8DC8122D12968B1
:10276000614524D0B1EB4C0C38D0A1F1496CBCF1DF
:10277000080C35D0A1F1865CBCF1100C32D0DFF82A
:10278000BCC1614528D071453AD0814230D09942D0
:1027900032D06B48814201D16A4831E041452ED1A7
:1027A00069482DE0B2422AD12968614501D1012052
:1027B00026E0A1F1066CBCF1040C0FD0A1F1496C2C
:1027C000BCF1080C0CD0A1F1865CBCF1100C09D056
:1027D000DFF868C1614507D15C4811E058460FE059
:1027E0005B480DE05B480BE0714509D0814201D1A7
:1027F000184605E09942D1D1574801E03CE000205D
:10280000D16903031AD090FAA0F0B0FA80F000BFAB
:1028100000F01F0309FA03F00143D161D5F800C0AD
:10282000BCF1000F28DA3E4B20684C49DFF83091AC
:10283000984201D0B04203D10A4602E0800EE7E799
:102840004A469268984202F0E07201D0B04209D143
:102850009D68D6F8088005F0010508F0010845EAF2
:10286000080503E0DAF8085005F001054DB1606D88
:10287000012740F020006065002084F850003846B1
:1028800084E6384DAC451CD115021AD45045F3D11D
:10289000984202D0B04200D049468B6842F4000012
:1028A00023F0E07202438A6030492F480968B1FB87
:1028B000F0F04000801C00E0401E00900028FBD19A
:1028C000DAE72B4DAC450CD1D5010AD45045D3D114
:1028D000984202D0B04200D049468B6842F08070E6
:1028E0000EE0244DAC45C7D15502C5D45045C3D1E7
:1028F000984202D0B04200D049468B6842F4800032
:1029000023F0E07202438A60B6E700000021024033
:102910000000FF47006002580010005CFFFF0F003E
:102920000020024002003004400020190004002A68
:102930000008302E001060320000844B2000F0149C
:1029400000002143000052470000B84F0002B025AC
:102950008000501D0001802100209036002302409D
:1029600000630258000084CB400D030024000024C3
:10297000000052C70000B8CF0EB50C49884214D1F0
:102980000B48FEF795FF0B4890F8CC0000280CD0C0
:10299000074801AA02AB6946FEF793FF054869465E
:1029A000FFF708FA0348FFF767F90EBDA8010024F6
:1029B0007801002488000024704700002DE9F05FB2
:1029C0000446006806684568DFF87082DFF870B278
:1029D000DFF87092404501D0484501D1584600E0EB
:1029E0009948806800F01F07B0070ED5A8070CD5DE
:1029F000606DC00603D4606D40F4006060652046E1
:102A0000FFF72AFA216802200860700701D56807DD
:102A100003D4300737D5280735D5606DC00603D4F9
:102A2000606D40F400706065206804F0F1F820B338
:102A30002068484501D1424600E00246824208D063
:102A40003FB1052F05D0092F03D0484503D141469A
:102A500002E0C16801E00146C96889040DD401683B
:102A600009070AD504F0CCF858B3606D40F01000A7
:102A70006065A06D40F00100A0652046FFF77CFF77
:102A800021680C200860B00601D5A80603D47006A2
:102A900058D5680656D5606DC00603D4606D40F405
:102AA000005060652068C16C11F4C07F1AD000210D
:102AB0008A4604F0ADF802462068484514D14346E2
:102AC00013E02068416821F00C014160606D20F442
:102AD00080706065606DC004CFD4606D40F001000F
:102AE0006065CAE70121E3E70346834208D03FB1AE
:102AF000062F05D0072F03D0484503D1414602E0F9
:102B0000C16801E00146C968BAF1000F14D08B0119
:102B100002D58AB18A040FD4026852060CD5890204
:102B20000AD404F065F8E8B3606D40F01000606509
:102B3000A06D40F00100A0652046FFF775FC2168FC
:102B40006020086030060BD5280609D5606D40F47A
:102B500080306065204600F08DF921688020086093
:102B6000F0050CD5E8050AD5606D40F400306065CD
:102B70002046FFF75BFC21684FF480700860B005C9
:102B80000CD5A8050AD5606D40F48020606520460C
:102B9000FFF74DFC21684FF400700860F00631D556
:102BA000E80600E00AE02DD5206BE8B12068EFB31D
:102BB000404501D0484512D1584611E0206841688F
:102BC00021F060014160606D20F480506065606DAF
:102BD000C005B1D4606D40F001006065ACE71A48F3
:102BE000806800F4404050B1606D40F480606065E2
:102BF000A06D40F00200A0652046FFF7DDFE2168D1
:102C000010200860700517D5680515D5616D4FF463
:102C1000806041F480416165A16D41F00801A165CA
:102C2000216808602046BDE8F05F00E001E0FFF7A2
:102C3000FCBBC0688007D6E7BDE8F09F00200240DB
:102C4000002302400021024000630258F8B54FF013
:102C5000000604003546009602D0606D10B107E012
:102C60000120F8BD204600F007F9A66584F8506001
:102C700020688168C1F3407119B18168704A1140C0
:102C8000816020688168C1F3007181B981686D4AF3
:102C9000114041F0805181606C496B480968B1FB7B
:102CA000F0F0401C00E0401E00900028FBD120689E
:102CB0008168C1F3007141B9616D012541F01001D6
:102CC0006165A16D41F00101A16503F099FF616D9E
:102CD000C90600D420B1606D012540F0100093E0DA
:102CE000606D20F4807040F00200606520688168AB
:102CF00011F0010F1FD1564A564B904201D0984215
:102D000007D191689E6801F0010106F00106314388
:102D100003E05149896801F0010161B9904201D095
:102D2000984201D14D4800E04D488268616822F424
:102D30007C120A43826000F0D1FF41F20301884215
:102D400002D9A06810280CD0617D227FA368206B77
:102D5000490341EA024118430843217F01290CD06D
:102D600010E0607D227F216B400340EA024241F087
:102D70001000104340F00C00EFE7218C394A02EBC1
:102D800041410843616A29B1A26A01F478710143A3
:102D900042EA01002168344BCA681A400243CA6003
:102DA000206803F02DFF0646206803F021FF304322
:102DB0001DD1216844F20303267DE26AC86842EA15
:102DC000863298431043C86094F8380001281ED01A
:102DD0002068016921F0010101612068626B0169CD
:102DE00021F07041114301612046FEF7ABFCE06821
:102DF000012820681CD0016B21F00F010163606D78
:102E000020F0020040F0010060652846F8BD20680F
:102E1000A28F164FD4E9101C154E07EB0247A36C86
:102E2000026941EA0C013B43324019431143D3E7A5
:102E3000A269016B521E21F00F011143DEE7000071
:102E4000C0FFFF5FC0FFFF7F400D03002400002490
:102E5000002002400021024000600258002302408E
:102E6000006302580000FEFF03C0F0FF0100FFFFF7
:102E70001EF800FC704700002DE9F04387B00646BD
:102E800014216846FDF74CFC464B002544480324BA
:102E9000DFF81481D6F800C008301968404AC445EC
:102EA000424F01F10101DFF8089142D10129196077
:102EB00007D1116841F020011160116801F0200173
:102EC0000591016841F004010160016801F004010D
:102ED0000591016841F0010101600068694600F058
:102EE0000100059013208DE83100384600F0D2FD36
:102EF000142069468DE83100484600F0CBFD2D4C8A
:102F000009212D484FF4807C021584E82300D70066
:102F1000C4E90352C3142046C4E907C56562C4E985
:102F2000053700F0C1FB08B1FEF796FEF464A66316
:102F30002BE0224EB44530D10129196007D1116828
:102F400041F020011160116801F020010591016834
:102F500041F001010160016801F001010591016882
:102F600041F0040101600068694600F0040005902A
:102F700048208DE83100484600F08CFD202069464D
:102F80008DE83100384600F085FD00220221122034
:102F900000F09AFF122000F089FF07B0BDE8F0832F
:102FA000D8440258140000240020024000080258AF
:102FB0000000025870020024280002400021024054
:102FC0002DE9FC5F0446F74E0020DFF8D88300901F
:102FD0004FF41652F44808F11808A56DDFF8C493B1
:102FE000DFF8C0A3016809F1300920680AF1480A36
:102FF000B1FBF2F1B04201912F68D5F800C0DFF8C3
:10300000ACB335D04146884232D0484530D05045E7
:103010002ED058452CD0E5491831884228D0E349B4
:103020003031884224D0E1494831884220D0E049FB
:1030300088421DD0DE491831884219D0DC49303130
:10304000884215D0DA494831884211D0DFF860E370
:103050000EF1600E70450BD0D54A7832904207D001
:10306000D34B9033984203D0D149A83188427DD1C7
:1030700094F85C20082102F01F0201FA02F23A42A1
:103080004AD0B04232D0404530D048452ED050458D
:103090002CD058452AD0C54A1832904226D0C34A6F
:1030A0003032904222D0C14A483290421ED0C04AAB
:1030B00090421BD0BE4A1832904217D0BC4A3032E0
:1030C000904213D0BA4A483290420FD0B84A603288
:1030D00090420BD0B64A7832904207D0B44A903230
:1030E000904203D0B24AA832904203D1026802F063
:1030F000040202E0026802F008026AB1026822F0EB
:103100000402026094F85C0000F01F008140A96096
:10311000606D40F00100606594F85C00012100F0F2
:103120001F008140394240D02068B04234D0404531
:1031300032D0484530D050452ED058452CD09B4AEF
:103140001832904228D0994A3032904224D0974A7F
:103150004832904220D0964A90421DD0944A18326C
:10316000904219D0924A3032904200E0AFE113D041
:103170008F4A483290420FD08D4A603290420BD035
:103180008B4A7832904207D0894A9032904203D0DD
:10319000874AA83290427DD1406910F0800F04D058
:1031A000A960606D40F00200606594F85C00042145
:1031B00000F01F00814039423ED02068B04232D03A
:1031C000404530D048452ED050452CD058452AD0C7
:1031D000764A1832904226D0744A3032904222D039
:1031E000724A483290421ED0714A90421BD0704AB7
:1031F0001832904217D06E4A3032904213D06C4A47
:10320000483290420FD06A4A603290420BD0684AEE
:103210007832904207D0664A9032904203D0644A96
:10322000A83290424ED1006810F0020F04D0A9607D
:10323000606D40F00400606594F85C00102100F0BF
:103240001F008140394258D02068B04234D04045F8
:1032500032D0484530D050452ED058452CD0534A16
:103260001832904228D0514A3032904224D04F4AEE
:103270004832904220D04E4A90421DD04C4A1832DB
:10328000904219D04A4A3032904215D0484A4832CA
:10329000904200E014E00FD0454A603290420BD0DB
:1032A000434A7832904207D0414A9032904203D04C
:1032B0003F4AA832904207D1006800F0080006E0BB
:1032C000006872E70068B7E7006800F00400A0B18A
:1032D000A96020680168490304D50068000308D587
:1032E000A16C07E00168C90503D4016821F0080159
:1032F0000160216C09B12046884794F85C002021C8
:1033000000F01F008140394279D02068B04232D0AD
:10331000404530D048452ED050452CD058452AD075
:10332000224A1832904226D0204A3032904222D08F
:103330001E4A483290421ED01D4A90421BD01C4A61
:103340001832904217D01A4A3032904213D0184A9D
:10335000483290420FD0164A603290420BD0144A45
:103360007832904207D0124A9032904203D0104AED
:10337000A832904203D1006800F0100002E000681B
:1033800000F00200B0B3A96094F83500042820686A
:1033900001680FD049037ED5006800032BD4616C0F
:1033A0002AE00000100002402400002470000240C7
:1033B0001004024021F0160101602068416921F0EB
:1033C00080014161206C08B9A06C20B120680168BF
:1033D00021F00801016094F85C303F21012003F0E6
:1033E0001F0300229940A96084F8350084F8342036
:1033F000216D65E003E0E16B09B120468847606D0F
:1034000000287DD0606DC00759D02068042184F861
:103410003510B0422BD0404529D0484527D05045E3
:1034200025D0584523D09D49884220D09B4918314A
:1034300088421CD099493031884218D09849884236
:1034400015D097491831884211D0954930318842BA
:103450000DD093494831884209D091496031884262
:1034600005D08F497831884201D08D49903101686B
:1034700021F00101016020680099019A491C009126
:10348000914202D80168C907F6D10068C00710D080
:1034900003200FE0FFE70168C905ACD403680121F0
:1034A000002223F01003036084F8351084F83420E0
:1034B000A1E7012084F83500002084F83400E16C95
:1034C00000291DD002B02046BDE8F05F08477549CD
:1034D00088421DD073491431884219D0714928316E
:1034E000884215D06F493C31884211D06D49503126
:1034F00088420DD06B496431884209D0694900E0A7
:1035000084E07831884203D066498C3188427DD18D
:1035100094F85C800427016808F01F0807FA08F790
:1035200017EA0C0F009746D04F0744D500980F04B8
:10353000686003D5C8033CD4A16CC1E7880638D4C1
:103540002068B0422DD055496039884229D048457D
:1035500027D0504525D0584523D05049884220D007
:103560004E49183188421CD04C493031884218D01D
:103570004B49884215D04A491831884211D04849F0
:10358000303188420DD046494831884209D07045D3
:1035900007D0904205D0984203D04149A8318842D3
:1035A00003D1016821F0080102E0016821F0040163
:1035B0000160216C84E7022707FA08F717EA0C0F6D
:1035C00000974ED08F074CD500980F04686003D544
:1035D000C80344D4616C73E7880640D42068B042C5
:1035E0002FD02E49603988422BD0484529D05045EC
:1035F00027D0584525D02949884222D0274918315B
:1036000088421ED025493031884200E044E018D07D
:103610002349884215D022491831884211D02049C7
:10362000303188420DD01E494831884209D070455A
:1036300007D0904205D0984203D01949A83188425A
:1036400003D1016821F0140102E0016821F00A01B0
:103650000160012184F83510002084F83400E16B0A
:103660002EE7082202FA08F212EA0C0F14D009071A
:1036700012D5016821F00E01016094F85C10012060
:10368000002201F01F0100FA01F16960606584F811
:10369000350084F8342012E7BDE8FC9F8800024022
:1036A00010040240085402582DE9F05F044600F06F
:1036B0001BFB002C07467DD0E34E022120684FF013
:1036C0000308DFF888934FF00005DFF884A3B042C9
:1036D000DFF880B334D0DC4A1832904230D048450D
:1036E0002ED050452CD058452AD0DA4A1832904274
:1036F00026D0D84A3032904222D0D64A4832904220
:103700001ED0D54A90421BD0D34A1832904217D0CF
:10371000D14A3032904213D0CF4A483290420FD033
:10372000CD4A603290420BD0CB4A7832904207D0DB
:10373000C94A9032904203D0C74AA83290427DD104
:1037400084F83510B04284F834502ED0BE49183178
:1037500088422AD0484528D0504526D0584524D004
:10376000BC491831884220D0BA49303188421CD037
:10377000B8494831884218D0B749884215D0B6496F
:103780001831884211D0B449303188420DD0B24945
:103790004831884209D0B0496031884205D0AE49ED
:1037A0007831884201D0AC499031016821F00101A3
:1037B000016008E027E100BF00F096FAC01B052871
:1037C00001D920211CE120680068C007F4D104F170
:1037D00008002168D4E9053C8E4685C80968104375
:1037E000D4E907281F43636A38439C4F40EA0C0022
:1037F0001043394040EA0800042B40EA010003D19D
:10380000D4E90B1211430843954909686FF30F017E
:10381000B1F1005F0FD36168A1F12902052A08D92F
:10382000163A032A05D9083A012A02D94F39032941
:1038300001D840F48010CEF8000000E023E02068BA
:10384000676A4069042F20F0070047EA00070DD19E
:10385000D4E90A01074349B12046FEF771F928B1BE
:1038600040206065012184F83510CCE02068476174
:103870002046FEF783F894F85C203F2102F01F02F7
:103880009140816054E0774A90421BD0754B1433CD
:10389000984217D0734B2833984213D0714B3C3366
:1038A00098420FD06F4B503398420BD06D4B64331E
:1038B000984207D06B4B7833984203D0694B8C33D6
:1038C00098427DD184F8351084F83450664B0168F5
:1038D000A26801EA030E402A73D0802A72D0002227
:1038E000D4E90378D4E9053142EAD70242EAD8089C
:1038F0005C4AD4E9077C48EAD30848EAD10141EAA6
:10390000D701524241EA1C11142341EA0E01016021
:1039100020681044B0FBF3F08000E0652046FEF71D
:103920002DF894F85C20012102F01F0291404160C3
:103930002068B04257D044491831884253D0484596
:1039400051D050454FD058454DD04249183188424A
:1039500049D040493031884245D03E4948318842BB
:1039600041D03D4988423ED03B49183188423AD047
:1039700039493031884236D037494831884232D0CF
:103980003549603188422ED03349783188422AD077
:1039900031499031884226D02F49A831884222D01F
:1039A000304988421FD02F49143188421BD02D49FD
:1039B0002831884217D02B493C31884213D002E08D
:1039C0001DE017E018E02749503188420BD0254907
:1039D0006431884207D023497831884203D0214995
:1039E0008C31884229D12046FEF722F8A068802831
:1039F0000CD00CE0102273E74FF4804270E74021B6
:103A0000616584F835800120BDE8F09F6560216E16
:103A100020790860D4E9190141606068401E0728D8
:103A200008D82046FEF752F8E06E0560D4E91C0184
:103A3000416002E0E566256765670120656584F8F9
:103A400035000020E0E70000100002404000024086
:103A50005800024070000240100402403F8010FEF7
:103A60000010005C085402580F00FEFF402802D1ED
:103A70000148FEF7EDB87047580100244FF0B041FF
:103A800010B5D1F88820024203D0C1F88800FFF7B2
:103A9000EDFF10BD2DE9F84F03247D4D00234FF0BD
:103AA00001094FF0B04B4FF00F0AE9E009FA03F7B4
:103AB0003A4076D00E7906F00306012E01D0022E90
:103AC00018D1D0F808C04FEA430ECE6804FA0EF8B9
:103AD0002CEA080C06FA0EF646EA0C068660D0F8C8
:103AE00004C00E792CEA070CC6F300169E4046EA85
:103AF0000C0646600E79F643B6070BD0C6684FEA4F
:103B000043088F6804FA08FC26EA0C0607FA08F74F
:103B10003743C7600E7906F00306022E12D1DE0885
:103B20000F694FEA437C00EB8606B646366A4FEAD9
:103B3000DC6C0AFA0CF807FA0CF726EA0806374399
:103B4000CEF820700F7906684FEA430807F00307A4
:103B500004FA08FC07FA08F726EA0C063743076060
:103B60004E6816F4403F1CD04A4E376847F00207B3
:103B7000376036689F0706F00206009623F00306BA
:103B800006F1B046B6463F0FD6F80864DFF8088164
:103B90000AFA07FC404526EA0C0603D14FF0000C58
:103BA00041E06CE0DFF8F4C0604502D14FF0010C59
:103BB00039E0DFF8ECC0604502D14FF0020C32E092
:103BC000DFF8E0C0604502D14FF0030C2BE0DFF8D6
:103BD000D8C0604502D14FF0040C24E0DFF8CCC01F
:103BE000604502D14FF0050C1DE0DFF8C4C0604510
:103BF00002D14FF0060C16E0DFF8B8C0604502D1E4
:103C00004FF0070C0FE0DFF8B0C0604502D14FF075
:103C1000080C08E0DFF8A4C0604502D14FF0090CA1
:103C200001E04FF00A0C0CFA07FC4CEA060CCEF847
:103C300008C44F68DBF80060FF0226EA020600D5E0
:103C400016435F46CBF80060D1F804C0DBF804608F
:103C50005FEA8C2C26EA020600D516437E606E6869
:103C60004F6826EA0206BF0300D516436E602E6831
:103C70004F6826EA0206FF0300D516432E605B1C40
:103C80000A6832FA03F67FF411AFBDE8F88F00003E
:103C900080000058F4440258000002580004025802
:103CA00000080258000C0258001002580014025874
:103CB00000180258001C0258002002580024025824
:103CC000426921EA02030A4043EA024181617047E6
:103CD0000AB1816170470904FBE7000001480068F0
:103CE000000C70470010005C0148806870470000BD
:103CF00018000024024881680278114481607047EE
:103D000018000024032010B500F0FEF801F00EFBAF
:103D10000F4A104914681368C4F3032203F00F0319
:103D20008A5CC95C02F01F0201F01F01D0400A4A00
:103D300020FA01F11160094908600F2000F010F825
:103D400008B1012010BD00F09FF8002010BD000058
:103D500018440258BC8E00082800002424000024C7
:103D600010B5102804468AB02CD200220146362015
:103D700000F0AAF8362000F099F8174804601748B8
:103D8000016841F010010160006809A900F010000D
:103D90000890684601F056FA0598B0B101F0A2FA11
:103DA00040000F4900220F4CB0FBF1F10E4840F2E9
:103DB000E7330460C0E90332491EC0E9011201F093
:103DC0001DFF28B101200AB010BD01F08BFAE8E711
:103DD000054801F071FFF6E71C000024E844025892
:103DE00040420F0000100040F8040024154BF0B5CD
:103DF000083B427813491A600B680A1F23F001033D
:103E00000B6043681360057BC67A827A437B2D077B
:103E1000847B45EA0665C77B90F809C0067A90F86E
:103E200000E045EAC24040EA834040EA444040EABC
:103E3000074040EA0C2040EA460040EA0E000860D5
:103E4000F0BD0000A0ED00E0BFF35F8F044800214B
:103E50000368034A23F480330360703211607047B3
:103E600024ED00E0074A40F001000649703210607E
:103E7000086840F480300860BFF34F8FBFF36F8F46
:103E80007047000024ED00E0074882B0016841F06F
:103E900002010160006800220F2100F00200009082
:103EA000901E02B000F010B8F4440258002809DB5C
:103EB000410900F01F028900012001F1E02190403A
:103EC000C1F80001704700000E4BF0B41B680D46AE
:103ED000C3F30223C3F10706042E00D90426191DDB
:103EE000072901D2002300E0DB1E012404FA06F1B9
:103EF0009C40491E2940641E994014402143F0BC57
:103F000004F083BC0CED00E0064900F0070210B598
:103F10004FF6FF040868044B204040EA0220184393
:103F2000086010BD0CED00E00000FA05134970B503
:103F30000A68D243520705D5096801F0070181429A
:103F400013D118E00A6822F0070202430A60FFF763
:103F5000CBFE0A4D4FF47A760446083D07E000BFD9
:103F6000FFF7C2FE001BB04201D9012070BD2868D6
:103F7000C0438004F4D4002070BD00000C480258F7
:103F800010B501F08DF905490968054AC1F3021120
:103F9000515C01F01F01C84010BD000020440258D0
:103FA000BC8E00084A4930B5494C0B1D0A680C34D8
:103FB00009681D68246802F0030305F00102C1F3DB
:103FC0000511C4F3CC04002914FB02F200EE102A00
:103FD000F8EE400A76D0414A9FED3E1ADFED3E1AD8
:103FE000B7EE000A23B1012B5AD0022B18D15CE0A6
:103FF000374C283C23689B0612D5394B246801EEC8
:10400000901A1168C4F3C104F8EE612AE34001EE8E
:10401000903AC1F30801F8EE611A81EEA22A07E096
:1040200002EE101A1168F8EE422A81EEA22A45E04B
:1040300001EE901A1168F8EE611A40EE811A71EEE5
:10404000800A62EE200AC1F3462101EE101AB8EE92
:10405000411A31EE001AC0EE811ABCEEE11A80ED71
:10406000001A1168C1F3064101EE101AB8EE411AA8
:1040700031EE001AC0EE811ABCEEE11A80ED011A91
:104080001168C1F3066101EE101AB8EE411A31EE63
:10409000000A80EE801ABCEEC10A80ED020A30BD33
:1040A00001EE901ADFED0F2A03E001EE901ADFED2A
:1040B0000E2A1168F8EE611A82EEA12AC1F30801F6
:1040C000B6E7FFE7002101604160816030BD00007C
:1040D00028440258000000390024744C304402582F
:1040E0000090D0030024744A20BCBE4B494930B52F
:1040F000484C0B1D0A68143409681D68246802F0D6
:104100000303C5F30012C1F30531C4F3CC04002945
:1041100014FB02F200EE102AF8EE400A75D03F4A76
:104120009FED3D1AB7EE000A6BB1DFED3D1A012B92
:1041300001D0022B64D002EE101A1168F8EE422A68
:1041400081EEA22A21E0334C283C23689B0612D53D
:10415000344B246801EE901A1168C4F3C104F8EEE0
:10416000612AE34001EE903AC1F30801F8EE611ACA
:1041700081EEA22A0BE001EE901ADFED2B2A00BFA0
:10418000F8EE611A116882EEA12AC1F3080101EE6E
:10419000901A1168F8EE611A40EE811A71EE800AE9
:1041A00062EE200AC1F3462101EE101AB8EE411A60
:1041B00031EE001AC0EE811ABCEEE11A80ED001A51
:1041C0001168C1F3064101EE101AB8EE411A31EE42
:1041D000001AC0EE811ABCEEE11A80ED011A1168D6
:1041E000C1F3066101EE101AB8EE411A31EE000A71
:1041F00080EE801ABCEEC10A80ED020A30BD04E0F8
:1042000001EE901ADFED092ABAE700210160416052
:104210008160F3E72844025800000039384402580E
:104220000024744A0090D0030024744C20BCBE4B80
:10423000494930B5484C0B1D0A681C3409681D6893
:10424000246802F00303C5F30022C1F30551C4F34F
:10425000CC04002914FB02F200EE102AF8EE400A0A
:1042600075D03F4A9FED3D1AB7EE000A6BB1DFED06
:104270003D1A012B01D0022B64D002EE101A1168F6
:10428000F8EE422A81EEA22A21E0334C283C236832
:104290009B0612D5344B246801EE901A1168C4F3C2
:1042A000C104F8EE612AE34001EE903AC1F308013F
:1042B000F8EE611A81EEA22A0BE001EE901ADFED12
:1042C0002B2A00BFF8EE611A116882EEA12AC1F311
:1042D000080101EE901A1168F8EE611A40EE811A99
:1042E00071EE800A62EE200AC1F3462101EE101A37
:1042F000B8EE411A31EE001AC0EE811ABCEEE11A96
:1043000080ED001A1168C1F3064101EE101AB8EEF3
:10431000411A31EE001AC0EE811ABCEEE11A80EDAE
:10432000011A1168C1F3066101EE101AB8EE411AC4
:1043300031EE000A80EE801ABCEEC10A80ED020A5E
:1043400030BD04E001EE901ADFED092ABAE7002142
:10435000016041608160F3E72844025800000039A1
:10436000404402580024744A0090D0030024744C46
:1043700020BCBE4B2DE9F04FAC4A0546DFF8A8A2A1
:1043800080F48070DFF8AC9289B01311AA4C084316
:10439000A748AAF104064FF0805C4FF000582CD0DB
:1043A00085F400770F4357D0DFF87CB285F480673F
:1043B0000F430BF1080B61D085F400670F4374D0F5
:1043C00085F480570F436ED085F400570F434FF4A8
:1043D00080394FF4003E67D085F400270F4371D039
:1043E00085F480370F436ED085F480460E436BD042
:1043F00085F400420A4368D02AE0DAF8001001F0A0
:104400000701052924D2DFE801F075BC7D25B10044
:1044100006A8FFF7C7FD079809B0BDE8F08F68460A
:10442000FFF764FE0098F7E703A8FFF701FF039882
:10443000F2E72068C0F3C10022FA00F0ECE722683E
:10444000D20571D561456FD11846E5E74145E3D006
:104450000020E1E74846DFE7DAF8001001F4E071F8
:1044600080294FD004DC002944D04029F0D188E0D5
:10447000C029EFD0B1F5807FEAD177E0DBF80010FA
:1044800001F46001B1F5800F3CD004DC91B3B1F5CB
:10449000001FDDD175E0B1F5C00FDBD0B1F5000F25
:1044A000D6D163E001E018E030E0DBF8001001F065
:1044B000E061B1F1007F25D008DCD9B1B1F1807F96
:1044C000C6D15EE049E06CE079E09CE0B1F1407F6C
:1044D000C0D0B1F1806FBBD148E0DAF8001001F430
:1044E000E041B1F5005F0DD005DC19B1B1F5805F99
:1044F000AED146E094E0B1F5405FABD0B1F5804F6E
:10450000A6D133E020688000A2D58DE7DAF800104C
:1045100001F4E021B1F5403F6CD006DC61B14945C2
:104520007AD0714594D157E037E0B1F5802F65D04E
:10453000B1F5A02F8CD10CE000F0D4FE6CE76846FA
:10454000FFF7D4FD019867E703A8FFF771FE049811
:1045500062E721688903F1D47AE7DBF8001011F4EF
:1045600040310ED0494510D07145F5D131682568EC
:1045700001F040516D077FF562AF00297FF45FAF16
:1045800057E720680001E7D549E720688000E3D5B8
:1045900003A8FFF74DFE05983EE722689203DBD59E
:1045A00054E7306810F480303AD04845D4D12068C0
:1045B0000001D1D56846FFF799FD02982CE7DBF89A
:1045C000001001F0E041B1F1405F13D008DC71B19F
:1045D000614521D04145BFD120688000B4D437E780
:1045E000B1F1804F0AD0B1F1A04FB2D030E7FFF760
:1045F000C7FC11E720684007AED51AE72068C00560
:10460000AAD521E708E0DAF8001011F04051A0D057
:10461000614505D041459FD1206800018FD417E73F
:104620002068800198D5F3E6504402580090D003EA
:1046300040787D010080BB00004402582DE9FE4F08
:104640000546DFF8E48350F8081B0024F64FC94301
:10465000019005F12800264608F124080090080181
:104660001DD4A86E50B1B0F5801F0CD0B0F5001F5E
:104670000ED0B0F5401F1ED001240FE0386840F482
:104680000030386017E00198022102F0A5FF03E036
:104690000098022103F030F804000CD02646288848
:1046A000C043C00523D4A86D05281ED2DFE800F062
:1046B0000C11161B1B00AA6ED8F8001021F4401133
:1046C0001143C8F80010EAE7386840F40030386059
:1046D00009E00198002102F07FFF03E0009800212B
:1046E00003F00AF8044674B100E001242646288845
:1046F000C043800528D4E86D80281ED00CDC90B122
:1047000040280ED114E0AA6DD8F8001021F007015E
:104710001143C8F80010EAE7C02813D0B0F5807F35
:1047200010D001240FE0386840F40030386009E010
:104730000198002102F050FF03E00098002102F0F0
:10474000DBFF04469CB126462888DFF8DC92C04394
:1047500009F12C0940052CD4D5F8A800B0F5800F3C
:1047600020D00DDCA0B1B0F5001F0FD115E0EA6D2F
:10477000D8F8001021F4E0711143C8F80010E3E705
:10478000B0F5C00F13D0B0F5000F10D001240FE02A
:10479000386840F40030386009E00198002102F0E8
:1047A0001BFF03E00098002102F0A6FF04467CB145
:1047B00026462888C04300052DD4D5F8AC00B0F1BA
:1047C000007F21D00EDCA8B1B0F1807F10D116E0BF
:1047D000D5F8A820D9F8001021F460011143C9F8D8
:1047E0000010E6E7B0F1407F13D0B0F1806F10D039
:1047F00001240FE0386840F40030386009E0019887
:10480000002102F0E9FE03E00098002102F074FFAD
:10481000044674B126462868C04380011FD4E86C62
:10482000D8B110280FD0202812D0302815D001245C
:1048300014E0D5F8AC20D9F8001021F0E061114364
:10484000C9F80010E7E7386840F40030386004E049
:104850000198022102F0C0FE044674B12646288861
:10486000C043C0042BD4286EB0F5005F20D00DDC0F
:10487000A0B1B0F5805F0FD115E06B48EA6C203035
:10488000016821F0300111430160E8E7B0F5405FB5
:1048900013D0B0F5804F10D001240FE0386840F4F9
:1048A0000030386009E00198002102F095FE03E035
:1048B0000098002102F020FF04468CB1264628888B
:1048C000C043800429D4686EB0F5403F23D010DC8B
:1048D00008B3B0F5803F14D0B0F5003F0FD115E01C
:1048E0002A6ED8F8001021F4E0411143C8F80010F6
:1048F000E5E7B0F5802F0ED0B0F5A02F0BD0012446
:104900000AE00198012102F067FE03E0009801210E
:1049100002F0F2FE044694B126462888C0434004C3
:104920002AD4D5F8B000B0F1405F23D010DC08B332
:10493000B0F1805F14D0B0F1005F0FD115E06A6E66
:10494000D8F8001021F4E0211143C8F80010E4E782
:10495000B0F1804F0ED0B0F1A04F0BD001240AE08F
:104960000198012102F038FE03E00098012102F0D5
:10497000C3FE044674B126462888C04300041FD4F1
:10498000286FD8B1B0F1805F0ED0B0F1005F10D0C9
:10499000012414E0D5F8B020D9F8001021F0E0414E
:1049A0001143C9F80010E7E7386840F40030386078
:1049B00004E00198012102F00FFE044674B126467E
:1049C0002868C043C0011ED4A86CD0B101280ED005
:1049D000022811D0032814D0012413E02A6FD8F83C
:1049E000001021F040511143C8F80010E8E7386882
:1049F00040F40030386004E00198022102F0ECFD40
:104A00000446ACB126462868DFF81CB0C043ABF1C1
:104A10001C0B400252D40548016841F480710160CA
:104A2000FFF762F9824611E02C4402580048025810
:104A3000FA48AA6C016821F0030111430160E2E722
:104A4000FFF752F9A0EB0A00642835D8F448006853
:104A5000C005F5D58CBBDFF8C4A3B5F8B4100AF1D6
:104A6000240ADAF8000001F4407100F44070884232
:104A700011D0DAF80010DAF8002021F4407142F485
:104A80008032CAF80020DAF8002022F48032CAF816
:104A90000020CAF80010D5F8B400B0F5807F1AD114
:104AA000FFF722F9029012E0FFF71EF90299411A6E
:104AB00041F2883081420AD9032426462878DFF85B
:104AC0005CA3C0430AF1080AC00721D03CE0DAF831
:104AD00000008007E8D5D5F8B410C1F30120032801
:104AE00058460DD0016821F47C510160B5F8B4201E
:104AF000DAF80010C2F30B021143CAF80010DDE728
:104B0000C84A036802EA111223F47C511143ECE70E
:104B1000E86F182816D005DCA0B1082808D01028A6
:104B200004D10AE020280DD028280BD001240AE067
:104B30000198012102F050FD03E00098012102F0EC
:104B4000DBFD044664B126462878C04380071ED4A6
:104B5000A86F062819D2DFE800F0160C11161616F9
:104B6000EA6FDAF8001021F038011143CAF800109A
:104B7000EAE70198012102F02FFD03E000980121EE
:104B800002F0BAFD04467CB100E0012426462878F4
:104B9000C04340071FD4D5F89400062819D2DFE897
:104BA00000F0160C11161616AA6FDAF8001021F094
:104BB00007011143CAF80010E9E70198012102F04A
:104BC0000BFD03E00098012102F096FD0446A4B11C
:104BD00000E0012426462878C04380062BD4D5F86F
:104BE0009000B0F1405F24D011DC10B3B0F1805FD1
:104BF00015D0B0F1005F10D116E0D5F89420D9F8A7
:104C0000001021F007011143C9F80010E3E7B0F1EB
:104C1000804F0ED0B0F1A04F0BD001240AE00198D4
:104C2000002102F0D9FC03E00098022102F064FDAB
:104C3000044694B126462878C04340062BD4D5F8C4
:104C40009C00B0F5406F24D011DC10B3B0F5806F3C
:104C500015D0B0F5006F10D116E0D5F89020DAF835
:104C6000001021F0E0411143CAF80010E3E7B0F56D
:104C7000805F0ED0B0F5A05F0BD001240AE0019850
:104C8000002102F0A9FC03E00098022102F034FDAB
:104C9000044694B126462878C04300062BD4D5F8A4
:104CA000A000B0F5C04F24D011DC10B3B0F5005F08
:104CB00015D0B0F5804F10D116E0D5F89C20D9F86A
:104CC000001021F4E0511143C9F80010E3E7B0F5FA
:104CD000004F0ED0B0F5204F0BD001240AE0019810
:104CE000002102F079FC03E00098022102F004FDAB
:104CF000044654B126462878C04300071ED4D5F890
:104D00008400B0F5805F0AD00FE0D5F8A020D9F874
:104D1000001021F460411143C9F80010EBE700983E
:104D2000022102F0E9FC00B10126D5F88420DAF86E
:104D3000001021F440511143CAF800102878C043F4
:104D4000C00613D4D5F89800B0F5807F05D100983F
:104D5000022102F0D1FC00B10126D5F89820D9F843
:104D6000001021F440711143C9F800102868C043B5
:104D7000000316D4D5F8A40038B1B0F5803F09D0AF
:104D8000B0F5003F0BD001240AE00198002102F0A9
:104D900023FC03E00098022102F0AEFC04468CB133
:104DA00026462868C043400322D4D5F88800B0F5D1
:104DB000801F11D0B0F5001F13D0B0F5401F15D0E3
:104DC000012414E0D5F8A420D9F8001021F44031D2
:104DD0001143C9F80010E4E7386840F40030386047
:104DE00004E00098012102F087FC04465CB12646ED
:104DF0002868C043C00323D4286DA8B1B0F5803F14
:104E000017D001241BE0D5F88820DAF8001021F42F
:104E100040111143CAF80010EAE700004C44025860
:104E200000480258CFFFFF00386840F40030386077
:104E300004E00198022102F0CFFB0446E4B12646CB
:104E40002868C043800005D40098022102F054FC79
:104E500000B101262868C04380031BD4D5F8800028
:104E6000B0B1B0F5807F0FD0B0F5007F10D0B0F5B5
:104E7000407F0DD001240CE05A482A6D016821F4CE
:104E8000803111430160DBE7386840F4003038605E
:104E9000ECB326462868C043C00207D46A6FD8F82E
:104EA000001021F000411143C8F800102868C043E9
:104EB000C00008D4D5F8B820DBF8001021F48041F8
:104EC0001143CBF800102868C043800207D4EA6E73
:104ED000D8F8001021F080711143C8F8001028683C
:104EE000C04340000CD4DBF8001021F40041CBF8A3
:104EF0000010DBF80010D5F8BC201143CBF80010EF
:104F00002868C04308D437486A6D016800E018E09B
:104F100021F04051114301602868C043000208D4C9
:104F2000D5F88C20DAF8001021F440011143CAF8BA
:104F3000001028790024C04300F0010020430AD06B
:104F40000FE0D5F88020DAF8001021F44071114309
:104F5000CAF800109EE70198002102F03DFB00B165
:104F600006462879C04300F00200204305D101988D
:104F7000012102F031FB00B106462879C04300F060
:104F80000400204305D10198022102F025FB00B165
:104F900006462879C04300F00800204305D1009858
:104FA000002102F0A9FB00B106462879C04300F0B9
:104FB0001000204305D10098012102F09DFB00B1B3
:104FC00006462879C04300F02000044304D100982D
:104FD000022102F091FB00B916B10120BDE8FE8F5D
:104FE0000020FBE74C4402582DE9F05F04000F4617
:104FF0007ED0DFF83882D8F8000000F00F00B84209
:105000000CD2D8F8001021F00F013943C8F8001075
:10501000D8F8000000F00F00B84269D12078844D24
:1050200040070AD52069296801F07001884204D937
:10503000296821F070010143296020787C4E361DDB
:1050400000070AD56069316801F07001884204D90F
:10505000316821F07001014331602078C0060AD523
:10506000A069316801F4E061884204D9316821F413
:10507000E061014331602078DFF8B4B180060BF1C4
:10508000080B0CD5E1695846DBF8002002F07002ED
:10509000914204D9026822F070020A43026020782B
:1050A00080070AD5E068296801F00F01884204D919
:1050B000296821F00F01014329602078C0073ED004
:1050C0005B49A2682868183920F470601043286092
:1050D0006068022818D0032819D00968012819D05F
:1050E000490700294ADADFF848A1AAF1080A00E0D6
:1050F00044E0DAF8002022F007020243CAF8002058
:10510000FEF7F2FD814612E009688903E9E70968C4
:105110008901E6E7C905E4E7FEF7E6FDA0EB090132
:1051200041F28830814202D90320BDE8F09F6168D6
:10513000DAF8000000F03800B0EBC10FECD12078B5
:1051400080070AD5E068296801F00F01884204D27F
:10515000296821F00F0101432960D8F8001040466A
:1051600001F00F01B9420BD9016821F00F01394359
:105170000160006800F00F00B84201D00120D4E7C0
:10518000207840070AD52069296801F0700188421B
:1051900004D2296821F070010143296020780007BA
:1051A0000AD56069316801F07001884204D2316823
:1051B00021F07001014331602078C0060AD5A06952
:1051C000316801F4E061884204D2316821F4E06181
:1051D00001433160207880060CD5E1695846DBF840
:1051E000002002F07002914204D2026822F07002A4
:1051F0000A43026000F09AF80E492A682B68C2F34D
:10520000032203F00F038A5CC95C02F01F0201F065
:105210001F01D040084A20FA01F1116007490860D7
:1052200007480068BDE8F05FFEF79ABD0020005215
:1052300018440258BC8E00082800002424000024D2
:105240001C00002470B5144C3F220260124A2468EE
:105250000832131D114D04F00704446016681C1D2C
:1052600006F470668660166806F00F06C66012685F
:1052700002F0700202611A6802F0700242611A685C
:1052800002F4E0628261226802F07002C261286862
:1052900000F00F00086070BD10440258002000525A
:1052A00030B500F043F80B4A0B490C4B15681468F5
:1052B000C5F3032204F00F048A5C095D02F01F02AB
:1052C00001F01F01D040064A20FA01F11960106078
:1052D000084630BD18440258BC8E0008280000243F
:1052E0002400002400B5FFF7DBFF05490968054AE3
:1052F000C1F30211515C01F01F01C84000BD000064
:105300001C440258BC8E000800B5FFF7C9FF0549D0
:105310000968054AC1F30221515C01F01F01C84030
:1053200000BD00001C440258BC8E0008454970B501
:1053300045480968434B103B11F0380208D0011171
:10534000082A03D0102A0BD0182A0BD0084670BDAB
:1053500019688906FBD51968C1F3C101C84070BD41
:105360003A4870BD3749374D18310C1D24350A684D
:10537000096826682D6802F0030406F00102C1F3F3
:105380000511C5F3CC0515FB02F200EE102AB8EEAC
:10539000400AE9B32F4ADFED2E0AB7EE001A6CB1CE
:1053A000DFED2D1A012C01D0022C43D002EE101A91
:1053B0001068F8EE422A81EEA22A1EE01C68A406BC
:1053C00011D51B6801EE901A1168C3F3C103F8EE02
:1053D000612AD84001EE900AC1F30800F8EE611A84
:1053E00081EEA22A0BE001EE901ADFED1C2A00BF2D
:1053F000F8EE611A106882EEA12AC0F3080001EEEF
:10540000900AF8EE611A40EE201A31EE810A00E0AF
:1054100015E022EE000A1068C0F34620401C00EEA2
:10542000900AF8EE600A80EE201ABCEEC10A10EE77
:10543000100A70BD01EE901ADFED092AD8E70020AE
:1054400070BD0000104402580090D00340787D01E8
:1054500000000039304402580024744A0024744C7F
:1054600020BCBE4B2DE9F05F04007DD0FF4F2078BB
:10547000FE4D1837DFF8F493103DC00748D0D9F837
:105480000000396800F03800102815D0182803D122
:1054900001F0030002280FD06068B0F5803F12D001
:1054A00010B1B0F5A02F18D0286820F48030286003
:1054B000286820F4802009E02868800328D56068E7
:1054C0000028D2D024E0286840F48030286060684A
:1054D00088B1FEF709FC064609E0286840F4802000
:1054E0002860F0E7FEF700FC801B64286FD828686E
:1054F0008003F7D50CE0FEF7F7FB064605E000BF9A
:10550000FEF7F2FB801B6428F0D828688003F7D4EC
:10551000207841F20308D54E0C3E800769D5D9F8B2
:105520000000396810F038000ED0182801D1880723
:105530000AD0E06890B3296821F01901014329607D
:10554000FEF7D2FB824631E02868400702D5E068CA
:1055500000288AD0E168286820F0190008432860F4
:10556000FEF7C2FB824607E0DFE000BFFEF7BCFBB0
:10557000A0EB0A000228B9D828684007F6D500BF7A
:10558000FEF7ACFB40451BD82069402812D031689B
:1055900021F47C3141EA003030602AE018E000BF9D
:1055A000FEF7A2FBA0EB0A0002289FD8286840075C
:1055B000F6D5E5E7306820F47C3040F40030EBE7C6
:1055C000207C316821F0FE4141EA0060E4E70DE112
:1055D000286820F001002860FEF786FB824605E07F
:1055E000FEF782FBA0EB0A0002288DD8286840074E
:1055F000F6D42078C0065DD5D9F80000DFF86CB28B
:10560000396800F03800ABF1040B082810D01828D6
:1056100003D101F0030001280AD0E06900282868BE
:1056200038D040F080002860FEF75EFB824623E021
:105630002868C00523D5E069802876D11FE0206A5C
:10564000202821D0316821F0F84141EA80603060A3
:1056500030E000BF94F82010DBF8002022F07C52EC
:1056600042EA0161CBF8001024E000BFFEF73CFBEA
:10567000A0EB0A00022898D82868C005F6D5FEF7E6
:105680002DFB4045E6D8DAE7306820F0F84040F0DE
:105690008040DCE720F080002860FEF725FB06460E
:1056A00005E000BFFEF720FB801B02289DD828687C
:1056B000C005F7D42078000729D56C4861696430AB
:1056C00000298046016811D041F001010160FEF718
:1056D0000BFB064605E000BFFEF706FB801B022819
:1056E000C9D8D8F800008007F6D510E021F00101F4
:1056F0000160FEF7F9FA064605E000BFFEF7F4FA8E
:10570000801B022872D8D8F800008007F6D42078D1
:10571000800623D5A0690028286810D040F4805066
:105720002860FEF7E1FA064605E036E1FEF7DCFA0E
:10573000801B02285AD828688004F7D50EE020F490
:1057400080502860FEF7D0FA064604E0FEF7CCFA57
:10575000801B02284AD828688004F7D420784007A4
:105760004FD5DFF80C81D8F8001041F48071C8F8EB
:105770000010FEF7B9FA064605E000BFFEF7B4FADE
:10578000801B642832D8D8F80000C005F6D5374E03
:10579000A068603601280AD008B1052813D0306807
:1057A00020F001003060306820F0040002E0306832
:1057B00040F001003060A06841F2883A90B1FEF7F5
:1057C00093FA80460AE0306840F004003060EEE76B
:1057D000FEF78AFAA0EB0801514507D83068800728
:1057E000F6D50EE0FEF780FA804607E084E000BFC1
:1057F000FEF77AFAA0EB080151457DD830688007A2
:10580000F6D4606AB0B3DFF86480D9F8001008F10C
:1058100020084FF6F87B08F10409C1F3C2010329FF
:10582000A8F1040A69D00228286820F08070286056
:1058300003D0FEF759FA044684E0FEF755FA06460F
:1058400005E000BFFEF750FA801B022877D82868D1
:105850008001F7D4E26A40F2F331386854F8283F07
:10586000884340EA02101843386004E010440258AC
:1058700000480258B5E0217B434622894FF4FE0CD4
:10588000208A4FF0FE474902267D521E401EA1F598
:105890000071C2F308088AB2761E0CEA004042EAA0
:1058A00008020243504607EA06610A431A60DAF822
:1058B000002022F00102CAF80020D9F80020266A50
:1058C00022EA0B0242EAC602C9F80020DAF8001008
:1058D000A26921F00C011143CAF800100168E269C5
:1058E00021F0020111430160016841F4803101603F
:1058F000016841F4003101E021E027E00160016826
:1059000041F480210160016841F0010101602868D3
:1059100040F080702860FEF7E7F9044605E000BF1C
:10592000FEF7E2F9001B022809D828688001F7D5A4
:1059300057E000BFFEF7D8F9001B022802D9032068
:10594000BDE8F09F28688001F4D44AE03968012856
:10595000D8F8000021D0A26A01F0030393421CD1C1
:10596000E26AC1F305118A4217D1216BC0F3080224
:10597000491E8A4211D1616BC0F34622491E9142F1
:105980000BD1A16BC0F30642491E914205D1E16BD8
:10599000C0F30660491E814201D00120D0E7A16C0E
:1059A0004E46D9F80000C0F3CC00814219D0DAF895
:1059B0000000554620F00100CAF80000FEF794F9F7
:1059C0004FEA0007FEF790F9B842FBD0A26C3068AE
:1059D00020EA0B0040EAC2003060286840F0010075
:1059E00028600020ACE77047704770472DE9F0430E
:1059F00090F83C20012A42D0012280F83C2051F846
:105A00000C4BDFF880804FF0000991E8680051E905
:105A1000022723F44073B1F80CC03B43CF6923F451
:105A200080631343026823F40063234323F4805309
:105A300043EA050323F4005343EA060323F48043B7
:105A400043EA07030C3923F47023424543EA0C432D
:105A500002D00D4CA2420CD18D8C23F47006D1E9FA
:105A6000073446EA055121F08071194321F0007393
:105A70002343536480F83C900020BDE8F08302206B
:105A8000FBE700000000014000040140F0B590F881
:105A90003C20012A3BD01F4E012480F83C400222CA
:105AA00080F83D2002681C4D5368B242D2F808C00D
:105AB00001D0AA4203D14F6823F470033B430F681F
:105AC00023F070031F4357600268B24213D0B2F153
:105AD000804F10D0114B9A420DD0114B9A420AD0F0
