:020000040800F2
:1000000070530024F90300082B5800086D510008B4
:10001000295800085D080008056700080000000076
:10002000000000000000000000000000390300088C
:10003000850A00080000000095030008755A0008B2
:100040001704000817040008170400081704000824
:100050001704000817040008170400081704000814
:100060001704000817040008870A0008170400088E
:1000700061080008170400081704000817040008A6
:1000800017040008170400084108000817040008B6
:100090001704000817040008170400088D0A000858
:1000A00017040008170400081704000817040008C4
:1000B00017040008170400081704000817040008B4
:1000C00017040008170400081704000817040008A4
:1000D0001704000817040008170400081704000894
:1000E00017040008170400080000000017040008A7
:1000F0001704000817040008170400081704000874
:100100001704000817040008170400081704000863
:100110001704000817040008315C00083D5C000863
:100120001704000817040008170400081704000843
:100130001704000817040008170400081704000833
:1001400000000000000000000000000000000000AF
:100150001704000817040008170400081704000813
:100160001704000817040008170400081704000803
:1001700017040008170400081704000817040008F3
:1001800017040008170400081704000817040008E3
:1001900017040008170400081704000817040008D3
:1001A00017040008170400081704000817040008C3
:1001B00017040008170400081704000817040008B3
:1001C00017040008170400081704000817040008A3
:1001D0001704000817040008170400081704000893
:1001E0001704000817040008170400081704000883
:1001F0001704000817040008170400081704000873
:100200001704000817040008170400081704000862
:100210001704000817040008170400081704000852
:100220001704000817040008170400080000000065
:100230001704000817040008000000001704000855
:100240001704000817040008170400081704000822
:100250001704000817040008170400081704000812
:100260001704000817040008170400081704000802
:100270001704000817040008170400080000000015
:100280001704000817040008170400080000000005
:10029000000000001704000800F002F800F03CF82D
:1002A0000AA090E8000C82448344AAF10107DA45D1
:1002B00001D100F031F8AFF2090EBAE80F0013F0E7
:1002C000010F18BFFB1A43F001031847507D0000CF
:1002D000707D0000103A24BF78C878C1FAD8520760
:1002E00024BF30C830C144BF04680C6070470000B0
:1002F0000023002400250026103A28BF78C1FBD82F
:10030000520728BF30C148BF0B6070471FB507F0C8
:1003100047FE1FBD10B510BD00F0D4F91146FFF720
:10032000F5FF06F001FA00F0F2F903B4FFF7F2FF6F
:1003300003BC00F0F9F900002C4B19680868B0E81C
:10034000F04F80F30988BFF36F8F4FF0000080F308
:10035000118870470000000008480068006880F3BA
:1003600008884FF0000080F3148862B661B6BFF3CE
:100370004F8FBFF36F8F00DF00BF00BF08ED00E0BD
:10038000DFF80C00016841F470010160704700BFA4
:1003900088ED00E0EFF30980BFF36F8F134B1A680D
:1003A0001EF0100F08BF20ED108A20E9F04F1060FA
:1003B00009B44FF0500080F31188BFF34F8FBFF3A3
:1003C0006F8F07F0B7F84FF0000080F3118809BC79
:1003D00019680868B0E8F04F1EF0100F08BFB0ECC5
:1003E000108A80F30988BFF36F8F70471C000024C8
:1003F000EFF30580704700000A4880470A488047AD
:100400000A480047FEE7FEE7FEE7FEE7FEE7FEE7F5
:10041000FEE7FEE7FEE7FEE705480649064A074B0A
:1004200070470000990A0008395B0008990200082B
:10043000704D002470530024704F0024704F00242E
:1004400053EA020C00F069802DE9F04B4FF00006F2
:10045000002B1FBFB3FA83F503FA05F424FA05F65F
:100460005E4012BF1643B2FA82F502FA05F4C5F1F6
:1004700020051EBF22FA05FC44EA0C04203556EA8A
:10048000044C4FEA144418BF641C4FF000084FF0AE
:100490000009904271EB030C39D3002919BFB1FA5E
:1004A00081F701FA07F6B0FA80F700FA07F6C7F10C
:1004B00020071EBF20FA07FC46EA0C062037B6FBD1
:1004C000F4FCA7EB0507103F07F01F0BCBF120064C
:1004D0000CFA0BFB2CFA06F644BFB3460026202F7D
:1004E000A4BF5E464FF0000B5BEA060C08BF4FF05E
:1004F000010B19EB0B09ABFB027C48EB0608C01B98
:1005000006FB02CC0BFB03CC71EB0C01C1E70B46E5
:10051000024641464846BDE8F08B13B54FF0000057
:100520004FF00001AFF30080BDE81C407047032A84
:1005300040F2308010F0030C00F0158011F8013B00
:10054000BCF1020F624498BF11F801CB00F8013BE7
:1005500038BF11F8013BA2F1040298BF00F801CBAB
:1005600038BF00F8013B11F0030300F05780083A50
:10057000C0F0088051F8043B083A51F804CBA0E8D9
:100580000810F5E7121D5CBF51F8043B40F8043B2E
:10059000AFF30080D20724BF11F8013B11F801CB63
:1005A00048BF11F8012B24BF00F8013B00F801CB34
:1005B00048BF00F8012B704702F0FF0343EA032213
:1005C00042EA024200F05EB84FF0000200B5134666
:1005D00094469646203922BFA0E80C50A0E80C5063
:1005E000B1F12001BFF4F7AF090728BFA0E80C5014
:1005F00048BF0CC05DF804EB890028BF40F8042B0D
:1006000008BF704748BF20F8022B11F0804F18BF79
:1006100000F8012B704770477047704710B5203ABB
:10062000C0F00B80B1E81850203AA0E81850B1E8AB
:100630001850A0E81850BFF4F5AF5FEA027C24BF61
:10064000B1E81850A0E8185044BF18C918C0BDE858
:1006500010405FEA827C24BF51F8043B40F8043B21
:1006600008BF7047D20728BF31F8023B48BF11F8D6
:10067000012B28BF20F8023B48BF00F8012B704730
:100680004FF000020429C0F0128010F0030C3FF478
:100690009DAFCCF1040CBCF1020F18BF00F8012B88
:1006A000A8BF20F8022BA1EB0C01FFF78FBF5FEA78
:1006B000C17C24BF00F8012B00F8012B48BF00F8D3
:1006C000012B7047754600F02BF8AE4605006946D1
:1006D000534620F00700854618B020B5FFF79CFE72
:1006E000BDE820404FF000064FF000074FF0000833
:1006F0004FF0000B21F00701AC46ACE8C009ACE8B4
:10070000C009ACE8C009ACE8C0098D46704710B517
:100710000446AFF300802046BDE81040FFF705BE59
:10072000004870470C4D002401491820ABBEFEE77D
:10073000260002007047000070B53A49054600687F
:10074000884202D0384A904202D1D1F8080302E030
:100750003648D0F8080310F4403F11D003F0B8FB3E
:1007600004466868B0F5803F06D0B0F5003F03D07E
:10077000B0F5403F27D101E0000C18E0A40822E0CA
:1007800000214FF4002002F00DFC0446686881034C
:10079000890B18D181140C2915D2DFE801F0140659
:1007A00006060606060B0D0F1113800C4000B4FB65
:1007B000F0F408E0240906E0640904E0A40902E07A
:1007C000E40900E0240A02F0A1F841F203018842A2
:1007D00008D8174884422868816813D821F48071AA
:1007E000816070BD13496008884204D82868816818
:1007F00021F44071F4E71049884206D828688168DE
:1008000021F4407141F48071EAE70C49884228687C
:10081000816804D821F4407141F40071E0E741F4AB
:100820004071DDE7002002400021024000600258D4
:10083000002D3101105E5F0020BCBE0040787D01BC
:10084000044810B500F0E0FEBDE81040024800F09A
:10085000DBBE00009C00002400010024FEE7000035
:10086000014801F0D3B9000064010024294A01685D
:1008700091423AD0274A1832914236D0254A303236
:10088000914232D0234A483291422ED0214A6032DE
:1008900091422AD01F4A7832914226D01D4A903286
:1008A000914222D01B4AA83291421ED01A4A91424C
:1008B0001BD0194A1832914217D0174A3032914250
:1008C00013D0154A483291420FD0134A60329142F8
:1008D0000BD0114A7832914207D00F4A90329142A0
:1008E00003D00D4AA832914211D1CAB21823103A4E
:1008F000B2FBF3F26FF30901032A02F00703074A80
:10090000D25CC26500D9091D81650846704721F097
:10091000FF01F9E71000024010040240D07F0008F8
:1009200030B5224A012301689142CAB21BD01F4C44
:100930001434A14217D01D4C2834A14213D01B4CB3
:100940003C34A1420FD0194C5034A1420BD0174C6B
:100950006434A14207D0154C7834A14203D0134C23
:100960008C34A1420CD11421114C083AB2FBF1F1A4
:100970000F4A803201F01F0504EB8101AB4010E00B
:100980000C4D1824103A0D44B2FBF4F1A82D00D8F8
:100990000831094A01F01F0402EB8101064AA34015
:1009A0008032603080E80E0030BD000008540258EC
:1009B00000580258F0FBFDBF0008024010B5027954
:1009C000531E072B2DD8174C0168A1421BD0154C84
:1009D0001434A14217D0134C2834A14213D0114C27
:1009E0003C34A1420FD00F4C5034A1420BD00D4CDF
:1009F0006434A14207D00B4C7834A14203D0094C97
:100A00008C34A14203D10849074C443102E0074924
:100A1000064C443104EB8202C0E91B2101219940BC
:100A2000416710BD08540258FC580258FC080240A7
:100A300010B583694FF0C074826A0146002053B13B
:100A4000B3F5005F15D072B1012A0CD0022A0AD08A
:100A5000032A09D104E01AB1012A06D0022A03D1DF
:100A6000C96AC90100D5012010BDC96AA142FAD0E6
:100A700010BD002AF7D0012AF2D0022AF3D0032AAF
:100A8000F3D010BD7047102001F017BE402001F0D8
:100A900014BE72B6FEE70000054805490839026831
:100AA00042F00202026008688004FCD57047000032
:100AB0000C48025870B50446006804F06AFB05460D
:100AC000206804F05EFB054301D0012070BD206862
:100AD000034AC168114041F00041C160002070BD6F
:100AE000FFFFDF7F704700002DE9F84F04464FF00D
:100AF000000BDFF8ECA30D46CDF800B05F4690F890
:100B000050205846F74EE168012A0BD0F64B4FF0C3
:100B1000010984F8509041B1296A012905D0226E5B
:100B2000F2B12AE00220BDE8F88F686809283CD1BC
:100B3000A96A4FF4785049B12A6801F07C0CE96A3F
:100B400000EA524040EA0C00084302E0296800EA4B
:100B500051402168CA6C1A400243CA64E06524E02F
:100B6000C4E917B1A96A286A31B1EA6A401E01F0E6
:100B70007C010843104300E0401E2968226E95F86E
:100B800004C0521E22660CF01F0CE26DC1F384619A
:100B900001FA0CF141EA000142EA0102E26504D1E6
:100BA0002068C16C19401143C164206804F0E9FA5F
:100BB000E8B9286800280DDB21680303CA6921D041
:100BC00090FAA0F0B0FA80F000F01F0309FA03F0E9
:100BD0000243CA6195F8250095F826100028206880
:100BE00013D0C26822F4401242EA4151C160206829
:100BF00004F0CFFA8046206804F0C3FA58EA0000F7
:100C00000DD0F6E0C0F38460DEE795F82420C368D9
:100C1000490541EA025123F440121143E6E7A86A6C
:100C200030B1E86A20B195F82500012836D003E0FC
:100C300095F82500012804D02068C16821F00071D2
:100C400003E02068C16841F00071C16095F8300090
:100C5000012829D02068016921F0020101612A6878
:100C6000042320684FF0070CA96803EAD253184404
:100C70004369C2F304520CFA02FC914023EA0C03CC
:100C80000B434361994909682068B9EB117F1BD177
:100C90006B69C068C0F3820040001DE0606D0127F1
:100CA00040F020006065D1E72168AB8E904ADFF804
:100CB00044C20869D5F838800CEB03431040184350
:100CC00040EA08000861CAE7C168C068C9066B69E4
:100CD000E0D500F01000400829698340042914D0B1
:100CE0002A68206804F061FA297F226828690129AE
:100CF00008D0002102EB8000026E22F000420A437D
:100D0000026676E04FF00041F4E72068002104F02D
:100D10002EFA000320684FF0000172D004F027FA89
:100D200090FAA0F0B0FA80F02A6811036ED092FA1F
:100D3000A2F1B1FA81F1884204D10023206819465A
:100D400004F033FA2068012104F011FA000320684E
:100D50004FF001015DD004F00AFA90FAA0F0B0FA69
:100D600080F02A68110359D092FAA2F1B1FA81F108
:100D7000884204D120680023012104F016FA20687B
:100D8000022104F0F4F9000320684FF0020148D07A
:100D900004F0EDF990FAA0F0B0FA80F02A6811039F
:100DA00044D092FAA2F1B1FA81F1884204D12068CC
:100DB0000023032104F0F9F92068032104F0D7F996
:100DC000000320684FF0030133D004F0D0F990FA0B
:100DD000A0F0B0FA80F02A6811032FD092FAA2F1A5
:100DE000B1FA81F1884204D120680023032104F084
:100DF000DCF92068816811F0010F22D0E3E000E007
:100E000004E004F0B4F9C0F384608DE7C2F38461B8
:100E100091E704F0ACF9C0F38460A2E7C2F3846107
:100E2000A6E704F0A4F9C0F38460B7E7C2F38461D5
:100E3000BBE704F09CF9C0F38460CCE7C2F38461A3
:100E4000D0E750F8C02F2B7BDFF8ACC0296803F047
:100E500018032CFA03FCC1F3130822EA08020CEA77
:100E6000010C42EA0C0202602448E96881426FD119
:100E70002348DFF890C02268DFF88CE024498242E2
:100E800022484FEA4C08134622D12A68624524D0F2
:100E900042454BD0A2F1496CBCF1080C56D0A2F1EE
:100EA000865CBCF1100C54D072454DD0DFF864C0A4
:100EB00062455DD0824254D08A4256D01648824262
:100EC00001D1164854E01648824250D115484FE0EF
:100ED000B2424CD12A68624526D1012048E0000088
:100EE0000060025800210240004010040010005C25
:100EF0001DFE00FC0200FFFFFFFF0F000000FF4788
:100F000000200240020030042000F0140008302EBF
:100F1000001060320004002A000021430000524704
:100F20000000844B0000B84F424501D153481FE0F8
:100F3000A2F1496CBCF1080C08D0A2F1865CBCF1AE
:100F4000100C06D0724506D14D4811E04D480FE017
:100F50001CE04D480CE0DFF834C1624508D0824205
:100F600001D1084604E08A42ADD1494800E00020A2
:100F7000D96902031BD090FAA0F0B0FA80F000BF4C
:100F800000F01F0209FA02F00143D9612D68002D1B
:100F900019DA404B2068984201D0B04209D19968D3
:100FA000B26801F0010102F00102114305E0800E78
:100FB000E6E7DAF8081001F0010141B1606D0127A0
:100FC00040F020006065384684F850B0ABE5324A06
:100FD0009842DFF8C8C001D0B04201D1114600E00C
:100FE00061468968DFF8B88001F0E07145451DD1A0
:100FF0005FEA01281AD45045E5D1984202D0B042A8
:1010000000D06246936841F4000023F0E071014390
:101010009160254923480968B1FBF0F04000801C2D
:1010200000E0401E00900028FBD1CCE7DFF87C8078
:1010300045450DD15FEAC1180AD45045C3D1984245
:1010400002D0B04200D06246936841F080700FE059
:10105000DFF85C804545B6D14D02B4D45045B2D1DD
:10106000984202D0B04200D06246936841F48000BA
:1010700023F0E07101439160A5E7000040002019D2
:101080000002B0258000501D000180210004002ACC
:1010900000209036002002400023024000630258E6
:1010A000000084CB400D030014000024000052C750
:1010B0000000B8CF70477047704770472DE9F04780
:1010C0000F4690F850109AB0044601294FF00009DD
:1010D00015D00026DFF8F880012084F8500015961E
:1010E0001696216841450ED13A4D0095284604F0E8
:1010F00050F88246206804F04CF860B10EE00220FF
:101100001AB0BDE8F087606D84F8506040F02000B0
:1011100060650120F4E7BAF1000F09D0616D4FF06E
:10112000010941F020006065484684F85060E7E717
:1011300020684146884201D0A84201D1264800E0FB
:10114000264840F61F72D7F800C0254BBCF1000FAF
:1011500023D0D0F808C0D7F804802CF4404C4CEAD7
:10116000080CC0F808C0D4F800C08C4501D0AC45CC
:1011700007D18968AB6801F0010103F0010319434D
:1011800002E0996801F001010029CDD1BD683968FC
:10119000836829439343194317E0876827F440473E
:1011A000876027688F4201D0AF4207D18968AB685A
:1011B00001F0010103F00103194302E0996801F015
:1011C00001010029B0D1816891438160ACE7000042
:1011D0000020024000210240002302400063025828
:1011E000006002582DE9F84F0446EB4E0020DFF86E
:1011F000ACB30090002794F850000D46DFF8A0A390
:10120000012808D04FF0010984F85090206803F0BD
:10121000BCFF18B171E10220BDE8F88F28680028F2
:101220000EDB21680303CA6928D090FAA0F0B0FA57
:1012300080F000BF00F01F0309FA03F00243CA6107
:10124000D5E900124FF00C0C20681F23C1F3846114
:101250000CEA921C02F01F02604493409140026B22
:101260009A430A430263206803F08FFF8046206898
:1012700003F083FF58EA000003D08DE0C0F38460E0
:10128000D8E72A68042320684FF0070CA96803EA0E
:10129000D25318444369C2F304520CFA02FC914041
:1012A00023EA0C030B434361BE490968B9EB117F84
:1012B00006D121686869C968C1F38201490008E064
:1012C0002068C168C906C1686869F5D501F01001D8
:1012D00049088840296904292ED023682A6803EB2D
:1012E000810102F0F8420B6E024303F0004010430C
:1012F0000866697E22682869012917D05FF000011D
:1013000002EB8000026E22F000420A430266297E50
:1013100020682A6901290CD00021036902F01F020C
:10132000914023F4F0420A43026135E04FF000415E
:10133000E6E74FF40061F0E720682978026E02F0DA
:10134000F842B2EB816F03D1016E21F000410166DA
:1013500020682978426E02F0F842B2EB816F03D127
:10136000416E21F00041416620682978826E02F0CA
:10137000F842B2EB816F03D1816E21F000418166AA
:1013800020682978C26E02F0F842B2EB816F03D177
:10139000C16E21F00041C1662068816811F0010F23
:1013A00072D150F8C03F2A7BDFF8FCC1296802F0F7
:1013B00018022CFA02FCC1F3130823EA08030CEA12
:1013C000010C43EA0C030360E96859456CD1774886
:1013D0002268DFF8DCC1DFF8DCB18242DFF8D8E157
:1013E0007648774BDFF8DC8122D12968614524D02B
:1013F000B1EB4C0C38D0A1F1496CBCF1080C35D0E4
:10140000A1F1865CBCF1100C32D0DFF8BCC16145A3
:1014100028D071453AD0814230D0994232D06B48C1
:10142000814201D16A4831E041452ED169482DE021
:10143000B2422AD12968614501D1012026E0A1F1FB
:10144000066CBCF1040C0FD0A1F1496CBCF1080C86
:101450000CD0A1F1865CBCF1100C09D0DFF868C19A
:10146000614507D15C4811E058460FE05B480DE04C
:101470005B480BE0714509D0814201D1184605E077
:101480009942D1D1574801E03CE00020D1690303E3
:101490001AD090FAA0F0B0FA80F000BF00F01F035D
:1014A00009FA03F00143D161D5F800C0BCF1000F87
:1014B00028DA3E4B20684C49DFF83091984201D041
:1014C000B04203D10A4602E0800EE7E74A4692683E
:1014D000984202F0E07201D0B04209D19D68D6F87E
:1014E000088005F0010508F0010845EA080503E059
:1014F000DAF8085005F001054DB1606D012740F0A4
:1015000020006065002084F85000384684E6384D9D
:10151000AC451CD115021AD45045F3D1984202D0E3
:10152000B04200D049468B6842F4000023F0E072DC
:1015300002438A6030492F480968B1FBF0F040004F
:10154000801C00E0401E00900028FBD1DAE72B4D04
:10155000AC450CD1D5010AD45045D3D1984202D024
:10156000B04200D049468B6842F080700EE0244DB6
:10157000AC45C7D15502C5D45045C3D1984202D01D
:10158000B04200D049468B6842F4800023F0E072FC
:1015900002438A60B6E70000002102400000FF47D6
:1015A000006002580010005CFFFF0F0000200240A6
:1015B00002003004400020190004002A0008302EE8
:1015C000001060320000844B2000F0140000214322
:1015D000000052470000B84F0002B0258000501DA7
:1015E0000001802100209036002302400063025851
:1015F000000084CB400D030014000024000052C7FB
:101600000000B8CF704770472DE9F05F04460068CE
:1016100006684568DFF87082DFF870B2DFF8709214
:10162000404501D0484501D1584600E099488068BE
:1016300000F01F07B0070ED5A8070CD5606DC006D7
:1016400003D4606D40F4006060652046FFF74AFAFD
:10165000216802200860700701D5680703D43007AD
:1016600037D5280735D5606DC00603D4606D40F4CA
:1016700000706065206803F090FD20B32068484545
:1016800001D1424600E00246824208D03FB1052F18
:1016900005D0092F03D0484503D1414602E0C16877
:1016A00001E00146C96889040DD4016809070AD51B
:1016B00003F06BFD58B3606D40F010006065A06DE5
:1016C00040F00100A0652046FFF79CFF21680C2038
:1016D0000860B00601D5A80603D4700658D5680680
:1016E00056D5606DC00603D4606D40F4005060654F
:1016F0002068C16C11F4C07F1AD000218A4603F023
:101700004CFD02462068484514D1434613E020684A
:10171000416821F00C014160606D20F480706065CB
:10172000606DC004CFD4606D40F001006065CAE711
:101730000121E3E70346834208D03FB1062F05D0DD
:10174000072F03D0484503D1414602E0C16801E0BC
:101750000146C968BAF1000F14D08B0102D58AB1D5
:101760008A040FD4026852060CD589020AD403F009
:1017700004FDE8B3606D40F010006065A06D40F0BE
:101780000100A0652046FFF795FC216860200860F5
:1017900030060BD5280609D5606D40F480306065B1
:1017A000204600F08DF9216880200860F0050CD5F6
:1017B000E8050AD5606D40F4003060652046FFF70B
:1017C0007BFC21684FF480700860B0050CD5A8053B
:1017D0000AD5606D40F4802060652046FFF76DFCFF
:1017E00021684FF400700860F00631D5E80600E08B
:1017F0000AE02DD5206BE8B12068EFB3404501D059
:10180000484512D1584611E02068416821F0600136
:101810004160606D20F480506065606DC005B1D49A
:10182000606D40F001006065ACE71A48806800F424
:10183000404050B1606D40F480606065A06D40F044
:101840000200A0652046FFF7DEFE21681020086038
:10185000700517D5680515D5616D4FF4806041F4AA
:1018600080416165A16D41F00801A16521680860B2
:101870002046BDE8F05F00E001E0FFF71CBCC06857
:101880008007D6E7BDE8F09F002002400023024019
:101890000021024000630258F8B54FF00006040032
:1018A0003546009602D0606D10B107E00120F8BD0A
:1018B000204600F007F9A66584F85060206881682A
:1018C000C1F3407119B18168704A1140816020688C
:1018D0008168C1F3007181B981686D4A114041F09E
:1018E000805181606C496B480968B1FBF0F0401C85
:1018F00000E0401E00900028FBD120688168C1F301
:10190000007141B9616D012541F010016165A16D62
:1019100041F00101A16503F038FC616DC90600D4F6
:1019200020B1606D012540F0100093E0606D20F45F
:10193000807040F0020060652068816811F0010F3E
:101940001FD1564A564B904201D0984207D1916818
:101950009E6801F0010106F00106314303E05149A0
:10196000896801F0010161B9904201D0984201D12A
:101970004D4800E04D488268616822F47C120A43B9
:10198000826000F0C3FF41F20301884202D9A068DF
:1019900010280CD0617D227FA368206B490341EAA7
:1019A000024118430843217F01290CD010E0607DDB
:1019B000227F216B400340EA024241F010001043B5
:1019C00040F00C00EFE7218C394A02EB414108431B
:1019D000616A29B1A26A01F47871014342EA010007
:1019E0002168344BCA681A400243CA60206803F079
:1019F000CCFB0646206803F0C0FB30431DD12168B4
:101A000044F20303267DE26AC86842EA86329843BC
:101A10001043C86094F8380001281ED0206801697E
:101A200021F0010101612068626B016921F07041C0
:101A3000114301612046FEF77FFEE068012820681F
:101A40001CD0016B21F00F010163606D20F00200DA
:101A500040F0010060652846F8BD2068A28F164F4F
:101A6000D4E9101C154E07EB0247A36C026941EA4A
:101A70000C013B43324019431143D3E7A269016B88
:101A8000521E21F00F011143DEE70000C0FFFF5F8F
:101A9000C0FFFF7F400D030014000024002002401F
:101AA00000210240006002580023024000630258F7
:101AB0000000FEFF03C0F0FF0100FFFF1EF800FC66
:101AC000704700002DE9F04387B0064614216846B0
:101AD000FEF77AFD464B002544480324DFF81481C5
:101AE000D6F800C008301968404AC445424F01F199
:101AF0000101DFF8089142D10129196007D111686D
:101B000041F020011160116801F020010591016888
:101B100041F004010160016801F0040105910168D0
:101B200041F0010101600068694600F00100059084
:101B300013208DE83100384600F0CCFD14206946B2
:101B40008DE83100484600F0C5FD2D4C09212D4897
:101B50004FF4807C021584E82300D700C4E90352C7
:101B6000C3142046C4E907C56562C4E9053700F01F
:101B7000C1FB08B1FEF78DFFF464A6632BE0224E93
:101B8000B44530D10129196007D1116841F0200115
:101B90001160116801F020010591016841F0010117
:101BA0000160016801F001010591016841F0040143
:101BB00001600068694600F00400059048208DE847
:101BC0003100484600F086FD202069468DE831004E
:101BD000384600F07FFD00220221122000F08CFF29
:101BE000122000F07BFF07B0BDE8F083D844025814
:101BF000040000240020024000080258000002589F
:101C00006401002428000240002102402DE9FC5F0D
:101C10000446F74E0020DFF8D88300904FF41652A8
:101C2000F44808F11808A56DDFF8C493DFF8C0A3E5
:101C3000016809F1300920680AF1480AB1FBF2F1A4
:101C4000B04201912F68D5F800C0DFF8ACB335D0B1
:101C50004146884232D0484530D050452ED0584574
:101C60002CD0E5491831884228D0E34930318842E8
:101C700024D0E1494831884220D0E04988421DD033
:101C8000DE491831884219D0DC493031884215D0FC
:101C9000DA494831884211D0DFF860E30EF1600E76
:101CA00070450BD0D54A7832904207D0D34B903351
:101CB000984203D0D149A83188427DD194F85C2064
:101CC000082102F01F0201FA02F23A424AD0B04261
:101CD00032D0404530D048452ED050452CD05845C4
:101CE0002AD0C54A1832904226D0C34A3032904298
:101CF00022D0C14A483290421ED0C04A90421BD0E6
:101D0000BE4A1832904217D0BC4A3032904213D0AB
:101D1000BA4A483290420FD0B84A603290420BD053
:101D2000B64A7832904207D0B44A9032904203D0FB
:101D3000B24AA832904203D1026802F0040202E0E3
:101D4000026802F008026AB1026822F0040202602E
:101D500094F85C0000F01F008140A960606D40F0C5
:101D60000100606594F85C00012100F01F008140D3
:101D7000394240D02068B04234D0404532D0484546
:101D800030D050452ED058452CD09B4A1832904226
:101D900028D0994A3032904224D0974A4832904213
:101DA00020D0964A90421DD0944A1832904219D0C1
:101DB000924A3032904200E0AFE113D08F4A48326D
:101DC00090420FD08D4A603290420BD08B4A7832CD
:101DD000904207D0894A9032904203D0874AA83275
:101DE00090427DD1406910F0800F04D0A960606DF1
:101DF00040F00200606594F85C00042100F01F00D0
:101E0000814039423ED02068B04232D0404530D087
:101E100048452ED050452CD058452AD0764A183205
:101E2000904226D0744A3032904222D0724A4832D0
:101E300090421ED0714A90421BD0704A1832904294
:101E400017D06E4A3032904213D06C4A48329042DA
:101E50000FD06A4A603290420BD0684A7832904282
:101E600007D0664A9032904203D0644AA83290422A
:101E70004ED1006810F0020F04D0A960606D40F0F0
:101E80000400606594F85C00102100F01F008140A0
:101E9000394258D02068B04234D0404532D048450D
:101EA00030D050452ED058452CD0534A183290424D
:101EB00028D0514A3032904224D04F4A4832904282
:101EC00020D04E4A90421DD04C4A1832904219D030
:101ED0004A4A3032904215D0484A4832904200E097
:101EE00014E00FD0454A603290420BD0434A78321A
:101EF000904207D0414A9032904203D03F4AA832E4
:101F0000904207D1006800F0080006E0006872E720
:101F10000068B7E7006800F00400A0B1A96020687D
:101F20000168490304D50068000308D5A16C07E0E7
:101F30000168C90503D4016821F008010160216C22
:101F400009B12046884794F85C00202100F01F006A
:101F50008140394279D02068B04232D0404530D0FB
:101F600048452ED050452CD058452AD0224A183208
:101F7000904226D0204A3032904222D01E4A483227
:101F800090421ED01D4A90421BD01C4A18329042EB
:101F900017D01A4A3032904213D0184A4832904231
:101FA0000FD0164A603290420BD0144A78329042D9
:101FB00007D0124A9032904203D0104AA832904281
:101FC00003D1006800F0100002E0006800F0020099
:101FD000B0B3A96094F835000428206801680FD0D8
:101FE00049037ED5006800032BD4616C2AE0000011
:101FF000100002401400002470000240100402404F
:1020000021F0160101602068416921F080014161E1
:10201000206C08B9A06C20B12068016821F008018B
:10202000016094F85C303F21012003F01F0300227F
:102030009940A96084F8350084F83420216D65E06A
:1020400003E0E16B09B120468847606D00287DD030
:10205000606DC00759D02068042184F83510B04263
:102060002BD0404529D0484527D0504525D058454C
:1020700023D09D49884220D09B49183188421CD0EA
:1020800099493031884218D09849884215D09749EB
:102090001831884211D09549303188420DD093498A
:1020A0004831884209D091496031884205D08F4932
:1020B0007831884201D08D499031016821F00101C9
:1020C000016020680099019A491C0091914202D850
:1020D0000168C907F6D10068C00710D003200FE0DF
:1020E000FFE70168C905ACD403680121002223F091
:1020F0001003036084F8351084F83420A1E7012030
:1021000084F83500002084F83400E16C00291DD0EB
:1021100002B02046BDE8F05F0847754988421DD0EF
:1021200073491431884219D071492831884215D039
:102130006F493C31884211D06D49503188420DD0F1
:102140006B496431884209D0694900E084E0783104
:10215000884203D066498C3188427DD194F85C80F6
:102160000427016808F01F0807FA08F717EA0C0FA0
:10217000009746D04F0744D500980F04686003D5F8
:10218000C8033CD4A16CC1E7880638D42068B042AB
:102190002DD055496039884229D0484527D050452F
:1021A00025D0584523D05049884220D04E49183177
:1021B00088421CD04C493031884218D04B49884263
:1021C00015D04A491831884211D0484930318842E7
:1021D0000DD046494831884209D0704507D0904219
:1021E00005D0984203D04149A831884203D1016803
:1021F00021F0080102E0016821F004010160216C76
:1022000084E7022707FA08F717EA0C0F00974ED069
:102210008F074CD500980F04686003D5C80344D4D9
:10222000616C73E7880640D42068B0422FD02E49F5
:10223000603988422BD0484529D0504527D0584591
:1022400025D02949884222D02749183188421ED0FA
:1022500025493031884200E044E018D023498842C3
:1022600015D022491831884211D020493031884296
:102270000DD01E494831884209D0704507D09042A0
:1022800005D0984203D01949A831884203D101688A
:1022900021F0140102E0016821F00A01016001212E
:1022A00084F83510002084F83400E16B2EE7082212
:1022B00002FA08F212EA0C0F14D0090712D50168CD
:1022C00021F00E01016094F85C100120002201F061
:1022D0001F0100FA01F16960606584F8350084F837
:1022E000342012E7BDE8FC9F880002401004024041
:1022F000085402582DE9F05F044600F00DFB002C55
:1023000007467DD0E34E022120684FF00308DFF836
:1023100088934FF00005DFF884A3B042DFF880B364
:1023200034D0DC4A1832904230D048452ED0504547
:102330002CD058452AD0DA4A1832904226D0D84AB2
:102340003032904222D0D64A483290421ED0D54AEE
:1023500090421BD0D34A1832904217D0D14A303223
:10236000904213D0CF4A483290420FD0CD4A6032CB
:1023700090420BD0CB4A7832904207D0C94A903273
:10238000904203D0C74AA83290427DD184F83510DC
:10239000B04284F834502ED0BE49183188422AD039
:1023A000484528D0504526D0584524D0BC4918313E
:1023B000884220D0BA49303188421CD0B8494831CF
:1023C000884218D0B749884215D0B649183188429A
:1023D00011D0B449303188420DD0B24948318842D9
:1023E00009D0B0496031884205D0AE497831884281
:1023F00001D0AC499031016821F00101016008E091
:1024000027E100BF00F088FAC01B052801D9202170
:102410001CE120680068C007F4D104F108002168BD
:10242000D4E9053C8E4685C809681043D4E90728DD
:102430001F43636A38439C4F40EA0C001043394005
:1024400040EA0800042B40EA010003D1D4E90B1252
:1024500011430843954909686FF30F01B1F1005F1B
:102460000FD36168A1F12902052A08D9163A032A77
:1024700005D9083A012A02D94F39032901D840F475
:102480008010CEF8000000E023E02068676A406911
:10249000042F20F0070047EA00070DD1D4E90A0114
:1024A000074349B12046FEF7C3FA28B140206065D2
:1024B000012184F83510CCE0206847612046FEF702
:1024C000D5F994F85C203F2102F01F029140816011
:1024D00054E0774A90421BD0754B1433984217D082
:1024E000734B2833984213D0714B3C3398420FD032
:1024F0006F4B503398420BD06D4B6433984207D0EA
:102500006B4B7833984203D0694B8C3398427DD122
:1025100084F8351084F83450664B0168A26801EAEB
:10252000030E402A73D0802A72D00022D4E90378A7
:10253000D4E9053142EAD70242EAD8085C4AD4E934
:10254000077C48EAD30848EAD10141EAD701524260
:1025500041EA1C11142341EA0E0101602068104475
:10256000B0FBF3F08000E0652046FEF77FF994F8B9
:102570005C20012102F01F02914041602068B042BE
:1025800057D044491831884253D0484551D050451E
:102590004FD058454DD042491831884249D0404922
:1025A0003031884245D03E494831884241D03D498A
:1025B00088423ED03B49183188423AD039493031BF
:1025C000884236D037494831884232D03549603167
:1025D00088422ED03349783188422AD0314990310F
:1025E000884226D02F49A831884222D030498842DB
:1025F0001FD02F49143188421BD02D4928318842E1
:1026000017D02B493C31884213D002E01DE017E07F
:1026100018E02749503188420BD02549643188425F
:1026200007D023497831884203D021498C31884230
:1026300029D12046FEF774F9A06880280CD00CE060
:10264000102273E74FF4804270E74021616584F8FF
:1026500035800120BDE8F09F6560216E207908601B
:10266000D4E9190141606068401E072808D8204657
:10267000FEF7A4F9E06E0560D4E91C01416002E0B8
:10268000E566256765670120656584F835000020EB
:10269000E0E7000010000240400002405800024005
:1026A00070000240100402403F8010FE0010005CE9
:1026B000085402580F00FEFF70474FF0B04110B5AC
:1026C000D1F88820024203D0C1F88800FFF7F4FF58
:1026D00010BD00002DE9F84F03247D4D00234FF07D
:1026E00001094FF0B04B4FF00F0AE9E009FA03F788
:1026F0003A4076D00E7906F00306012E01D0022E64
:1027000018D1D0F808C04FEA430ECE6804FA0EF88C
:102710002CEA080C06FA0EF646EA0C068660D0F89B
:1027200004C00E792CEA070CC6F300169E4046EA58
:102730000C0646600E79F643B6070BD0C6684FEA22
:1027400043088F6804FA08FC26EA0C0607FA08F723
:102750003743C7600E7906F00306022E12D1DE0859
:102760000F694FEA437C00EB8606B646366A4FEAAD
:10277000DC6C0AFA0CF807FA0CF726EA080637436D
:10278000CEF820700F7906684FEA430807F0030778
:1027900004FA08FC07FA08F726EA0C063743076034
:1027A0004E6816F4403F1CD04A4E376847F0020787
:1027B000376036689F0706F00206009623F003068E
:1027C00006F1B046B6463F0FD6F80864DFF8088138
:1027D0000AFA07FC404526EA0C0603D14FF0000C2C
:1027E00041E06CE0DFF8F4C0604502D14FF0010C2D
:1027F00039E0DFF8ECC0604502D14FF0020C32E066
:10280000DFF8E0C0604502D14FF0030C2BE0DFF8A9
:10281000D8C0604502D14FF0040C24E0DFF8CCC0F2
:10282000604502D14FF0050C1DE0DFF8C4C06045E3
:1028300002D14FF0060C16E0DFF8B8C0604502D1B7
:102840004FF0070C0FE0DFF8B0C0604502D14FF049
:10285000080C08E0DFF8A4C0604502D14FF0090C75
:1028600001E04FF00A0C0CFA07FC4CEA060CCEF81B
:1028700008C44F68DBF80060FF0226EA020600D5B4
:1028800016435F46CBF80060D1F804C0DBF8046063
:102890005FEA8C2C26EA020600D516437E606E683D
:1028A0004F6826EA0206BF0300D516436E602E6805
:1028B0004F6826EA0206FF0300D516432E605B1C14
:1028C0000A6832FA03F67FF411AFBDE8F88F000012
:1028D00080000058F44402580000025800040258D6
:1028E00000080258000C0258001002580014025848
:1028F00000180258001C02580020025800240258F8
:102900000AB1816170470904FBE7000001480068D3
:10291000000C70470010005C0148806870470000A0
:1029200008000024024881680278114481607047E1
:1029300008000024032010B500F0FEF801F00EFBA3
:102940000F4A104914681368C4F3032203F00F03FD
:102950008A5CC95C02F01F0201F01F01D0400A4AE4
:1029600020FA01F11160094908600F2000F010F809
:1029700008B1012010BD00F09FF8002010BD00003C
:102980001844025800800008180000241400002495
:1029900010B5102804468AB02CD2002201463620F9
:1029A00000F0AAF8362000F099F81748046017489C
:1029B000016841F010010160006809A900F01000F1
:1029C0000890684601F056FA0598B0B101F0A2FAF5
:1029D00040000F4900220F4CB0FBF1F10E4840F2CD
:1029E000E7330460C0E90332491EC0E9011201F077
:1029F000B7FE28B101200AB010BD01F08BFAE8E75C
:102A0000054801F00BFFF6E70C000024E8440258EB
:102A100040420F0000100040EC030024154BF0B5BD
:102A2000083B427813491A600B680A1F23F0010320
:102A30000B6043681360057BC67A827A437B2D075F
:102A4000847B45EA0665C77B90F809C0067A90F852
:102A500000E045EAC24040EA834040EA444040EAA0
:102A6000074040EA0C2040EA460040EA0E000860B9
:102A7000F0BD0000A0ED00E0BFF35F8F044800212F
:102A80000368034A23F48033036070321160704797
:102A900024ED00E0074A40F0010006497032106062
:102AA000086840F480300860BFF34F8FBFF36F8F2A
:102AB0007047000024ED00E0074882B0016841F053
:102AC00002010160006800220F2100F00200009066
:102AD000901E02B000F010B8F4440258002809DB40
:102AE000410900F01F028900012001F1E02190401E
:102AF000C1F80001704700000E4BF0B41B680D4692
:102B0000C3F30223C3F10706042E00D90426191DBE
:102B1000072901D2002300E0DB1E012404FA06F19C
:102B20009C40491E2940641E994014402143F0BC3A
:102B300003F0E9BD0CED00E0064900F0070210B516
:102B40004FF6FF040868044B204040EA0220184377
:102B5000086010BD0CED00E00000FA05134970B5E7
:102B60000A68D243520705D5096801F0070181427E
:102B700013D118E00A6822F0070202430A60FFF747
:102B8000CBFE0A4D4FF47A760446083D07E000BFBD
:102B9000FFF7C2FE001BB04201D9012070BD2868BA
:102BA000C0438004F4D4002070BD00000C480258DB
:102BB00010B501F08DF905490968054AC1F3021104
:102BC000515C01F01F01C84010BD000020440258B4
:102BD000008000084A4930B5494C0B1D0A680C3486
:102BE00009681D68246802F0030305F00102C1F3BF
:102BF0000511C4F3CC04002914FB02F200EE102AE4
:102C0000F8EE400A76D0414A9FED3E1ADFED3E1ABB
:102C1000B7EE000A23B1012B5AD0022B18D15CE089
:102C2000374C283C23689B0612D5394B246801EEAB
:102C3000901A1168C4F3C104F8EE612AE34001EE72
:102C4000903AC1F30801F8EE611A81EEA22A07E07A
:102C500002EE101A1168F8EE422A81EEA22A45E02F
:102C600001EE901A1168F8EE611A40EE811A71EEC9
:102C7000800A62EE200AC1F3462101EE101AB8EE76
:102C8000411A31EE001AC0EE811ABCEEE11A80ED55
:102C9000001A1168C1F3064101EE101AB8EE411A8C
:102CA00031EE001AC0EE811ABCEEE11A80ED011A75
:102CB0001168C1F3066101EE101AB8EE411A31EE47
:102CC000000A80EE801ABCEEC10A80ED020A30BD17
:102CD00001EE901ADFED0F2A03E001EE901ADFED0E
:102CE0000E2A1168F8EE611A82EEA12AC1F30801DA
:102CF000B6E7FFE7002101604160816030BD000060
:102D000028440258000000390024744C3044025812
:102D10000090D0030024744A20BCBE4B494930B512
:102D2000484C0B1D0A68143409681D68246802F0B9
:102D30000303C5F30012C1F30531C4F3CC04002929
:102D400014FB02F200EE102AF8EE400A75D03F4A5A
:102D50009FED3D1AB7EE000A6BB1DFED3D1A012B76
:102D600001D0022B64D002EE101A1168F8EE422A4C
:102D700081EEA22A21E0334C283C23689B0612D521
:102D8000344B246801EE901A1168C4F3C104F8EEC4
:102D9000612AE34001EE903AC1F30801F8EE611AAE
:102DA00081EEA22A0BE001EE901ADFED2B2A00BF84
:102DB000F8EE611A116882EEA12AC1F3080101EE52
:102DC000901A1168F8EE611A40EE811A71EE800ACD
:102DD00062EE200AC1F3462101EE101AB8EE411A44
:102DE00031EE001AC0EE811ABCEEE11A80ED001A35
:102DF0001168C1F3064101EE101AB8EE411A31EE26
:102E0000001AC0EE811ABCEEE11A80ED011A1168B9
:102E1000C1F3066101EE101AB8EE411A31EE000A54
:102E200080EE801ABCEEC10A80ED020A30BD04E0DB
:102E300001EE901ADFED092ABAE700210160416036
:102E40008160F3E7284402580000003938440258F2
:102E50000024744A0090D0030024744C20BCBE4B64
:102E6000494930B5484C0B1D0A681C3409681D6877
:102E7000246802F00303C5F30022C1F30551C4F333
:102E8000CC04002914FB02F200EE102AF8EE400AEE
:102E900075D03F4A9FED3D1AB7EE000A6BB1DFEDEA
:102EA0003D1A012B01D0022B64D002EE101A1168DA
:102EB000F8EE422A81EEA22A21E0334C283C236816
:102EC0009B0612D5344B246801EE901A1168C4F3A6
:102ED000C104F8EE612AE34001EE903AC1F3080123
:102EE000F8EE611A81EEA22A0BE001EE901ADFEDF6
:102EF0002B2A00BFF8EE611A116882EEA12AC1F3F5
:102F0000080101EE901A1168F8EE611A40EE811A7C
:102F100071EE800A62EE200AC1F3462101EE101A1A
:102F2000B8EE411A31EE001AC0EE811ABCEEE11A79
:102F300080ED001A1168C1F3064101EE101AB8EED7
:102F4000411A31EE001AC0EE811ABCEEE11A80ED92
:102F5000011A1168C1F3066101EE101AB8EE411AA8
:102F600031EE000A80EE801ABCEEC10A80ED020A42
:102F700030BD04E001EE901ADFED092ABAE7002126
:102F8000016041608160F3E7284402580000003985
:102F9000404402580024744A0090D0030024744C2A
:102FA00020BCBE4B2DE9F04FAC4A0546DFF8A8A285
:102FB00080F48070DFF8AC9289B01311AA4C0843FA
:102FC000A748AAF104064FF0805C4FF000582CD0BF
:102FD00085F400770F4357D0DFF87CB285F4806723
:102FE0000F430BF1080B61D085F400670F4374D0D9
:102FF00085F480570F436ED085F400570F434FF48C
:1030000080394FF4003E67D085F400270F4371D01C
:1030100085F480370F436ED085F480460E436BD025
:1030200085F400420A4368D02AE0DAF8001001F083
:103030000701052924D2DFE801F075BC7D25B10028
:1030400006A8FFF7C7FD079809B0BDE8F08F6846EE
:10305000FFF764FE0098F7E703A8FFF701FF039866
:10306000F2E72068C0F3C10022FA00F0ECE7226822
:10307000D20571D561456FD11846E5E74145E3D0EA
:103080000020E1E74846DFE7DAF8001001F4E071DC
:1030900080294FD004DC002944D04029F0D188E0B9
:1030A000C029EFD0B1F5807FEAD177E0DBF80010DE
:1030B00001F46001B1F5800F3CD004DC91B3B1F5AF
:1030C000001FDDD175E0B1F5C00FDBD0B1F5000F09
:1030D000D6D163E001E018E030E0DBF8001001F049
:1030E000E061B1F1007F25D008DCD9B1B1F1807F7A
:1030F000C6D15EE049E06CE079E09CE0B1F1407F50
:10310000C0D0B1F1806FBBD148E0DAF8001001F413
:10311000E041B1F5005F0DD005DC19B1B1F5805F7C
:10312000AED146E094E0B1F5405FABD0B1F5804F51
:10313000A6D133E020688000A2D58DE7DAF8001030
:1031400001F4E021B1F5403F6CD006DC61B14945A6
:103150007AD0714594D157E037E0B1F5802F65D032
:10316000B1F5A02F8CD10CE000F0D4FE6CE76846DE
:10317000FFF7D4FD019867E703A8FFF771FE0498F5
:1031800062E721688903F1D47AE7DBF8001011F4D3
:1031900040310ED0494510D07145F5D131682568D0
:1031A00001F040516D077FF562AF00297FF45FAFFA
:1031B00057E720680001E7D549E720688000E3D59C
:1031C00003A8FFF74DFE05983EE722689203DBD582
:1031D00054E7306810F480303AD04845D4D12068A4
:1031E0000001D1D56846FFF799FD02982CE7DBF87E
:1031F000001001F0E041B1F1405F13D008DC71B183
:10320000614521D04145BFD120688000B4D437E763
:10321000B1F1804F0AD0B1F1A04FB2D030E7FFF743
:10322000C7FC11E720684007AED51AE72068C00543
:10323000AAD521E708E0DAF8001011F04051A0D03B
:10324000614505D041459FD1206800018FD417E723
:103250002068800198D5F3E6504402580090D003CE
:1032600040787D010080BB00004402582DE9FE4FEC
:103270000546DFF8E48350F8081B0024F64FC943E5
:10328000019005F12800264608F124080090080165
:103290001DD4A86E50B1B0F5801F0CD0B0F5001F42
:1032A0000ED0B0F5401F1ED001240FE0386840F466
:1032B0000030386017E00198022102F0B7FA03E00D
:1032C0000098022102F042FB04000CD02646288818
:1032D000C043C00523D4A86D05281ED2DFE800F046
:1032E0000C11161B1B00AA6ED8F8001021F4401117
:1032F0001143C8F80010EAE7386840F4003038603D
:1033000009E00198002102F091FA03E00098002101
:1033100002F01CFB044674B100E001242646288814
:10332000C043800528D4E86D80281ED00CDC90B105
:1033300040280ED114E0AA6DD8F8001021F0070142
:103340001143C8F80010EAE7C02813D0B0F5807F19
:1033500010D001240FE0386840F40030386009E0F4
:103360000198002102F062FA03E00098002102F0C7
:10337000EDFA04469CB126462888DFF8DC92C0436B
:1033800009F12C0940052CD4D5F8A800B0F5800F20
:1033900020D00DDCA0B1B0F5001F0FD115E0EA6D13
:1033A000D8F8001021F4E0711143C8F80010E3E7E9
:1033B000B0F5C00F13D0B0F5000F10D001240FE00E
:1033C000386840F40030386009E00198002102F0CC
:1033D0002DFA03E00098002102F0B8FA04467CB10F
:1033E00026462888C04300052DD4D5F8AC00B0F19E
:1033F000007F21D00EDCA8B1B0F1807F10D116E0A3
:10340000D5F8A820D9F8001021F460011143C9F8BB
:103410000010E6E7B0F1407F13D0B0F1806F10D01C
:1034200001240FE0386840F40030386009E001986A
:10343000002102F0FBF903E00098002102F086FA77
:10344000044674B126462868C04380011FD4E86C46
:10345000D8B110280FD0202812D0302815D0012440
:1034600014E0D5F8AC20D9F8001021F0E061114348
:10347000C9F80010E7E7386840F40030386004E02D
:103480000198022102F0D2F9044674B12646288838
:10349000C043C0042BD4286EB0F5005F20D00DDCF3
:1034A000A0B1B0F5805F0FD115E06B48EA6C203019
:1034B000016821F0300111430160E8E7B0F5405F99
:1034C00013D0B0F5804F10D001240FE0386840F4DD
:1034D0000030386009E00198002102F0A7F903E00C
:1034E0000098002102F032FA04468CB12646288862
:1034F000C043800429D4686EB0F5403F23D010DC6F
:1035000008B3B0F5803F14D0B0F5003F0FD115E0FF
:103510002A6ED8F8001021F4E0411143C8F80010D9
:10352000E5E7B0F5802F0ED0B0F5A02F0BD0012429
:103530000AE00198012102F079F903E000980121E5
:1035400002F004FA044694B126462888C043400499
:103550002AD4D5F8B000B0F1405F23D010DC08B316
:10356000B0F1805F14D0B0F1005F0FD115E06A6E4A
:10357000D8F8001021F4E0211143C8F80010E4E766
:10358000B0F1804F0ED0B0F1A04F0BD001240AE073
:103590000198012102F04AF903E00098012102F0AC
:1035A000D5F9044674B126462888C04300041FD4C8
:1035B000286FD8B1B0F1805F0ED0B0F1005F10D0AD
:1035C000012414E0D5F8B020D9F8001021F0E04132
:1035D0001143C9F80010E7E7386840F4003038605C
:1035E00004E00198012102F021F9044674B1264655
:1035F0002868C043C0011ED4A86CD0B101280ED0E9
:10360000022811D0032814D0012413E02A6FD8F81F
:10361000001021F040511143C8F80010E8E7386865
:1036200040F40030386004E00198022102F0FEF816
:103630000446ACB126462868DFF81CB0C043ABF1A5
:103640001C0B400252D40548016841F480710160AE
:10365000FFF762F9824611E02C44025800480258F4
:10366000FA48AA6C016821F0030111430160E2E706
:10367000FFF752F9A0EB0A00642835D8F448006837
:10368000C005F5D58CBBDFF8C4A3B5F8B4100AF1BA
:10369000240ADAF8000001F4407100F44070884216
:1036A00011D0DAF80010DAF8002021F4407142F469
:1036B0008032CAF80020DAF8002022F48032CAF8FA
:1036C0000020CAF80010D5F8B400B0F5807F1AD1F8
:1036D000FFF722F9029012E0FFF71EF90299411A52
:1036E00041F2883081420AD9032426462878DFF83F
:1036F0005CA3C0430AF1080AC00721D03CE0DAF815
:1037000000008007E8D5D5F8B410C1F301200328E4
:1037100058460DD0016821F47C510160B5F8B42001
:10372000DAF80010C2F30B021143CAF80010DDE70B
:10373000C84A036802EA111223F47C511143ECE7F2
:10374000E86F182816D005DCA0B1082808D010288A
:1037500004D10AE020280DD028280BD001240AE04B
:103760000198012102F062F803E00098012102F0C3
:10377000EDF8044664B126462878C04380071ED47D
:10378000A86F062819D2DFE800F0160C11161616DD
:10379000EA6FDAF8001021F038011143CAF800107E
:1037A000EAE70198012102F041F803E000980121C5
:1037B00002F0CCF804467CB100E0012426462878CB
:1037C000C04340071FD4D5F89400062819D2DFE87B
:1037D00000F0160C11161616AA6FDAF8001021F078
:1037E00007011143CAF80010E9E70198012102F02E
:1037F0001DF803E00098012102F0A8F80446A4B1E6
:1038000000E0012426462878C04380062BD4D5F852
:103810009000B0F1405F24D011DC10B3B0F1805FB4
:1038200015D0B0F1005F10D116E0D5F89420D9F88A
:10383000001021F007011143C9F80010E3E7B0F1CF
:10384000804F0ED0B0F1A04F0BD001240AE00198B8
:10385000002101F0EBFF03E00098022102F076F86E
:10386000044694B126462878C04340062BD4D5F8A8
:103870009C00B0F5406F24D011DC10B3B0F5806F20
:1038800015D0B0F5006F10D116E0D5F89020DAF819
:10389000001021F0E0411143CAF80010E3E7B0F551
:1038A000805F0ED0B0F5A05F0BD001240AE0019834
:1038B000002101F0BBFF03E00098022102F046F86E
:1038C000044694B126462878C04300062BD4D5F888
:1038D000A000B0F5C04F24D011DC10B3B0F5005FEC
:1038E00015D0B0F5804F10D116E0D5F89C20D9F84E
:1038F000001021F4E0511143C9F80010E3E7B0F5DE
:10390000004F0ED0B0F5204F0BD001240AE00198F3
:10391000002101F08BFF03E00098022102F016F86D
:10392000044654B126462878C04300071ED4D5F873
:103930008400B0F5805F0AD00FE0D5F8A020D9F858
:10394000001021F460411143C9F80010EBE7009822
:10395000022101F0FBFF00B10126D5F88420DAF83E
:10396000001021F440511143CAF800102878C043D8
:10397000C00613D4D5F89800B0F5807F05D1009823
:10398000022101F0E3FF00B10126D5F89820D9F813
:10399000001021F440711143C9F800102868C04399
:1039A000000316D4D5F8A40038B1B0F5803F09D093
:1039B000B0F5003F0BD001240AE00198002101F08E
:1039C00035FF03E00098022101F0C0FF04468CB1EE
:1039D00026462868C043400322D4D5F88800B0F5B5
:1039E000801F11D0B0F5001F13D0B0F5401F15D0C7
:1039F000012414E0D5F8A420D9F8001021F44031B6
:103A00001143C9F80010E4E7386840F4003038602A
:103A100004E00098012101F099FF04465CB12646BC
:103A20002868C043C00323D4286DA8B1B0F5803FF7
:103A300017D001241BE0D5F88820DAF8001021F413
:103A400040111143CAF80010EAE700004C44025844
:103A500000480258CFFFFF00386840F4003038605B
:103A600004E00198022101F0E1FE0446E4B126469B
:103A70002868C043800005D40098022101F066FF49
:103A800000B101262868C04380031BD4D5F880000C
:103A9000B0B1B0F5807F0FD0B0F5007F10D0B0F599
:103AA000407F0DD001240CE05A482A6D016821F4B2
:103AB000803111430160DBE7386840F40030386042
:103AC000ECB326462868C043C00207D46A6FD8F812
:103AD000001021F000411143C8F800102868C043CD
:103AE000C00008D4D5F8B820DBF8001021F48041DC
:103AF0001143CBF800102868C043800207D4EA6E57
:103B0000D8F8001021F080711143C8F8001028681F
:103B1000C04340000CD4DBF8001021F40041CBF886
:103B20000010DBF80010D5F8BC201143CBF80010D2
:103B30002868C04308D437486A6D016800E018E07F
:103B400021F04051114301602868C043000208D4AD
:103B5000D5F88C20DAF8001021F440011143CAF89E
:103B6000001028790024C04300F0010020430AD04F
:103B70000FE0D5F88020DAF8001021F440711143ED
:103B8000CAF800109EE70198002101F04FFE00B135
:103B900006462879C04300F00200204305D1019871
:103BA000012101F043FE00B106462879C04300F030
:103BB0000400204305D10198022101F037FE00B135
:103BC00006462879C04300F00800204305D100983C
:103BD000002101F0BBFE00B106462879C04300F089
:103BE0001000204305D10098012101F0AFFE00B183
:103BF00006462879C04300F02000044304D1009811
:103C0000022101F0A3FE00B916B10120BDE8FE8F2C
:103C10000020FBE74C4402582DE9F05F04000F46FA
:103C20007ED0DFF83882D8F8000000F00F00B842EC
:103C30000CD2D8F8001021F00F013943C8F8001059
:103C4000D8F8000000F00F00B84269D12078844D08
:103C500040070AD52069296801F07001884204D91B
:103C6000296821F070010143296020787C4E361DBF
:103C700000070AD56069316801F07001884204D9F3
:103C8000316821F07001014331602078C0060AD507
:103C9000A069316801F4E061884204D9316821F4F7
:103CA000E061014331602078DFF8B4B180060BF1A8
:103CB000080B0CD5E1695846DBF8002002F07002D1
:103CC000914204D9026822F070020A43026020780F
:103CD00080070AD5E068296801F00F01884204D9FD
:103CE000296821F00F01014329602078C0073ED0E8
:103CF0005B49A2682868183920F470601043286076
:103D00006068022818D0032819D00968012819D042
:103D1000490700294ADADFF848A1AAF1080A00E0B9
:103D200044E0DAF8002022F007020243CAF800203B
:103D3000FEF7F2FD814612E009688903E9E70968A8
:103D40008901E6E7C905E4E7FEF7E6FDA0EB090116
:103D500041F28830814202D90320BDE8F09F6168BA
:103D6000DAF8000000F03800B0EBC10FECD1207899
:103D700080070AD5E068296801F00F01884204D263
:103D8000296821F00F0101432960D8F8001040464E
:103D900001F00F01B9420BD9016821F00F0139433D
:103DA0000160006800F00F00B84201D00120D4E7A4
:103DB000207840070AD52069296801F070018842FF
:103DC00004D2296821F0700101432960207800079E
:103DD0000AD56069316801F07001884204D2316807
:103DE00021F07001014331602078C0060AD5A06936
:103DF000316801F4E061884204D2316821F4E06165
:103E000001433160207880060CD5E1695846DBF823
:103E1000002002F07002914204D2026822F0700287
:103E20000A43026000F09AF80E492A682B68C2F330
:103E3000032203F00F038A5CC95C02F01F0201F049
:103E40001F01D040084A20FA01F1116007490860BB
:103E500007480068BDE8F05FFEF79ABD00200052F9
:103E600018440258008000081800002414000024A0
:103E70000C00002470B5144C3F220260124A2468E2
:103E80000832131D114D04F00704446016681C1D10
:103E900006F470668660166806F00F06C660126843
:103EA00002F0700202611A6802F0700242611A6840
:103EB00002F4E0628261226802F07002C261286846
:103EC00000F00F00086070BD10440258002000523E
:103ED00030B500F043F80B4A0B490C4B15681468D9
:103EE000C5F3032204F00F048A5C095D02F01F028F
:103EF00001F01F01D040064A20FA01F1196010605C
:103F0000084630BD184402580080000818000024FC
:103F10001400002400B5FFF7DBFF05490968054AD6
:103F2000C1F30211515C01F01F01C84000BD000047
:103F30001C4402580080000800B5FFF7C9FF05497E
:103F40000968054AC1F30221515C01F01F01C84014
:103F500000BD00001C44025800800008454970B5AF
:103F600045480968434B103B11F0380208D0011155
:103F7000082A03D0102A0BD0182A0BD0084670BD8F
:103F800019688906FBD51968C1F3C101C84070BD25
:103F90003A4870BD3749374D18310C1D24350A6831
:103FA000096826682D6802F0030406F00102C1F3D7
:103FB0000511C5F3CC0515FB02F200EE102AB8EE90
:103FC000400AE9B32F4ADFED2E0AB7EE001A6CB1B2
:103FD000DFED2D1A012C01D0022C43D002EE101A75
:103FE0001068F8EE422A81EEA22A1EE01C68A406A0
:103FF00011D51B6801EE901A1168C3F3C103F8EEE6
:10400000612AD84001EE900AC1F30800F8EE611A67
:1040100081EEA22A0BE001EE901ADFED1C2A00BF10
:10402000F8EE611A106882EEA12AC0F3080001EED2
:10403000900AF8EE611A40EE201A31EE810A00E093
:1040400015E022EE000A1068C0F34620401C00EE86
:10405000900AF8EE600A80EE201ABCEEC10A10EE5B
:10406000100A70BD01EE901ADFED092AD8E7002092
:1040700070BD0000104402580090D00340787D01CC
:1040800000000039304402580024744A0024744C63
:1040900020BCBE4B2DE9F05F04007DD0FF4F20789F
:1040A000FE4D1837DFF8F493103DC00748D0D9F81B
:1040B0000000396800F03800102815D0182803D106
:1040C00001F0030002280FD06068B0F5803F12D0E5
:1040D00010B1B0F5A02F18D0286820F480302860E7
:1040E000286820F4802009E02868800328D56068CB
:1040F0000028D2D024E0286840F48030286060682E
:1041000088B1FEF709FC064609E0286840F48020E3
:104110002860F0E7FEF700FC801B64286FD8286851
:104120008003F7D50CE0FEF7F7FB064605E000BF7D
:10413000FEF7F2FB801B6428F0D828688003F7D4D0
:10414000207841F20308D54E0C3E800769D5D9F896
:104150000000396810F038000ED0182801D1880707
:104160000AD0E06890B3296821F019010143296061
:10417000FEF7D2FB824631E02868400702D5E068AE
:1041800000288AD0E168286820F0190008432860D8
:10419000FEF7C2FB824607E0DFE000BFFEF7BCFB94
:1041A000A0EB0A000228B9D828684007F6D500BF5E
:1041B000FEF7ACFB40451BD82069402812D031687F
:1041C00021F47C3141EA003030602AE018E000BF81
:1041D000FEF7A2FBA0EB0A0002289FD82868400740
:1041E000F6D5E5E7306820F47C3040F40030EBE7AA
:1041F000207C316821F0FE4141EA0060E4E70DE1F6
:10420000286820F001002860FEF786FB824605E062
:10421000FEF782FBA0EB0A0002288DD82868400731
:10422000F6D42078C0065DD5D9F80000DFF86CB26E
:10423000396800F03800ABF1040B082810D01828BA
:1042400003D101F0030001280AD0E06900282868A2
:1042500038D040F080002860FEF75EFB824623E005
:104260002868C00523D5E069802876D11FE0206A40
:10427000202821D0316821F0F84141EA8060306087
:1042800030E000BF94F82010DBF8002022F07C52D0
:1042900042EA0161CBF8001024E000BFFEF73CFBCE
:1042A000A0EB0A00022898D82868C005F6D5FEF7CA
:1042B0002DFB4045E6D8DAE7306820F0F84040F0C2
:1042C0008040DCE720F080002860FEF725FB0646F2
:1042D00005E000BFFEF720FB801B02289DD8286860
:1042E000C005F7D42078000729D56C48616964308F
:1042F00000298046016811D041F001010160FEF7FC
:104300000BFB064605E000BFFEF706FB801B0228FC
:10431000C9D8D8F800008007F6D510E021F00101D7
:104320000160FEF7F9FA064605E000BFFEF7F4FA71
:10433000801B022872D8D8F800008007F6D42078B5
:10434000800623D5A0690028286810D040F480504A
:104350002860FEF7E1FA064605E036E1FEF7DCFAF2
:10436000801B02285AD828688004F7D50EE020F474
:1043700080502860FEF7D0FA064604E0FEF7CCFA3B
:10438000801B02284AD828688004F7D42078400788
:104390004FD5DFF80C81D8F8001041F48071C8F8CF
:1043A0000010FEF7B9FA064605E000BFFEF7B4FAC2
:1043B000801B642832D8D8F80000C005F6D5374EE7
:1043C000A068603601280AD008B1052813D03068EB
:1043D00020F001003060306820F0040002E0306816
:1043E00040F001003060A06841F2883A90B1FEF7D9
:1043F00093FA80460AE0306840F004003060EEE74F
:10440000FEF78AFAA0EB0801514507D8306880070B
:10441000F6D50EE0FEF780FA804607E084E000BFA4
:10442000FEF77AFAA0EB080151457DD83068800785
:10443000F6D4606AB0B3DFF86480D9F8001008F1F0
:1044400020084FF6F87B08F10409C1F3C2010329E3
:10445000A8F1040A69D00228286820F0807028603A
:1044600003D0FEF759FA044684E0FEF755FA0646F3
:1044700005E000BFFEF750FA801B022877D82868B5
:104480008001F7D4E26A40F2F331386854F8283FEB
:10449000884340EA02101843386004E01044025890
:1044A00000480258B5E0217B434622894FF4FE0CB8
:1044B000208A4FF0FE474902267D521E401EA1F57C
:1044C0000071C2F308088AB2761E0CEA004042EA84
:1044D00008020243504607EA06610A431A60DAF806
:1044E000002022F00102CAF80020D9F80020266A34
:1044F00022EA0B0242EAC602C9F80020DAF80010EC
:10450000A26921F00C011143CAF800100168E269A8
:1045100021F0020111430160016841F48031016022
:10452000016841F4003101E021E027E00160016809
:1045300041F480210160016841F0010101602868B7
:1045400040F080702860FEF7E7F9044605E000BF00
:10455000FEF7E2F9001B022809D828688001F7D588
:1045600057E000BFFEF7D8F9001B022802D903204C
:10457000BDE8F09F28688001F4D44AE0396801283A
:10458000D8F8000021D0A26A01F0030393421CD1A5
:10459000E26AC1F305118A4217D1216BC0F3080208
:1045A000491E8A4211D1616BC0F34622491E9142D5
:1045B0000BD1A16BC0F30642491E914205D1E16BBC
:1045C000C0F30660491E814201D00120D0E7A16CF2
:1045D0004E46D9F80000C0F3CC00814219D0DAF879
:1045E0000000554620F00100CAF80000FEF794F9DB
:1045F0004FEA0007FEF790F9B842FBD0A26C306892
:1046000020EA0B0040EAC2003060286840F0010058
:1046100028600020ACE77047704770472DE9F043F1
:1046200090F83C20012A42D0012280F83C2051F829
:104630000C4BDFF880804FF0000991E8680051E9E9
:10464000022723F44073B1F80CC03B43CF6923F435
:1046500080631343026823F40063234323F48053ED
:1046600043EA050323F4005343EA060323F480439B
:1046700043EA07030C3923F47023424543EA0C4311
:1046800002D00D4CA2420CD18D8C23F47006D1E9DE
:10469000073446EA055121F08071194321F0007377
:1046A0002343536480F83C900020BDE8F08302204F
:1046B000FBE700000000014000040140F0B590F865
:1046C0003C20012A3BD01F4E012480F83C400222AE
:1046D00080F83D2002681C4D5368B242D2F808C0F1
:1046E00001D0AA4203D14F6823F470033B430F6803
:1046F00023F070031F4357600268B24213D0B2F137
:10470000804F10D0114B9A420DD0114B9A420AD0D3
:10471000104B9A4207D0AA4205D00F4B9A4202D0C2
:104720000E4B9A4204D189682CF0800319439160A2
:10473000002180F83D4080F83C100846F0BD022082
:10474000F0BD0000000001400004014000040040F2
:1047500000080040000C00400018004000400140EC
:1047600010B5040003D094F83D0010B107E001201B
:1047700010BD002084F83C00204600F023F8022001
:1047800084F83D002068211D01F05EFA012084F8C4
:10479000480084F83E0084F83F0084F8400084F824
:1047A000410084F8420084F8430084F8440084F80F
:1047B000450084F8460084F8470084F83D00002056
:1047C00010BD000008B500681149884212D1114897
:1047D000016841F02001016000680022012100F021
:1047E000200000903720FEF787F9BDE80840372009
:1047F000FEF774B90849884209D1064808300168B3
:1048000041F480310160006800F48030009008BD00
:1048100000140040E84402580040014090F83D1068
:10482000012901D001207047174A022180F83D106C
:104830000168CB6843F00103CB600068904214D05C
:10484000B0F1804F11D0114988420ED010498842F2
:104850000BD01049884208D00F49884205D00F4933
:10486000884202D00E49884207D181680D4A114022
:10487000062906D0B1F5803F03D0016841F001015F
:10488000016000207047000000000140000400406B
:1048900000080040000C00400004014000180040E7
:1048A000004001400700010070B5044690F83C004C
:1048B0000025012814D03A4B012684F83C600220E0
:1048C00084F83D0022689068184020F47F40906092
:1048D000086870282FD010DC10F00F0F03D022E0F2
:1048E0004FF0020070BD4FEA2012072A1BD2DFE80A
:1048F00002F0535353534B394100B0F1101F4BD0CA
:1049000009DCB0F5805F0FD0B0F5005F1ED0B0F5C8
:10491000801F08D140E0A0F5801120393CD010293B
:104920003AD0202938D0012584F83D60002084F851
:104930003C00284670BD4A682068D1E9021301F0A6
:10494000E9F92068816841F0770109E04A68206848
:10495000D1E9021301F0DEF92068816841F4804159
:104960008160E1E7CA684968206801F081FB20683E
:10497000502106E0CA684968206801F08AFB206877
:10498000602101F0D1F9CFE7CA684968206801F0D9
:104990006FFB20684021F4E7226801461046F0E7EB
:1049A00088FFCEFF2DE9F04104000D4603D094F8B6
:1049B0003D0018B108E00120BDE8F081002084F836
:1049C0003C00204600F04CF8244A022084F83D00C8
:1049D00020688168114081602068211D01F034F950
:1049E000226840F20336AF6940F60C4C2B684FF258
:1049F000F00EA86891680B439169B14341EA072121
:104A00000843D5E9031720EA0C00D5E9076C20EA32
:104A10000E00D2F820E03F0140EA062668686D6982
:104A2000314347EA0C37936023680F4301219F61AC
:104A30002EF0AA0242EA051322681843106284F895
:104A4000481084F83E1084F83F1084F8441084F82D
:104A5000451084F83D100020AEE70000F8BFFEFFCF
:104A600010B586B0044614216846FBF7ADFD124927
:104A7000206888421ED11148016841F0020101609E
:104A8000006800F0020005900C480838016841F009
:104A90000201016000680021302200F00200059050
:104AA00002200092CDE90101CDE9031004486946D6
:104AB000FDF710FE06B010BD00040040E8440258A7
:104AC0000004025870472DE9F041044600680027B1
:104AD000C6680569A90713D5B10711D5FA1E026189
:104AE00001212177206880698007204602D0FFF7E6
:104AF000E9FF04E000F031F9204600F045FA27779D
:104B0000680716D5700714D5226802206FF00401DB
:104B1000116120772068806910F4407F204602D020
:104B2000FFF7D0FF04E000F018F9204600F02CFA5F
:104B30002777280715D5300713D5226804206FF092
:104B40000801116120772068C0698007204602D0E3
:104B5000FFF7B8FF04E000F000F9204600F014FA77
:104B60002777E80616D5F00614D5226808206FF0DE
:104B70001001116120772068C06910F4407F204641
:104B800002D0FFF79FFF04E000F0E7F8204600F0B6
:104B9000FBF92777E80708D0F00706D021686FF007
:104BA00001000861204600F0F1F9280601D4A804AC
:104BB00008D5300606D521686FF4025008612046FA
:104BC000FFF72AFDE80508D5300606D521686FF401
:104BD000807008612046FFF71EFD680608D5700644
:104BE00006D521686FF040000861204600F0D8F932
:104BF000A8060AD5B00608D521686FF02000086124
:104C00002046BDE8F041FFF708BDBDE8F081000097
:104C100070B586B0044614216846FBF7D5FC2C4AD3
:104C20004FF00205216800242A48914212D1016800
:104C300041F0100101600068012100F010000590B2
:104C40004FF47C500090CDE90154CDE90341224856
:104C5000694638E0214A914237D1016841F00101AB
:104C60000160016801F001010591016841F0020154
:104C70000160016801F002010591016841F0040141
:104C8000016000680326694600F00400059080205A
:104C90000090CDE901541248CDE90346FDF71AFD15
:104CA000B0030090CDE901540E486946CDE90346B2
:104CB000FDF710FD4FF4E0700090CDE901540A4873
:104CC0006946CDE90346FDF705FD06B070BD00005D
:104CD00000000140E0440258001002580004014066
:104CE00000000258000402580008025870B504463B
:104CF00090F83C00002501280BD0012084F83C00EE
:104D00000C2A1ED007DC82B1042A12D0082A06D150
:104D100013E0022070BD102A17D0142A19D00125E3
:104D2000002084F83C00284670BD206801F006F899
:104D3000F6E7206801F054F8F2E7206801F09CF8EB
:104D4000EEE7206801F0E4F8EAE7206801F01CF9DA
:104D5000E6E7206801F052F9E2E7704710B5040079
:104D600003D094F83D0010B107E0012010BD0020F1
:104D700084F83C00204600F022F8022084F83D0030
:104D80002068211D00F060FF012084F8480084F8AD
:104D90003E0084F83F0084F8400084F8410084F825
:104DA000420084F8430084F8440084F8450084F805
:104DB000460084F8470084F83D00002010BD70478D
:104DC00070B5044690F83C0000260D4601280BD033
:104DD000012084F83C000C2A4AD007DC82B1042A66
:104DE00020D0082A06D131E0022070BD102A53D00D
:104DF000142A63D00126002084F83C00304670BDA0
:104E0000206800F09BFF2068816941F00801816102
:104E10002068816921F00401816120682A69816923
:104E2000114311E0206800F0DBFF2068816941F444
:104E3000006181612068816921F48061816120685D
:104E40002969826942EA01218161D4E7206801F081
:104E500013F82068C16941F00801C1612068C16987
:104E600021F00401C16120682A69C169114311E080
:104E7000206801F04DF82068C16941F40061C1610A
:104E80002068C16921F48061C16120682969C26913
:104E900042EA0121C161AEE7206801F075F820689F
:104EA000416D41F0080141652068416D21F0040128
:104EB000416520682A69416D114311E0206801F0C5
:104EC0009DF82068416D41F4006141652068416DA5
:104ED00021F48061416520682969426D42EA01211F
:104EE000416588E710B5040003D094F83D0010B187
:104EF00007E0012010BD002084F83C00204600F0AF
:104F000023F8022084F83D002068211D00F09CFE5B
:104F1000012084F8480084F83E0084F83F0084F8BB
:104F2000400084F8410084F8420084F8430084F88B
:104F3000440084F8450084F8460084F8470084F86B
:104F40003D00002010BD000008B50C4A01680C4867
:104F5000914207D1016841F001010160006800F051
:104F6000010009E0074A914207D1016841F00201BE
:104F70000160006800F00200009008BD00000140E0
:104F8000F0440258000401407047000000680349E3
:104F9000884201D1FDF7C6BC7047000000100040F8
:104FA000704730B590F88410012918D0012280F89C
:104FB00084202421C0F888100022202401680B6876
:104FC0000D6823F0005325F001050D60426601686D
:104FD0000B60C0F8884080F88420104630BD022065
:104FE00030BD70B5044690F8840001281DD0012220
:104FF00084F884202420C4F88800206805680268AA
:1050000022F0010202602068826822F060620A4396
:105010008260204601F050F82268202100201560AF
:10502000C4F8881084F8840070BD022070BD70B58B
:10503000044690F8840001281DD0012284F88420C1
:105040002420C4F8880020680568026822F0010264
:1050500002602068826822F060420A438260204633
:1050600001F02AF82268202100201560C4F8881079
:1050700084F8840070BD022070BD10B5040003D018
:10508000D4F8880010B107E0012010BD002084F89A
:105090008400204600F026F82420C4F88800206808
:1050A000016821F001010160A06A10B1204601F001
:1050B00025F8204601F006F90128E6D0206841686D
:1050C00021F4904141602068816821F02A018160CB
:1050D0002068016841F0010101602046BDE81040F0
:1050E00001F070B810B5B6B00446142130A8FBF733
:1050F0006BFAC0216846FBF767FA194920688842B5
:105100002BD100201E9002210446CDE900106846F4
:10511000FEF7ACF808B1FBF7BCFC1248016841F49B
:1051200000210160006800F4002035900D48083827
:10513000016841F001010160006830AB022100F01C
:10514000010035904FF4C050062283E81300064852
:1051500030A9CDE93342FDF7BDFA36B010BD0000ED
:10516000004C0040E844025800000258FEE700EB03
:105170008100006E00F0F84070478068C0F3C00006
:1051800070478068C0F3C00070478068C0F380003B
:1051900070478068C0F380007047C06810F4406FAB
:1051A00001D0002070470120704700EB810002F021
:1051B000F841026E194302F000420A43026670474A
:1051C0002DE9F0419AB000241C210FA816941794E1
:1051D0001894FBF7F9F93C216846FBF7F5F94248CA
:1051E0000425404A4FF44033012102600322C0E904
:1051F0000134C0E9031504758E0241754FF4A463B0
:10520000826104774362C0E90A640463446380F8FE
:105210003840C163FCF740FB08B1FBF73AFC324869
:1052200016A91694FBF74AFF08B1FBF732FC2E488B
:10523000FBF740FC10AADFF8B480052640F2FF77A8
:105240000621CDF83C8082E8C200CDE913542648FF
:105250000FA98DF85540FBF7C5FF08B1FBF719FC06
:105260000FAA23480C2182E813001F480FA9FBF75F
:10527000B9FF08B1FBF70DFC12211E48CDE90F0163
:1052800019480FA9FBF7AEFF08B1FBF702FC1A495A
:10529000092280208DE8C600CDE904548DF8244011
:1052A00002238DF81C4069468DF825400A900B902A
:1052B0000D4808938DF826408DF83040FBF714FC1C
:1052C00008B1FBF7E6FB40F20F110748CDE900817A
:1052D0006946FBF709FC002801D0FBF7DAFB1AB09E
:1052E000BDE8F081002002409C0000240008302E20
:1052F0001000C0100000844B0004002A30B587B0B5
:105300001C216846FBF760F919480024174B042557
:105310004FF4403201210360C0E90124C0E9034594
:10532000047544758161047744628462C4620463D5
:10533000446380F83840C163FCF7AEFA08B1FBF76C
:10534000A8FB0C48062140F2FF7203928DE813007F
:1053500007486946CDE904548DF81940FBF742FF30
:10536000002801D0FBF795FB07B030BD00210240BB
:10537000000100240080F03E094808B5016841F0B2
:105380000101016000680022052100F00100009089
:105390000C20FDF7B1FBBDE808400C20FDF79EBBDB
:1053A000D8440258044A0021044810B501F03EFADE
:1053B0000349086010BD0000AC7F00086D5A00086A
:1053C000000000242DE9F04186B014216846FBF767
:1053D000FBF84048016841F010010160016801F0EC
:1053E00010010591016841F080010160016801F040
:1053F00080010591016841F004010160016801F03C
:1054000004010591016841F001010160016801F0AA
:1054100001010591016841F002010160016801F09C
:1054200002010591016841F0080101600068002255
:10543000DFF8A480062100F0080005904046FDF743
:105440005FFA0126254F102069464FF488158DE834
:1054500061003846FDF73EF9002469466320029456
:10546000CDE900043846FDF735F906200090CDE976
:105470000164694640460394FDF72CF98020694693
:10548000CDE9000440460294FDF724F9144E0820AB
:10549000CDE90004694630460294FDF71BF940202F
:1054A0006946CDE9000530460294FDF713F9002264
:1054B00003210A20FDF720FB0A20FDF70FFB002245
:1054C00003211720FDF718FB1720FDF707FB06B097
:1054D000BDE8F081E0440258000C02580010025868
:1054E0000004025810B588B0174800244FF6FF7228
:1054F000144900940194029403940494059406942E
:10550000C0E90014C0E90242046144618461FFF70C
:1055100027F908B1FBF7BDFA4FF4805000900A4814
:105520006946FFF7C1F908B1FBF7B3FA064804A9C9
:1055300004940694FFF7C2F8002801D0FBF7A9FAFB
:1055400008B010BD004001400C03002470B596B0B7
:10555000002468461C21129413941494FBF734F829
:105560002C2107A8FBF730F83448202232490125C6
:10557000802640F6B733E0E8021480E87C002F482C
:10558000FFF7B0FC08B1FBF784FA2C48FFF7E6FB05
:1055900008B1FBF77EFA70201494CDE91204274875
:1055A00012A9FFF78BF808B1FBF773FA6020694680
:1055B000CDE9000421480022029403940494059448
:1055C0000694FFF7FDFB08B1FBF763FA1B480422C2
:1055D0006946FFF7F5FB08B1FBF75BFA17480822AD
:1055E0006946FFF7EDFB08B1FBF753FA40F2DC50D8
:1055F00069460C22CDE900401048FFF777FB08B15F
:10560000FBF747FA4FF400500794089409940103FC
:105610000A94CDE90B40CDE90E41084807A90D9445
:1056200010941194FEF7FAFF08B1FBF732FA034821
:10563000FFF7EEFA16B070BD00000140DC01002457
:1056400070B58CB024216846FAF7BEFF16480024D6
:105650004FF6FF72134E099401210A9480230B9494
:105660000325C0E90064C0E902420461836100953A
:10567000CDE9014103940494CDE9054169460794BD
:105680000894FFF78FF908B1FBF703FA064809A958
:1056900009940B94FFF712F8002801D0FBF7F9F9F1
:1056A0000CB070BD00040040280200243EB5104834
:1056B000002405220D4DEF230094019480210294D3
:1056C0008161C0E90242C0E90053FFF749F808B11F
:1056D000FBF7DFF90648694600940294FEF7EEFFF7
:1056E000002801D0FBF7D5F93EBD000000140040B2
:1056F0007402002410B596B0002468461C21129450
:1057000013941494FAF760FF2C2107A8FAF75CFFB2
:105710002A4840F6B7322849C0E90014C0E90242DD
:10572000046144618461FFF7DDFB08B1FBF7B1F967
:10573000224812A9129413941494FEF7BFFF08B1E3
:10574000FBF7A7F960206946CDE900041B48002259
:1057500002940394049405940694FFF731FB08B176
:10576000FBF797F9154804226946FFF729FB08B1B2
:10577000FBF78FF9114808226946FFF721FB08B1B2
:10578000FBF787F94FF4005007940894099401033C
:105790000A94CDE90B40CDE90E41084807A90D94C4
:1057A00010941194FEF73AFF08B1FBF772F9034821
:1057B000FFF72EFA16B010BD00040140C00200240D
:1057C0001848002110B5164C0C224FF4E133046048
:1057D000C0E90131C160C0E904128161C1610162A7
:1057E00041628162FFF749FC08B1FBF752F90D48AD
:1057F0000021FFF71CFC08B1FBF74BF90948002119
:10580000FFF7EFFB08B1FBF744F90648FFF7C9FBC8
:10581000002803D0BDE81040FBF73BB910BD0000E5
:10582000004C004058030024FEE7FEE72DE9F04756
:10583000454D044689464FF0000A2868C04380075A
:105840000AD0414E283E306820F080603060FDF77D
:1058500063F80746B04608E00120BDE8F08700BFC6
:10586000FDF75AF8C01B022867D8D8F800000001DD
:10587000F6D4206829684FF4FE0721F47C313E02FB
:1058800041EA00302860207AA389B4F804C04002BD
:105890002D4D2D495B1E227CACF1010C1035091DEC
:1058A000A0F5007080B2521ECCF3080C07EA034347
:1058B00040EA0C00184306EA0262104328600868B8
:1058C000626920F0C000104308600A68A06922F0F5
:1058D000200202430A60281D0A6822F010020A60B2
:1058E00002684FF6F873E4699A4342EAC402026020
:1058F0000868B9F1000F40F010020A6011D0086882
:10590000B9F1010F11D040F400100860D8F8000080
:10591000444640F08060C8F80000FCF7FDFF0546F3
:105920000DE0086840F40020EFE740F48010ECE759
:10593000FCF7F2FF401B022801D903208DE7206805
:105940000001F5D5504688E7284402582DE9F04774
:10595000454D044689464FF0000A2868C043800739
:105960000AD0414E283E306820F080503060FCF76D
:10597000D3FF0746B04608E00120BDE8F08700BF2E
:10598000FCF7CAFFC01B022867D8D8F800008000C7
:10599000F6D4208829684FF4FE0721F07C713E027E
:1059A00041EA00502860207AA389B4F804C040027C
:1059B0002D4D2D495B1E227CACF1010C1835091DC3
:1059C000A0F5007080B2521ECCF3080C07EA034326
:1059D00040EA0C00184306EA026210432860086897
:1059E000626920F44060104308600A68A06922F4EC
:1059F000007202430A60281D0A6822F480720A605D
:105A000002684FF6F873E4699A4342EAC4020260FE
:105A10000868B9F1000F40F480720A6011D008687C
:105A2000B9F1010F11D040F080700860D8F8000083
:105A3000444640F08050C8F80000FCF76DFF054672
:105A40000DE0086840F48000EFE740F40000ECE768
:105A5000FCF762FF401B022801D903208DE7206874
:105A60008000F5D5504688E728440258012000F010
:105A7000A0FEFBE74FF0E02010B5006902F0DCF873
:105A8000012803D0BDE8104001F000BE10BD0000A9
:105A900030B59DB04C216846FAF796FD202113A839
:105AA000FAF792FD0220FDF759F821480024214918
:105AB000026842F44042026002680A6842F0010251
:105AC0000A60096801F001011B9101688904FCD595
:105AD00002200090402504950121039104220B929D
